{
  "address": "0x8d5a620BDb87586F7a238170C3171C347FA70bc5",
  "abi": [
    {
      "inputs": [
        {
          "internalType": "contract ICrycle",
          "name": "_crycle",
          "type": "address"
        }
      ],
      "stateMutability": "nonpayable",
      "type": "constructor"
    },
    {
      "inputs": [
        {
          "internalType": "address",
          "name": "_user",
          "type": "address"
        },
        {
          "internalType": "address",
          "name": "_token",
          "type": "address"
        }
      ],
      "name": "claim",
      "outputs": [],
      "stateMutability": "nonpayable",
      "type": "function"
    },
    {
      "inputs": [
        {
          "internalType": "address",
          "name": "_user",
          "type": "address"
        },
        {
          "internalType": "contract IERC20",
          "name": "token",
          "type": "address"
        },
        {
          "internalType": "uint256",
          "name": "amount",
          "type": "uint256"
        }
      ],
      "name": "doHardWork",
      "outputs": [],
      "stateMutability": "nonpayable",
      "type": "function"
    },
    {
      "inputs": [
        {
          "internalType": "address",
          "name": "",
          "type": "address"
        },
        {
          "internalType": "address",
          "name": "",
          "type": "address"
        }
      ],
      "name": "reward",
      "outputs": [
        {
          "internalType": "uint256",
          "name": "",
          "type": "uint256"
        }
      ],
      "stateMutability": "view",
      "type": "function"
    }
  ],
  "transactionHash": "0x13658a84ea15e2426b335a966ff62e1bc87eb378db9e0178f1ada0ff0d6108ba",
  "args": [
    "0xFf6b4Bb55a98E5E3b77959c75b3D745bbB1Fea74"
  ],
  "solcInputHash": "242b40143480c3f95a14b352a9b967fb",
  "bytecode": "0x608060405234801561001057600080fd5b506040516106b93803806106b98339818101604052602081101561003357600080fd5b5051600080546001600160a01b039092166001600160a01b0319909216919091179055610654806100656000396000f3fe608060405234801561001057600080fd5b50600436106100415760003560e01c806321c0b342146100465780634d5b00811461007657806388fee43b146100b6575b600080fd5b6100746004803603604081101561005c57600080fd5b506001600160a01b03813581169160200135166100ec565b005b6100a46004803603604081101561008c57600080fd5b506001600160a01b0381358116916020013516610177565b60408051918252519081900360200190f35b610074600480360360608110156100cc57600080fd5b506001600160a01b03813581169160208101359091169060400135610194565b6001600160a01b0380831660009081526001602090815260408083209385168352929052205415610173576001600160a01b0380831660009081526001602090815260408083209385168352929052205461014a9082908490610248565b6001600160a01b0380831660009081526001602090815260408083209385168352929052908120555b5050565b600160209081526000928352604080842090915290825290205481565b6101a08233308461029f565b6000805460408051630254068b60e41b81526001600160a01b0387811660048301529151919092169163254068b0916024808301926020929190829003018186803b1580156101ee57600080fd5b505afa158015610202573d6000803e3d6000fd5b505050506040513d602081101561021857600080fd5b50516001600160a01b03908116600090815260016020908152604080832096909316825294909452909220555050565b604080516001600160a01b038416602482015260448082018490528251808303909101815260649091019091526020810180516001600160e01b031663a9059cbb60e01b17905261029a9084906102ff565b505050565b604080516001600160a01b0380861660248301528416604482015260648082018490528251808303909101815260849091019091526020810180516001600160e01b03166323b872dd60e01b1790526102f99085906102ff565b50505050565b6000610354826040518060400160405280602081526020017f5361666545524332303a206c6f772d6c6576656c2063616c6c206661696c6564815250856001600160a01b03166103b09092919063ffffffff16565b80519091501561029a5780806020019051602081101561037357600080fd5b505161029a5760405162461bcd60e51b815260040180806020018281038252602a8152602001806105f5602a913960400191505060405180910390fd5b60606103bf84846000856103c9565b90505b9392505050565b60608247101561040a5760405162461bcd60e51b81526004018080602001828103825260268152602001806105cf6026913960400191505060405180910390fd5b61041385610524565b610464576040805162461bcd60e51b815260206004820152601d60248201527f416464726573733a2063616c6c20746f206e6f6e2d636f6e7472616374000000604482015290519081900360640190fd5b600080866001600160a01b031685876040518082805190602001908083835b602083106104a25780518252601f199092019160209182019101610483565b6001836020036101000a03801982511681845116808217855250505050505090500191505060006040518083038185875af1925050503d8060008114610504576040519150601f19603f3d011682016040523d82523d6000602084013e610509565b606091505b509150915061051982828661052a565b979650505050505050565b3b151590565b606083156105395750816103c2565b8251156105495782518084602001fd5b8160405162461bcd60e51b81526004018080602001828103825283818151815260200191508051906020019080838360005b8381101561059357818101518382015260200161057b565b50505050905090810190601f1680156105c05780820380516001836020036101000a031916815260200191505b509250505060405180910390fdfe416464726573733a20696e73756666696369656e742062616c616e636520666f722063616c6c5361666545524332303a204552433230206f7065726174696f6e20646964206e6f742073756363656564a2646970667358221220a35ea477a47c08695c54268a178085a3b8ad4681487f5657b83739a12b73363e64736f6c63430007060033",
  "devdoc": {
    "kind": "dev",
    "methods": {},
    "version": 1
  },
  "userdoc": {
    "kind": "user",
    "methods": {},
    "version": 1
  },
  "storageLayout": {
    "storage": [
      {
        "astId": 3105,
        "contract": "contracts/farm/CrycleFarm.sol:CrycleFarm",
        "label": "crycle",
        "offset": 0,
        "slot": "0",
        "type": "t_contract(ICrycle)8241"
      },
      {
        "astId": 3121,
        "contract": "contracts/farm/CrycleFarm.sol:CrycleFarm",
        "label": "reward",
        "offset": 0,
        "slot": "1",
        "type": "t_mapping(t_address,t_mapping(t_address,t_uint256))"
      }
    ],
    "types": {
      "t_address": {
        "encoding": "inplace",
        "label": "address",
        "numberOfBytes": "20"
      },
      "t_contract(ICrycle)8241": {
        "encoding": "inplace",
        "label": "contract ICrycle",
        "numberOfBytes": "20"
      },
      "t_mapping(t_address,t_mapping(t_address,t_uint256))": {
        "encoding": "mapping",
        "key": "t_address",
        "label": "mapping(address => mapping(address => uint256))",
        "numberOfBytes": "32",
        "value": "t_mapping(t_address,t_uint256)"
      },
      "t_mapping(t_address,t_uint256)": {
        "encoding": "mapping",
        "key": "t_address",
        "label": "mapping(address => uint256)",
        "numberOfBytes": "32",
        "value": "t_uint256"
      },
      "t_uint256": {
        "encoding": "inplace",
        "label": "uint256",
        "numberOfBytes": "32"
      }
    }
  }
}