{
  "address": "0x163CEDAa9ac7ebB5f10F56AA3D314b45eC2A66dE",
  "abi": [
    {
      "inputs": [],
      "stateMutability": "nonpayable",
      "type": "constructor"
    },
    {
      "anonymous": false,
      "inputs": [
        {
          "indexed": true,
          "internalType": "address",
          "name": "previousOwner",
          "type": "address"
        },
        {
          "indexed": true,
          "internalType": "address",
          "name": "newOwner",
          "type": "address"
        }
      ],
      "name": "OwnershipTransferred",
      "type": "event"
    },
    {
      "anonymous": false,
      "inputs": [
        {
          "indexed": true,
          "internalType": "address",
          "name": "token0",
          "type": "address"
        },
        {
          "indexed": true,
          "internalType": "address",
          "name": "token1",
          "type": "address"
        },
        {
          "indexed": false,
          "internalType": "address",
          "name": "pair",
          "type": "address"
        },
        {
          "indexed": false,
          "internalType": "uint256",
          "name": "",
          "type": "uint256"
        }
      ],
      "name": "PairCreated",
      "type": "event"
    },
    {
      "anonymous": false,
      "inputs": [
        {
          "indexed": false,
          "internalType": "address",
          "name": "token",
          "type": "address"
        },
        {
          "indexed": false,
          "internalType": "string",
          "name": "name",
          "type": "string"
        },
        {
          "indexed": false,
          "internalType": "string",
          "name": "symbol",
          "type": "string"
        },
        {
          "indexed": false,
          "internalType": "uint256",
          "name": "decimals",
          "type": "uint256"
        }
      ],
      "name": "TokenInfo",
      "type": "event"
    },
    {
      "inputs": [],
      "name": "INIT_CODE_PAIR_HASH",
      "outputs": [
        {
          "internalType": "bytes32",
          "name": "",
          "type": "bytes32"
        }
      ],
      "stateMutability": "view",
      "type": "function"
    },
    {
      "inputs": [
        {
          "internalType": "address",
          "name": "token0",
          "type": "address"
        },
        {
          "internalType": "address",
          "name": "token1",
          "type": "address"
        },
        {
          "internalType": "address",
          "name": "from",
          "type": "address"
        },
        {
          "internalType": "address",
          "name": "to",
          "type": "address"
        },
        {
          "internalType": "uint256",
          "name": "amount",
          "type": "uint256"
        }
      ],
      "name": "_beforeTokenTransfer",
      "outputs": [],
      "stateMutability": "nonpayable",
      "type": "function"
    },
    {
      "inputs": [],
      "name": "allPairsLength",
      "outputs": [
        {
          "internalType": "uint256",
          "name": "",
          "type": "uint256"
        }
      ],
      "stateMutability": "view",
      "type": "function"
    },
    {
      "inputs": [
        {
          "internalType": "address",
          "name": "tokenA",
          "type": "address"
        },
        {
          "internalType": "address",
          "name": "tokenB",
          "type": "address"
        }
      ],
      "name": "createPair",
      "outputs": [
        {
          "internalType": "address",
          "name": "pair",
          "type": "address"
        }
      ],
      "stateMutability": "nonpayable",
      "type": "function"
    },
    {
      "inputs": [
        {
          "internalType": "address",
          "name": "pair",
          "type": "address"
        },
        {
          "internalType": "uint256",
          "name": "id",
          "type": "uint256"
        }
      ],
      "name": "createSnapshot",
      "outputs": [],
      "stateMutability": "nonpayable",
      "type": "function"
    },
    {
      "inputs": [],
      "name": "currentSnapshotId",
      "outputs": [
        {
          "internalType": "uint256",
          "name": "",
          "type": "uint256"
        }
      ],
      "stateMutability": "view",
      "type": "function"
    },
    {
      "inputs": [],
      "name": "defaultTransferFee",
      "outputs": [
        {
          "internalType": "uint256",
          "name": "",
          "type": "uint256"
        }
      ],
      "stateMutability": "view",
      "type": "function"
    },
    {
      "inputs": [
        {
          "internalType": "address",
          "name": "token0",
          "type": "address"
        },
        {
          "internalType": "address",
          "name": "token1",
          "type": "address"
        }
      ],
      "name": "expectPairFor",
      "outputs": [
        {
          "internalType": "address",
          "name": "",
          "type": "address"
        }
      ],
      "stateMutability": "view",
      "type": "function"
    },
    {
      "inputs": [],
      "name": "feeTo",
      "outputs": [
        {
          "internalType": "address",
          "name": "",
          "type": "address"
        }
      ],
      "stateMutability": "view",
      "type": "function"
    },
    {
      "inputs": [
        {
          "internalType": "address",
          "name": "",
          "type": "address"
        },
        {
          "internalType": "address",
          "name": "",
          "type": "address"
        }
      ],
      "name": "getPair",
      "outputs": [
        {
          "internalType": "address",
          "name": "",
          "type": "address"
        }
      ],
      "stateMutability": "view",
      "type": "function"
    },
    {
      "inputs": [
        {
          "internalType": "contract IKeplerPair",
          "name": "pair",
          "type": "address"
        },
        {
          "internalType": "address",
          "name": "user",
          "type": "address"
        }
      ],
      "name": "getSnapshotBalance",
      "outputs": [
        {
          "internalType": "uint256",
          "name": "",
          "type": "uint256"
        }
      ],
      "stateMutability": "view",
      "type": "function"
    },
    {
      "inputs": [
        {
          "internalType": "contract IKeplerPair",
          "name": "pair",
          "type": "address"
        }
      ],
      "name": "getSnapshotPrice",
      "outputs": [
        {
          "internalType": "uint256",
          "name": "price0",
          "type": "uint256"
        },
        {
          "internalType": "uint256",
          "name": "price1",
          "type": "uint256"
        }
      ],
      "stateMutability": "view",
      "type": "function"
    },
    {
      "inputs": [
        {
          "internalType": "address[]",
          "name": "tokens",
          "type": "address[]"
        }
      ],
      "name": "getTransferFee",
      "outputs": [
        {
          "internalType": "uint256[]",
          "name": "",
          "type": "uint256[]"
        }
      ],
      "stateMutability": "view",
      "type": "function"
    },
    {
      "inputs": [
        {
          "internalType": "address",
          "name": "pair",
          "type": "address"
        },
        {
          "internalType": "address",
          "name": "user",
          "type": "address"
        }
      ],
      "name": "getUserSnapshot",
      "outputs": [
        {
          "internalType": "uint256",
          "name": "",
          "type": "uint256"
        },
        {
          "internalType": "uint256",
          "name": "",
          "type": "uint256"
        }
      ],
      "stateMutability": "view",
      "type": "function"
    },
    {
      "inputs": [
        {
          "internalType": "address",
          "name": "token0",
          "type": "address"
        },
        {
          "internalType": "address",
          "name": "token1",
          "type": "address"
        }
      ],
      "name": "isWhiteList",
      "outputs": [
        {
          "internalType": "bool",
          "name": "",
          "type": "bool"
        }
      ],
      "stateMutability": "view",
      "type": "function"
    },
    {
      "inputs": [],
      "name": "owner",
      "outputs": [
        {
          "internalType": "address",
          "name": "",
          "type": "address"
        }
      ],
      "stateMutability": "view",
      "type": "function"
    },
    {
      "inputs": [
        {
          "internalType": "address",
          "name": "",
          "type": "address"
        }
      ],
      "name": "relateTransferFee",
      "outputs": [
        {
          "internalType": "uint256",
          "name": "",
          "type": "uint256"
        }
      ],
      "stateMutability": "view",
      "type": "function"
    },
    {
      "inputs": [],
      "name": "renounceOwnership",
      "outputs": [],
      "stateMutability": "nonpayable",
      "type": "function"
    },
    {
      "inputs": [
        {
          "internalType": "uint256",
          "name": "_defaultTransferFee",
          "type": "uint256"
        }
      ],
      "name": "setDefaultTransferFee",
      "outputs": [],
      "stateMutability": "nonpayable",
      "type": "function"
    },
    {
      "inputs": [
        {
          "internalType": "address",
          "name": "_feeTo",
          "type": "address"
        }
      ],
      "name": "setFeeTo",
      "outputs": [],
      "stateMutability": "nonpayable",
      "type": "function"
    },
    {
      "inputs": [
        {
          "internalType": "address",
          "name": "token",
          "type": "address"
        },
        {
          "internalType": "uint256",
          "name": "fee",
          "type": "uint256"
        }
      ],
      "name": "setRelateTransferFee",
      "outputs": [],
      "stateMutability": "nonpayable",
      "type": "function"
    },
    {
      "inputs": [
        {
          "internalType": "address",
          "name": "_snapshotCreateCaller",
          "type": "address"
        }
      ],
      "name": "setSnapshotCreateCaller",
      "outputs": [],
      "stateMutability": "nonpayable",
      "type": "function"
    },
    {
      "inputs": [
        {
          "internalType": "address",
          "name": "token",
          "type": "address"
        },
        {
          "internalType": "uint256",
          "name": "fee",
          "type": "uint256"
        }
      ],
      "name": "setTokenTransferFee",
      "outputs": [],
      "stateMutability": "nonpayable",
      "type": "function"
    },
    {
      "inputs": [],
      "name": "snapshotCreateCaller",
      "outputs": [
        {
          "internalType": "address",
          "name": "",
          "type": "address"
        }
      ],
      "stateMutability": "view",
      "type": "function"
    },
    {
      "inputs": [
        {
          "internalType": "address",
          "name": "",
          "type": "address"
        }
      ],
      "name": "tokenTransferFee",
      "outputs": [
        {
          "internalType": "uint256",
          "name": "",
          "type": "uint256"
        }
      ],
      "stateMutability": "view",
      "type": "function"
    },
    {
      "inputs": [
        {
          "internalType": "address",
          "name": "newOwner",
          "type": "address"
        }
      ],
      "name": "transferOwnership",
      "outputs": [],
      "stateMutability": "nonpayable",
      "type": "function"
    },
    {
      "inputs": [
        {
          "internalType": "address",
          "name": "",
          "type": "address"
        }
      ],
      "name": "whiteList",
      "outputs": [
        {
          "internalType": "bool",
          "name": "",
          "type": "bool"
        }
      ],
      "stateMutability": "view",
      "type": "function"
    },
    {
      "inputs": [],
      "name": "whiteListAvaliable",
      "outputs": [
        {
          "internalType": "bool",
          "name": "",
          "type": "bool"
        }
      ],
      "stateMutability": "view",
      "type": "function"
    }
  ],
  "transactionHash": "0xc4b9d5aa56ae35fb68ec86e21bb2bd53cbfa6aeec75347bf9528a3e5bf6d03c0",
  "args": [],
  "solcInputHash": "251284aae9794742e975b7948d7b4689",
  "bytecode": "0x608060405234801561001057600080fd5b50600061001b61006a565b600080546001600160a01b0319166001600160a01b0383169081178255604051929350917f8be0079c531659141344cd1fd0a4f28419497f9722a3daafe3b4186f6b6457e0908290a35061006e565b3390565b614cea806200007e6000396000f3fe60806040523480156200001157600080fd5b5060043610620001f05760003560e01c80638da5cb5b1162000111578063c9c6539611620000a5578063f2fde38b116200007b578063f2fde38b1462000634578063f3711a08146200065d578063f46901ed1462000686578063fa80ccd714620006af57620001f0565b8063c9c6539614620004d9578063dcb6b484146200050a578063e6a43905146200060357620001f0565b8063970875ce11620000e7578063970875ce146200042c578063a24090b11462000436578063a7a78885146200047f578063ac3a114714620004b057620001f0565b80638da5cb5b14620003ef5780638e7a8d1514620003f95780638f2a1e51146200040357620001f0565b80635d9e3a6b1162000189578063715018a6116200015f578063715018a6146200036757806371a2b76814620003715780638861fea414620003915780638c0f73d814620003c057620001f0565b80635d9e3a6b146200030357806364043fed146200030d57806368942ce4146200033657620001f0565b8063372c12b111620001cb578063372c12b1146200026f5780633ed3bd5214620002ac578063574f2ba314620002dd5780635855a25a14620002f957620001f0565b8063017e7e5814620001f55780631dcb47d4146200021b5780632d2d55eb1462000225575b600080fd5b620001ff620006e0565b604080516001600160a01b039092168252519081900360200190f35b620001ff620006ef565b62000256600480360360408110156200023d57600080fd5b506001600160a01b0381358116916020013516620006fe565b6040805192835260208301919091528051918290030190f35b62000298600480360360208110156200028757600080fd5b50356001600160a01b03166200076c565b604080519115158252519081900360200190f35b620002db60048036036040811015620002c457600080fd5b506001600160a01b03813516906020013562000781565b005b620002e762000805565b60408051918252519081900360200190f35b620002e76200080b565b62000298620008a2565b620002e7600480360360208110156200032557600080fd5b50356001600160a01b0316620008ab565b620001ff600480360360408110156200034e57600080fd5b506001600160a01b0381358116916020013516620008bd565b620002db620008d5565b620002db600480360360208110156200038957600080fd5b503562000987565b620002db60048036036040811015620003a957600080fd5b506001600160a01b038135169060200135620009f4565b620002db60048036036040811015620003d857600080fd5b506001600160a01b03813516906020013562000a78565b620001ff62000daa565b620002e762000db9565b620002db600480360360208110156200041b57600080fd5b50356001600160a01b031662000dbf565b620002e762000e49565b620002db600480360360a08110156200044e57600080fd5b506001600160a01b038135811691602081013582169160408201358116916060810135909116906080013562000e4f565b62000298600480360360408110156200049757600080fd5b506001600160a01b0381358116916020013516620010d1565b620002e760048036036020811015620004c857600080fd5b50356001600160a01b0316620010f6565b620001ff60048036036040811015620004f157600080fd5b506001600160a01b038135811691602001351662001108565b620005b1600480360360208110156200052257600080fd5b810190602081018135600160201b8111156200053d57600080fd5b8201836020820111156200055057600080fd5b803590602001918460208302840111600160201b831117156200057257600080fd5b91908080602002602001604051908101604052809392919081815260200183836020028082843760009201919091525092955062001c29945050505050565b60408051602080825283518183015283519192839290830191858101910280838360005b83811015620005ef578181015183820152602001620005d5565b505050509050019250505060405180910390f35b620001ff600480360360408110156200061b57600080fd5b506001600160a01b038135811691602001351662001da7565b620002db600480360360208110156200064c57600080fd5b50356001600160a01b031662001dcd565b62000256600480360360208110156200067557600080fd5b50356001600160a01b031662001ed7565b620002db600480360360208110156200069e57600080fd5b50356001600160a01b03166200215f565b620002e760048036036040811015620006c757600080fd5b506001600160a01b0381358116916020013516620021e9565b6001546001600160a01b031681565b600d546001600160a01b031681565b60008060006200070f8585620021e9565b90506000806200071f8762001ed7565b909250905062000744670de0b6b3a76400006200073d858562002314565b9062002372565b6200075d670de0b6b3a76400006200073d868562002314565b945094505050505b9250929050565b60056020526000908152604090205460ff1681565b6200078b620023db565b6001600160a01b03166200079e62000daa565b6001600160a01b031614620007e9576040805162461bcd60e51b8152602060048201819052602482015260008051602062004c95833981519152604482015290519081900360640190fd5b6001600160a01b03909116600090815260076020526040902055565b60035481565b6040516200081c602082016200261d565b6020820181038252601f19601f820116604052506040516020018082805190602001908083835b60208310620008645780518252601f19909201916020918201910162000843565b6001836020036101000a0380198251168184511680821785525050505050509050019150506040516020818303038152906040528051906020012081565b60045460ff1681565b60076020526000908152604090205481565b6000620008cc308484620023df565b90505b92915050565b620008df620023db565b6001600160a01b0316620008f262000daa565b6001600160a01b0316146200093d576040805162461bcd60e51b8152602060048201819052602482015260008051602062004c95833981519152604482015290519081900360640190fd5b600080546040516001600160a01b03909116907f8be0079c531659141344cd1fd0a4f28419497f9722a3daafe3b4186f6b6457e0908390a3600080546001600160a01b0319169055565b62000991620023db565b6001600160a01b0316620009a462000daa565b6001600160a01b031614620009ef576040805162461bcd60e51b8152602060048201819052602482015260008051602062004c95833981519152604482015290519081900360640190fd5b600655565b620009fe620023db565b6001600160a01b031662000a1162000daa565b6001600160a01b03161462000a5c576040805162461bcd60e51b8152602060048201819052602482015260008051602062004c95833981519152604482015290519081900360640190fd5b6001600160a01b03909116600090815260086020526040902055565b600d546001600160a01b0316331462000ac35760405162461bcd60e51b815260040180806020018281038252602581526020018062004c4f6025913960400191505060405180910390fd5b806009819055506000826001600160a01b0316630dfe16816040518163ffffffff1660e01b815260040160206040518083038186803b15801562000b0657600080fd5b505afa15801562000b1b573d6000803e3d6000fd5b505050506040513d602081101562000b3257600080fd5b50516040805163d21220a760e01b815290519192506000916001600160a01b0386169163d21220a7916004808301926020929190829003018186803b15801562000b7b57600080fd5b505afa15801562000b90573d6000803e3d6000fd5b505050506040513d602081101562000ba757600080fd5b505160408051630240bc6b60e21b8152905191925060009182916001600160a01b03881691630902f1ac91600480820192606092909190829003018186803b15801562000bf357600080fd5b505afa15801562000c08573d6000803e3d6000fd5b505050506040513d606081101562000c1f57600080fd5b50805160209091015190925090506001600160701b0382161562000d025762000cdb826001600160701b03166200073d670de0b6b3a7640000876001600160a01b03166370a082318b6040518263ffffffff1660e01b815260040180826001600160a01b0316815260200191505060206040518083038186803b15801562000ca657600080fd5b505afa15801562000cbb573d6000803e3d6000fd5b505050506040513d602081101562000cd257600080fd5b50519062002314565b6001600160a01b038088166000908152600c60209081526040808320938916835292905220555b6001600160701b0381161562000da25762000d7b816001600160701b03166200073d670de0b6b3a7640000866001600160a01b03166370a082318b6040518263ffffffff1660e01b815260040180826001600160a01b0316815260200191505060206040518083038186803b15801562000ca657600080fd5b6001600160a01b038088166000908152600c60209081526040808320938816835292905220555b505050505050565b6000546001600160a01b031690565b60065481565b62000dc9620023db565b6001600160a01b031662000ddc62000daa565b6001600160a01b03161462000e27576040805162461bcd60e51b8152602060048201819052602482015260008051602062004c95833981519152604482015290519081900360640190fd5b600d80546001600160a01b0319166001600160a01b0392909216919091179055565b60095481565b6001600160a01b0380861660009081526002602090815260408083208885168452909152902054168062000e845750620010ca565b336001600160a01b0382161462000eda576040805162461bcd60e51b81526020600482015260156024820152746f6e6c7920706169722063616e20646f207468697360581b604482015290519081900360640190fd5b60095462000ee95750620010ca565b6009546001600160a01b038083166000908152600a6020908152604080832093891683529290522054101562000fda57806001600160a01b03166370a08231856040518263ffffffff1660e01b815260040180826001600160a01b0316815260200191505060206040518083038186803b15801562000f6757600080fd5b505afa15801562000f7c573d6000803e3d6000fd5b505050506040513d602081101562000f9357600080fd5b50516001600160a01b038083166000818152600b60209081526040808320948a1680845294825280832095909555600954928252600a815284822093825292909252919020555b6009546001600160a01b038083166000908152600a6020908152604080832093881683529290522054101562000da257806001600160a01b03166370a08231846040518263ffffffff1660e01b815260040180826001600160a01b0316815260200191505060206040518083038186803b1580156200105857600080fd5b505afa1580156200106d573d6000803e3d6000fd5b505050506040513d60208110156200108457600080fd5b50516001600160a01b039182166000818152600b6020908152604080832095881680845295825280832094909455600954928252600a8152838220948252939093529120555b5050505050565b600080620010e1308585620023df565b9050620010ee8162002506565b949350505050565b60086020526000908152604090205481565b6000816001600160a01b0316836001600160a01b0316141562001172576040805162461bcd60e51b815260206004820152601b60248201527f4b65706c65723a204944454e544943414c5f4144445245535345530000000000604482015290519081900360640190fd5b600080836001600160a01b0316856001600160a01b031610620011975783856200119a565b84845b90925090506001600160a01b038216620011f2576040805162461bcd60e51b81526020600482015260146024820152734b65706c65723a205a45524f5f4144445245535360601b604482015290519081900360640190fd5b6001600160a01b0382811660009081526002602090815260408083208585168452909152902054161562001263576040805162461bcd60e51b81526020600482015260136024820152724b65706c65723a20504149525f45584953545360681b604482015290519081900360640190fd5b60006040518060200162001277906200261d565b6020820181038252601f19601f8201166040525090506000838360405160200180836001600160a01b031660601b8152601401826001600160a01b031660601b815260140192505050604051602081830303815290604052805190602001209050808251602084016000f59450620012ef8562002506565b62001339576040805162461bcd60e51b815260206004820152601560248201527412d95c1b195c8e881393d50815d2125511531254d5605a1b604482015290519081900360640190fd5b846001600160a01b031663485cc95585856040518363ffffffff1660e01b815260040180836001600160a01b03168152602001826001600160a01b0316815260200192505050600060405180830381600087803b1580156200139a57600080fd5b505af1158015620013af573d6000803e3d6000fd5b505050506001600160a01b0384811660008181526002602081815260408084208987168552825280842080546001600160a01b0319908116978d169788179091559282528084208585529091528083208054909216909417905560038054600101905582516306fdde0360e01b815292517fe0a3f77e54957bee7db9ab795a3933a51630609ec6b052b08547cb523b987760938893926306fdde0392600480840193829003018186803b1580156200146657600080fd5b505afa1580156200147b573d6000803e3d6000fd5b505050506040513d6000823e601f3d908101601f191682016040526020811015620014a557600080fd5b8101908080516040519392919084600160201b821115620014c557600080fd5b908301906020820185811115620014db57600080fd5b8251600160201b811182820188101715620014f557600080fd5b82525081516020918201929091019080838360005b83811015620015245781810151838201526020016200150a565b50505050905090810190601f168015620015525780820380516001836020036101000a031916815260200191505b50604052505050866001600160a01b03166395d89b416040518163ffffffff1660e01b815260040160006040518083038186803b1580156200159357600080fd5b505afa158015620015a8573d6000803e3d6000fd5b505050506040513d6000823e601f3d908101601f191682016040526020811015620015d257600080fd5b8101908080516040519392919084600160201b821115620015f257600080fd5b9083019060208201858111156200160857600080fd5b8251600160201b8111828201881017156200162257600080fd5b82525081516020918201929091019080838360005b838110156200165157818101518382015260200162001637565b50505050905090810190601f1680156200167f5780820380516001836020036101000a031916815260200191505b50604052505050876001600160a01b031663313ce5676040518163ffffffff1660e01b815260040160206040518083038186803b158015620016c057600080fd5b505afa158015620016d5573d6000803e3d6000fd5b505050506040513d6020811015620016ec57600080fd5b5051604080516001600160a01b038616815260ff83166060820152608060208281018281528751928401929092528651929391929184019160a085019188019080838360005b838110156200174c57818101518382015260200162001732565b50505050905090810190601f1680156200177a5780820380516001836020036101000a031916815260200191505b50838103825285518152855160209182019187019080838360005b83811015620017af57818101518382015260200162001795565b50505050905090810190601f168015620017dd5780820380516001836020036101000a031916815260200191505b50965050505050505060405180910390a17fe0a3f77e54957bee7db9ab795a3933a51630609ec6b052b08547cb523b98776083846001600160a01b03166306fdde036040518163ffffffff1660e01b815260040160006040518083038186803b1580156200184a57600080fd5b505afa1580156200185f573d6000803e3d6000fd5b505050506040513d6000823e601f3d908101601f1916820160405260208110156200188957600080fd5b8101908080516040519392919084600160201b821115620018a957600080fd5b908301906020820185811115620018bf57600080fd5b8251600160201b811182820188101715620018d957600080fd5b82525081516020918201929091019080838360005b8381101562001908578181015183820152602001620018ee565b50505050905090810190601f168015620019365780820380516001836020036101000a031916815260200191505b50604052505050856001600160a01b03166395d89b416040518163ffffffff1660e01b815260040160006040518083038186803b1580156200197757600080fd5b505afa1580156200198c573d6000803e3d6000fd5b505050506040513d6000823e601f3d908101601f191682016040526020811015620019b657600080fd5b8101908080516040519392919084600160201b821115620019d657600080fd5b908301906020820185811115620019ec57600080fd5b8251600160201b81118282018810171562001a0657600080fd5b82525081516020918201929091019080838360005b8381101562001a3557818101518382015260200162001a1b565b50505050905090810190601f16801562001a635780820380516001836020036101000a031916815260200191505b50604052505050866001600160a01b031663313ce5676040518163ffffffff1660e01b815260040160206040518083038186803b15801562001aa457600080fd5b505afa15801562001ab9573d6000803e3d6000fd5b505050506040513d602081101562001ad057600080fd5b5051604080516001600160a01b038616815260ff83166060820152608060208281018281528751928401929092528651929391929184019160a085019188019080838360005b8381101562001b3057818101518382015260200162001b16565b50505050905090810190601f16801562001b5e5780820380516001836020036101000a031916815260200191505b50838103825285518152855160209182019187019080838360005b8381101562001b9357818101518382015260200162001b79565b50505050905090810190601f16801562001bc15780820380516001836020036101000a031916815260200191505b50965050505050505060405180910390a1600354604080516001600160a01b03888116825260208201939093528151838716938816927f0d3648bd0f6ba80134a33ba9275ac585d9d315f0ad8355cddefde31afa28d0e9928290030190a35050505092915050565b60606000825167ffffffffffffffff8111801562001c4657600080fd5b5060405190808252806020026020018201604052801562001c71578160200160208202803683370190505b50905060005b600184510381101562001d9e576007600085838151811062001c9557fe5b60200260200101516001600160a01b03166001600160a01b031681526020019081526020016000205460001462001d1f576007600085838151811062001cd757fe5b60200260200101516001600160a01b03166001600160a01b031681526020019081526020016000205482828151811062001d0d57fe5b60200260200101818152505062001d95565b6008600085836001018151811062001d3357fe5b60200260200101516001600160a01b03166001600160a01b031681526020019081526020016000205460001462001d78576008600085836001018151811062001cd757fe5b60065482828151811062001d8857fe5b6020026020010181815250505b60010162001c77565b5090505b919050565b60026020908152600092835260408084209091529082529020546001600160a01b031681565b62001dd7620023db565b6001600160a01b031662001dea62000daa565b6001600160a01b03161462001e35576040805162461bcd60e51b8152602060048201819052602482015260008051602062004c95833981519152604482015290519081900360640190fd5b6001600160a01b03811662001e7c5760405162461bcd60e51b815260040180806020018281038252602681526020018062004c066026913960400191505060405180910390fd5b600080546040516001600160a01b03808516939216917f8be0079c531659141344cd1fd0a4f28419497f9722a3daafe3b4186f6b6457e091a3600080546001600160a01b0319166001600160a01b0392909216919091179055565b6000806000836001600160a01b0316630dfe16816040518163ffffffff1660e01b815260040160206040518083038186803b15801562001f1657600080fd5b505afa15801562001f2b573d6000803e3d6000fd5b505050506040513d602081101562001f4257600080fd5b50516040805163d21220a760e01b815290519192506000916001600160a01b0387169163d21220a7916004808301926020929190829003018186803b15801562001f8b57600080fd5b505afa15801562001fa0573d6000803e3d6000fd5b505050506040513d602081101562001fb757600080fd5b50516009549091506200212257600080866001600160a01b0316630902f1ac6040518163ffffffff1660e01b815260040160606040518083038186803b1580156200200157600080fd5b505afa15801562002016573d6000803e3d6000fd5b505050506040513d60608110156200202d57600080fd5b5080516020909101516001600160701b0391821693501690508115620020b057620020ad826200073d670de0b6b3a7640000876001600160a01b03166370a082318c6040518263ffffffff1660e01b815260040180826001600160a01b0316815260200191505060206040518083038186803b15801562000ca657600080fd5b95505b80156200211a5762002117816200073d670de0b6b3a7640000866001600160a01b03166370a082318c6040518263ffffffff1660e01b815260040180826001600160a01b0316815260200191505060206040518083038186803b15801562000ca657600080fd5b94505b505062002158565b6001600160a01b038581166000908152600c60209081526040808320868516845290915280822054928416825290205490945092505b5050915091565b62002169620023db565b6001600160a01b03166200217c62000daa565b6001600160a01b031614620021c7576040805162461bcd60e51b8152602060048201819052602482015260008051602062004c95833981519152604482015290519081900360640190fd5b600180546001600160a01b0319166001600160a01b0392909216919091179055565b6000600954600014806200222457506009546001600160a01b038085166000908152600a602090815260408083209387168352929052205414155b15620022ae57826001600160a01b03166370a08231836040518263ffffffff1660e01b815260040180826001600160a01b0316815260200191505060206040518083038186803b1580156200227857600080fd5b505afa1580156200228d573d6000803e3d6000fd5b505050506040513d6020811015620022a457600080fd5b50519050620008cf565b6009546001600160a01b038085166000908152600a602090815260408083209387168352929052205414156200230b57506001600160a01b038083166000908152600b6020908152604080832093851683529290522054620008cf565b506000620008cf565b6000826200232557506000620008cf565b828202828482816200233357fe5b0414620008cc5760405162461bcd60e51b815260040180806020018281038252602181526020018062004c746021913960400191505060405180910390fd5b6000808211620023c9576040805162461bcd60e51b815260206004820152601a60248201527f536166654d6174683a206469766973696f6e206279207a65726f000000000000604482015290519081900360640190fd5b818381620023d357fe5b049392505050565b3390565b6000806000620023f0858562002541565b9150915085828260405160200180836001600160a01b031660601b8152601401826001600160a01b031660601b81526014019250505060405160208183030381529060405280519060200120876001600160a01b0316635855a25a6040518163ffffffff1660e01b815260040160206040518083038186803b1580156200247657600080fd5b505afa1580156200248b573d6000803e3d6000fd5b505050506040513d6020811015620024a257600080fd5b5051604080516001600160f81b031960208083019190915260609590951b6bffffffffffffffffffffffff19166021820152603581019390935260558084019290925280518084039092018252607590920190915280519101209695505050505050565b60045460009060ff16156200253857506001600160a01b03811660009081526005602052604090205460ff1662001da2565b50600162001da2565b600080826001600160a01b0316846001600160a01b03161415620025975760405162461bcd60e51b815260040180806020018281038252602381526020018062004c2c6023913960400191505060405180910390fd5b826001600160a01b0316846001600160a01b031610620025b9578284620025bc565b83835b90925090506001600160a01b03821662000765576040805162461bcd60e51b815260206004820152601c60248201527f50616e63616b654c6962726172793a205a45524f5f4144445245535300000000604482015290519081900360640190fd5b6125da806200262c8339019056fe60806040526001600c553480156200001657600080fd5b50604080518082018252600b81526a25b2b83632b9102830b4b960a91b60208083019182528351808501909452600a84526925a2a82622a92830b4b960b11b9084015281519192916200006c91600391620000ab565b50805162000082906004906020840190620000ab565b505060058054601260ff1990911617610100600160a81b03191661010033021790555062000157565b828054600181600116156101000203166002900490600052602060002090601f016020900481019282620000e357600085556200012e565b82601f10620000fe57805160ff19168380011785556200012e565b828001600101855582156200012e579182015b828111156200012e57825182559160200191906001019062000111565b506200013c92915062000140565b5090565b5b808211156200013c576000815560010162000141565b61247380620001676000396000f3fe608060405234801561001057600080fd5b50600436106101735760003560e01c80636d9a640a116100de578063a9059cbb11610097578063c45a015511610071578063c45a0155146104be578063d21220a7146104c6578063dd62ed3e146104ce578063fff6cae9146104fc57610173565b8063a9059cbb14610464578063ba9a7a5614610490578063bc25cf771461049857610173565b80636d9a640a1461039157806370a08231146103c35780637464fc3d146103e957806389afcb44146103f157806395d89b4114610430578063a457c2d71461043857610173565b8063313ce56711610130578063313ce567146102e157806339509351146102ff578063485cc9551461032b5780635909c0d51461035b5780635a3d5493146103635780636a6278421461036b57610173565b806306fdde03146101785780630902f1ac146101f5578063095ea7b31461022d5780630dfe16811461026d57806318160ddd1461029157806323b872dd146102ab575b600080fd5b610180610504565b6040805160208082528351818301528351919283929083019185019080838360005b838110156101ba5781810151838201526020016101a2565b50505050905090810190601f1680156101e75780820380516001836020036101000a031916815260200191505b509250505060405180910390f35b6101fd61059a565b604080516001600160701b03948516815292909316602083015263ffffffff168183015290519081900360600190f35b6102596004803603604081101561024357600080fd5b506001600160a01b0381351690602001356105c4565b604080519115158252519081900360200190f35b6102756105e2565b604080516001600160a01b039092168252519081900360200190f35b6102996105f1565b60408051918252519081900360200190f35b610259600480360360608110156102c157600080fd5b506001600160a01b038135811691602081013590911690604001356105f7565b6102e961067e565b6040805160ff9092168252519081900360200190f35b6102596004803603604081101561031557600080fd5b506001600160a01b038135169060200135610687565b6103596004803603604081101561034157600080fd5b506001600160a01b03813581169160200135166106d5565b005b610299610759565b61029961075f565b6102996004803603602081101561038157600080fd5b50356001600160a01b0316610765565b610359600480360360608110156103a757600080fd5b50803590602081013590604001356001600160a01b0316610a21565b610299600480360360208110156103d957600080fd5b50356001600160a01b031661101a565b610299611039565b6104176004803603602081101561040757600080fd5b50356001600160a01b031661103f565b6040805192835260208301919091528051918290030190f35b610180611406565b6102596004803603604081101561044e57600080fd5b506001600160a01b038135169060200135611467565b6102596004803603604081101561047a57600080fd5b506001600160a01b0381351690602001356114cf565b6102996114e3565b610359600480360360208110156104ae57600080fd5b50356001600160a01b03166114e9565b610275611656565b61027561166a565b610299600480360360408110156104e457600080fd5b506001600160a01b0381358116916020013516611679565b6103596116a4565b60038054604080516020601f60026000196101006001881615020190951694909404938401819004810282018101909252828152606093909290918301828280156105905780601f1061056557610100808354040283529160200191610590565b820191906000526020600020905b81548152906001019060200180831161057357829003601f168201915b5050505050905090565b6008546001600160701b0380821692600160701b830490911691600160e01b900463ffffffff1690565b60006105d86105d1611801565b8484611805565b5060015b92915050565b6006546001600160a01b031681565b60025490565b60006106048484846118f1565b61067484610610611801565b61066f8560405180606001604052806028815260200161231d602891396001600160a01b038a1660009081526001602052604081209061064e611801565b6001600160a01b031681526020810191909152604001600020549190611a4c565b611805565b5060019392505050565b60055460ff1690565b60006105d8610694611801565b8461066f85600160006106a5611801565b6001600160a01b03908116825260208083019390935260409182016000908120918c168152925290205490611ae3565b60055461010090046001600160a01b0316331461072b576040805162461bcd60e51b815260206004820152600f60248201526e2130b13c9d102327a92124a22222a760891b604482015290519081900360640190fd5b600680546001600160a01b039384166001600160a01b03199182161790915560078054929093169116179055565b60095481565b600a5481565b6000600c546001146107ad576040805162461bcd60e51b815260206004820152600c60248201526b1098589e4e881313d0d2d15160a21b604482015290519081900360640190fd5b6000600c819055806107bd61059a565b50600654604080516370a0823160e01b815230600482015290519395509193506000926001600160a01b03909116916370a08231916024808301926020929190829003018186803b15801561081157600080fd5b505afa158015610825573d6000803e3d6000fd5b505050506040513d602081101561083b57600080fd5b5051600754604080516370a0823160e01b815230600482015290519293506000926001600160a01b03909216916370a0823191602480820192602092909190829003018186803b15801561088e57600080fd5b505afa1580156108a2573d6000803e3d6000fd5b505050506040513d60208110156108b857600080fd5b5051905060006108d1836001600160701b038716611b44565b905060006108e8836001600160701b038716611b44565b905060006108f46105f1565b9050806109145761090d6109088484611ba1565b611bfa565b9750610957565b6109546001600160701b03881661092b8584611ba1565b8161093257fe5b046001600160701b0388166109478585611ba1565b8161094e57fe5b04611c4b565b97505b600088116109965760405162461bcd60e51b81526004018080602001828103825260238152602001806123f66023913960400191505060405180910390fd5b6109a08989611c61565b6109ac85858989611d51565b337f926683a213f5704409a772ad857ee2929a5b82b1f28900f733ebb3035ebba57c848488888d6109dd8882611ae3565b604080519687526020870195909552858501939093526060850191909152608084015260a0830152519081900360c00190a250506001600c55509395945050505050565b600c54600114610a67576040805162461bcd60e51b815260206004820152600c60248201526b1098589e4e881313d0d2d15160a21b604482015290519081900360640190fd5b6000600c5582151580610a7a5750600082115b610ab55760405162461bcd60e51b815260040180806020018281038252602281526020018061238b6022913960400191505060405180910390fd5b600080610ac061059a565b5091509150816001600160701b031685108015610ae55750806001600160701b031684105b610b36576040805162461bcd60e51b815260206004820152601e60248201527f4b65706c65723a20494e53554646494349454e545f4c49515549444954590000604482015290519081900360640190fd5b60065460075460009182916060916001600160a01b039081169181169088168214801590610b765750806001600160a01b0316886001600160a01b031614155b610bbc576040805162461bcd60e51b81526020600482015260126024820152714b65706c65723a20494e56414c49445f544f60701b604482015290519081900360640190fd5b8915610bcd57610bcd82898c611f0d565b8815610bde57610bde81898b611f0d565b604080516370a0823160e01b815230600482015290516001600160a01b038416916370a08231916024808301926020929190829003018186803b158015610c2457600080fd5b505afa158015610c38573d6000803e3d6000fd5b505050506040513d6020811015610c4e57600080fd5b5051604080516370a0823160e01b815230600482015290519196506001600160a01b038316916370a0823191602480820192602092909190829003018186803b158015610c9a57600080fd5b505afa158015610cae573d6000803e3d6000fd5b505050506040513d6020811015610cc457600080fd5b505160408051600280825260608201835292965060009290916020830190803683370190505090508281600081518110610cfa57fe5b60200260200101906001600160a01b031690816001600160a01b0316815250508181600181518110610d2857fe5b6001600160a01b0392831660209182029290920181019190915260055460405163372dad2160e21b8152600481018381528551602483015285516101009093049094169363dcb6b48493869391928392604490910191858101910280838360005b83811015610da1578181015183820152602001610d89565b505050509050019250505060006040518083038186803b158015610dc457600080fd5b505afa158015610dd8573d6000803e3d6000fd5b505050506040513d6000823e601f3d908101601f191682016040526020811015610e0157600080fd5b8101908080516040519392919084640100000000821115610e2157600080fd5b908301906020820185811115610e3657600080fd5b8251866020820283011164010000000082111715610e5357600080fd5b82525081516020918201928201910280838360005b83811015610e80578181015183820152602001610e68565b505050509050016040525050509350505050600088866001600160701b0316038411610ead576000610ebc565b88866001600160701b03160384035b9050600088866001600160701b0316038411610ed9576000610ee8565b88866001600160701b03160384035b90506000821180610ef95750600081115b610f4a576040805162461bcd60e51b815260206004820152601f60248201527f426162793a20494e53554646494349454e545f494e5055545f414d4f554e5400604482015290519081900360640190fd5b610f606001600160701b03888116908816611ba1565b610f6a8686611ba1565b1015610fa9576040805162461bcd60e51b81526020600482015260096024820152684b65706c65723a204b60b81b604482015290519081900360640190fd5b610fb585858989611d51565b60408051838152602081018390528082018c9052606081018b905290516001600160a01b038a169133917fd78ad95fa46c994b6551d0da85fc275fe613ce37657fb8d5e3d130840159d8229181900360800190a350506001600c555050505050505050565b6001600160a01b0381166000908152602081905260409020545b919050565b600b5481565b600080600c54600114611088576040805162461bcd60e51b815260206004820152600c60248201526b1098589e4e881313d0d2d15160a21b604482015290519081900360640190fd5b6000600c8190558061109861059a565b50600654600754604080516370a0823160e01b815230600482015290519496509294506001600160a01b039182169391169160009184916370a08231916024808301926020929190829003018186803b1580156110f457600080fd5b505afa158015611108573d6000803e3d6000fd5b505050506040513d602081101561111e57600080fd5b5051604080516370a0823160e01b815230600482015290519192506000916001600160a01b038516916370a08231916024808301926020929190829003018186803b15801561116c57600080fd5b505afa158015611180573d6000803e3d6000fd5b505050506040513d602081101561119657600080fd5b5051905060006111a53061101a565b905060006111b16105f1565b9050806111f9576040805162461bcd60e51b8152602060048201526011602482015270696e666c75656e63652062616c616e636560781b604482015290519081900360640190fd5b806112048386611ba1565b8161120b57fe5b049950806112198385611ba1565b8161122057fe5b04985060008a1180156112335750600089115b61126e5760405162461bcd60e51b81526004018080602001828103825260258152602001806123d16025913960400191505060405180910390fd5b61127830836120a6565b611283868c8c611f0d565b61128e858c8b611f0d565b604080516370a0823160e01b815230600482015290516001600160a01b038816916370a08231916024808301926020929190829003018186803b1580156112d457600080fd5b505afa1580156112e8573d6000803e3d6000fd5b505050506040513d60208110156112fe57600080fd5b5051604080516370a0823160e01b815230600482015290519195506001600160a01b038716916370a0823191602480820192602092909190829003018186803b15801561134a57600080fd5b505afa15801561135e573d6000803e3d6000fd5b505050506040513d602081101561137457600080fd5b5051925061138484848a8a611d51565b6001600160a01b038b16337f85a7018ef447dcb04cd2aad9ce23cc75bb874ca6727b93cbb296b20a87b2efae8c8c8888886113bf8982611b44565b604080519687526020870195909552858501939093526060850191909152608084015260a0830152519081900360c00190a350505050505050506001600c81905550915091565b60048054604080516020601f60026000196101006001881615020190951694909404938401819004810282018101909252828152606093909290918301828280156105905780601f1061056557610100808354040283529160200191610590565b60006105d8611474611801565b8461066f85604051806060016040528060258152602001612419602591396001600061149e611801565b6001600160a01b03908116825260208083019390935260409182016000908120918d16815292529020549190611a4c565b60006105d86114dc611801565b84846118f1565b6103e881565b600c5460011461152f576040805162461bcd60e51b815260206004820152600c60248201526b1098589e4e881313d0d2d15160a21b604482015290519081900360640190fd5b6000600c55600654600754600854604080516370a0823160e01b815230600482015290516001600160a01b0394851694909316926115d892859287926115d3926001600160701b03169185916370a0823191602480820192602092909190829003018186803b1580156115a157600080fd5b505afa1580156115b5573d6000803e3d6000fd5b505050506040513d60208110156115cb57600080fd5b505190611b44565b611f0d565b61164c81846115d36008600e9054906101000a90046001600160701b03166001600160701b0316856001600160a01b03166370a08231306040518263ffffffff1660e01b815260040180826001600160a01b0316815260200191505060206040518083038186803b1580156115a157600080fd5b50506001600c5550565b60055461010090046001600160a01b031681565b6007546001600160a01b031681565b6001600160a01b03918216600090815260016020908152604080832093909416825291909152205490565b600c546001146116ea576040805162461bcd60e51b815260206004820152600c60248201526b1098589e4e881313d0d2d15160a21b604482015290519081900360640190fd5b6000600c55600654604080516370a0823160e01b815230600482015290516117fa926001600160a01b0316916370a08231916024808301926020929190829003018186803b15801561173b57600080fd5b505afa15801561174f573d6000803e3d6000fd5b505050506040513d602081101561176557600080fd5b5051600754604080516370a0823160e01b815230600482015290516001600160a01b03909216916370a0823191602480820192602092909190829003018186803b1580156117b257600080fd5b505afa1580156117c6573d6000803e3d6000fd5b505050506040513d60208110156117dc57600080fd5b50516008546001600160701b0380821691600160701b900416611d51565b6001600c55565b3390565b6001600160a01b03831661184a5760405162461bcd60e51b81526004018080602001828103825260248152602001806123ad6024913960400191505060405180910390fd5b6001600160a01b03821661188f5760405162461bcd60e51b81526004018080602001828103825260228152602001806122b46022913960400191505060405180910390fd5b6001600160a01b03808416600081815260016020908152604080832094871680845294825291829020859055815185815291517f8c5be1e5ebec7d5bd14f71427d1e84f3dd0314c0f7b2291e5b200ac8c7c3b9259281900390910190a3505050565b6001600160a01b0383166119365760405162461bcd60e51b81526004018080602001828103825260258152602001806123666025913960400191505060405180910390fd5b6001600160a01b03821661197b5760405162461bcd60e51b815260040180806020018281038252602381526020018061226f6023913960400191505060405180910390fd5b6119868383836121a2565b6119c3816040518060600160405280602681526020016122d6602691396001600160a01b0386166000908152602081905260409020549190611a4c565b6001600160a01b0380851660009081526020819052604080822093909355908416815220546119f29082611ae3565b6001600160a01b038084166000818152602081815260409182902094909455805185815290519193928716927fddf252ad1be2c89b69c2b068fc378daa952ba7f163c4a11628f55a4df523b3ef92918290030190a3505050565b60008184841115611adb5760405162461bcd60e51b81526004018080602001828103825283818151815260200191508051906020019080838360005b83811015611aa0578181015183820152602001611a88565b50505050905090810190601f168015611acd5780820380516001836020036101000a031916815260200191505b509250505060405180910390fd5b505050900390565b600082820183811015611b3d576040805162461bcd60e51b815260206004820152601b60248201527f536166654d6174683a206164646974696f6e206f766572666c6f770000000000604482015290519081900360640190fd5b9392505050565b600082821115611b9b576040805162461bcd60e51b815260206004820152601e60248201527f536166654d6174683a207375627472616374696f6e206f766572666c6f770000604482015290519081900360640190fd5b50900390565b600082611bb0575060006105dc565b82820282848281611bbd57fe5b0414611b3d5760405162461bcd60e51b81526004018080602001828103825260218152602001806122fc6021913960400191505060405180910390fd5b60006003821115611c3d575080600160028204015b81811015611c3757809150600281828581611c2657fe5b040181611c2f57fe5b049050611c0f565b50611034565b811561103457506001919050565b6000818310611c5a5781611b3d565b5090919050565b6001600160a01b038216611cbc576040805162461bcd60e51b815260206004820152601f60248201527f45524332303a206d696e7420746f20746865207a65726f206164647265737300604482015290519081900360640190fd5b611cc8600083836121a2565b600254611cd59082611ae3565b6002556001600160a01b038216600090815260208190526040902054611cfb9082611ae3565b6001600160a01b0383166000818152602081815260408083209490945583518581529351929391927fddf252ad1be2c89b69c2b068fc378daa952ba7f163c4a11628f55a4df523b3ef9281900390910190a35050565b6001600160701b038411801590611d6f57506001600160701b038311155b611db3576040805162461bcd60e51b815260206004820152601060248201526f4b65706c65723a204f564552464c4f5760801b604482015290519081900360640190fd5b60085463ffffffff42811691600160e01b90048116820390811615801590611de357506001600160701b03841615155b8015611df757506001600160701b03831615155b15611e62578063ffffffff16611e1f85611e1086612237565b6001600160e01b031690612249565b600980546001600160e01b03929092169290920201905563ffffffff8116611e4a84611e1087612237565b600a80546001600160e01b0392909216929092020190555b600880546dffffffffffffffffffffffffffff19166001600160701b03888116919091176dffffffffffffffffffffffffffff60701b1916600160701b8883168102919091176001600160e01b0316600160e01b63ffffffff871602179283905560408051848416815291909304909116602082015281517f1c411e9a96e071241c2f21f7726b17ae89e3cab4c78be50e062b03a9fffbbad1929181900390910190a1505050505050565b604080518082018252601981527f7472616e7366657228616464726573732c75696e74323536290000000000000060209182015281516001600160a01b0385811660248301526044808301869052845180840390910181526064909201845291810180516001600160e01b031663a9059cbb60e01b17815292518151600094859489169392918291908083835b60208310611fb95780518252601f199092019160209182019101611f9a565b6001836020036101000a0380198251168184511680821785525050505050509050019150506000604051808303816000865af19150503d806000811461201b576040519150601f19603f3d011682016040523d82523d6000602084013e612020565b606091505b509150915081801561204e57508051158061204e575080806020019051602081101561204b57600080fd5b50515b61209f576040805162461bcd60e51b815260206004820152601760248201527f4b65706c65723a205452414e534645525f4641494c4544000000000000000000604482015290519081900360640190fd5b5050505050565b6001600160a01b0382166120eb5760405162461bcd60e51b81526004018080602001828103825260218152602001806123456021913960400191505060405180910390fd5b6120f7826000836121a2565b61213481604051806060016040528060228152602001612292602291396001600160a01b0385166000908152602081905260409020549190611a4c565b6001600160a01b03831660009081526020819052604090205560025461215a9082611b44565b6002556040805182815290516000916001600160a01b038516917fddf252ad1be2c89b69c2b068fc378daa952ba7f163c4a11628f55a4df523b3ef9181900360200190a35050565b6005546006546007546040805163a24090b160e01b81526001600160a01b03938416600482015291831660248301528683166044830152858316606483015260848201859052516101009093049091169163a24090b19160a48082019260009290919082900301818387803b15801561221a57600080fd5b505af115801561222e573d6000803e3d6000fd5b50505050505050565b6001600160701b0316600160701b0290565b60006001600160701b0382166001600160e01b0384168161226657fe5b04939250505056fe45524332303a207472616e7366657220746f20746865207a65726f206164647265737345524332303a206275726e20616d6f756e7420657863656564732062616c616e636545524332303a20617070726f766520746f20746865207a65726f206164647265737345524332303a207472616e7366657220616d6f756e7420657863656564732062616c616e6365536166654d6174683a206d756c7469706c69636174696f6e206f766572666c6f7745524332303a207472616e7366657220616d6f756e74206578636565647320616c6c6f77616e636545524332303a206275726e2066726f6d20746865207a65726f206164647265737345524332303a207472616e736665722066726f6d20746865207a65726f20616464726573734b65706c65723a20494e53554646494349454e545f4f55545055545f414d4f554e5445524332303a20617070726f76652066726f6d20746865207a65726f20616464726573734b65706c65723a20494e53554646494349454e545f4c49515549444954595f4255524e4544426162793a20494e53554646494349454e545f4c49515549444954595f4d494e54454445524332303a2064656372656173656420616c6c6f77616e63652062656c6f77207a65726fa2646970667358221220a4703cc1cfe7c0daf088b3f6225cfb70dd012bf940577de841b974ad06f12f7e64736f6c634300070600334f776e61626c653a206e6577206f776e657220697320746865207a65726f206164647265737350616e63616b654c6962726172793a204944454e544943414c5f4144445245535345536f6e6c7920736e617073686f7443726561746543616c6c65722063616e20646f2074686973536166654d6174683a206d756c7469706c69636174696f6e206f766572666c6f774f776e61626c653a2063616c6c6572206973206e6f7420746865206f776e6572a2646970667358221220c37bd1fd74628a4e6eccd64f12fa0ca64960cb3f902f84b2d595c7122a3caa6164736f6c63430007060033",
  "devdoc": {
    "kind": "dev",
    "methods": {
      "owner()": {
        "details": "Returns the address of the current owner."
      },
      "renounceOwnership()": {
        "details": "Leaves the contract without owner. It will not be possible to call `onlyOwner` functions anymore. Can only be called by the current owner. NOTE: Renouncing ownership will leave the contract without an owner, thereby removing any functionality that is only available to the owner."
      },
      "transferOwnership(address)": {
        "details": "Transfers ownership of the contract to a new account (`newOwner`). Can only be called by the current owner."
      }
    },
    "version": 1
  },
  "userdoc": {
    "kind": "user",
    "methods": {},
    "version": 1
  },
  "storageLayout": {
    "storage": [
      {
        "astId": 7,
        "contract": "contracts/swap/KeplerFactory.sol:KeplerFactory",
        "label": "_owner",
        "offset": 0,
        "slot": "0",
        "type": "t_address"
      },
      {
        "astId": 11075,
        "contract": "contracts/swap/KeplerFactory.sol:KeplerFactory",
        "label": "feeTo",
        "offset": 0,
        "slot": "1",
        "type": "t_address"
      },
      {
        "astId": 11081,
        "contract": "contracts/swap/KeplerFactory.sol:KeplerFactory",
        "label": "getPair",
        "offset": 0,
        "slot": "2",
        "type": "t_mapping(t_address,t_mapping(t_address,t_address))"
      },
      {
        "astId": 11083,
        "contract": "contracts/swap/KeplerFactory.sol:KeplerFactory",
        "label": "allPairsLength",
        "offset": 0,
        "slot": "3",
        "type": "t_uint256"
      },
      {
        "astId": 11085,
        "contract": "contracts/swap/KeplerFactory.sol:KeplerFactory",
        "label": "whiteListAvaliable",
        "offset": 0,
        "slot": "4",
        "type": "t_bool"
      },
      {
        "astId": 11089,
        "contract": "contracts/swap/KeplerFactory.sol:KeplerFactory",
        "label": "whiteList",
        "offset": 0,
        "slot": "5",
        "type": "t_mapping(t_address,t_bool)"
      },
      {
        "astId": 11091,
        "contract": "contracts/swap/KeplerFactory.sol:KeplerFactory",
        "label": "defaultTransferFee",
        "offset": 0,
        "slot": "6",
        "type": "t_uint256"
      },
      {
        "astId": 11095,
        "contract": "contracts/swap/KeplerFactory.sol:KeplerFactory",
        "label": "tokenTransferFee",
        "offset": 0,
        "slot": "7",
        "type": "t_mapping(t_address,t_uint256)"
      },
      {
        "astId": 11099,
        "contract": "contracts/swap/KeplerFactory.sol:KeplerFactory",
        "label": "relateTransferFee",
        "offset": 0,
        "slot": "8",
        "type": "t_mapping(t_address,t_uint256)"
      },
      {
        "astId": 11101,
        "contract": "contracts/swap/KeplerFactory.sol:KeplerFactory",
        "label": "currentSnapshotId",
        "offset": 0,
        "slot": "9",
        "type": "t_uint256"
      },
      {
        "astId": 11107,
        "contract": "contracts/swap/KeplerFactory.sol:KeplerFactory",
        "label": "userSnapshotId",
        "offset": 0,
        "slot": "10",
        "type": "t_mapping(t_address,t_mapping(t_address,t_uint256))"
      },
      {
        "astId": 11113,
        "contract": "contracts/swap/KeplerFactory.sol:KeplerFactory",
        "label": "userSnapshotAmount",
        "offset": 0,
        "slot": "11",
        "type": "t_mapping(t_address,t_mapping(t_address,t_uint256))"
      },
      {
        "astId": 11119,
        "contract": "contracts/swap/KeplerFactory.sol:KeplerFactory",
        "label": "pairSnapshotPrice",
        "offset": 0,
        "slot": "12",
        "type": "t_mapping(t_address,t_mapping(t_address,t_uint256))"
      },
      {
        "astId": 11121,
        "contract": "contracts/swap/KeplerFactory.sol:KeplerFactory",
        "label": "snapshotCreateCaller",
        "offset": 0,
        "slot": "13",
        "type": "t_address"
      }
    ],
    "types": {
      "t_address": {
        "encoding": "inplace",
        "label": "address",
        "numberOfBytes": "20"
      },
      "t_bool": {
        "encoding": "inplace",
        "label": "bool",
        "numberOfBytes": "1"
      },
      "t_mapping(t_address,t_address)": {
        "encoding": "mapping",
        "key": "t_address",
        "label": "mapping(address => address)",
        "numberOfBytes": "32",
        "value": "t_address"
      },
      "t_mapping(t_address,t_bool)": {
        "encoding": "mapping",
        "key": "t_address",
        "label": "mapping(address => bool)",
        "numberOfBytes": "32",
        "value": "t_bool"
      },
      "t_mapping(t_address,t_mapping(t_address,t_address))": {
        "encoding": "mapping",
        "key": "t_address",
        "label": "mapping(address => mapping(address => address))",
        "numberOfBytes": "32",
        "value": "t_mapping(t_address,t_address)"
      },
      "t_mapping(t_address,t_mapping(t_address,t_uint256))": {
        "encoding": "mapping",
        "key": "t_address",
        "label": "mapping(address => mapping(address => uint256))",
        "numberOfBytes": "32",
        "value": "t_mapping(t_address,t_uint256)"
      },
      "t_mapping(t_address,t_uint256)": {
        "encoding": "mapping",
        "key": "t_address",
        "label": "mapping(address => uint256)",
        "numberOfBytes": "32",
        "value": "t_uint256"
      },
      "t_uint256": {
        "encoding": "inplace",
        "label": "uint256",
        "numberOfBytes": "32"
      }
    }
  }
}