{
  "address": "0xf1c85daa76667beAf7fc233369dbC3e5072aCe83",
  "abi": [
    {
      "anonymous": false,
      "inputs": [
        {
          "indexed": true,
          "internalType": "address",
          "name": "previousOwner",
          "type": "address"
        },
        {
          "indexed": true,
          "internalType": "address",
          "name": "newOwner",
          "type": "address"
        }
      ],
      "name": "OwnershipTransferred",
      "type": "event"
    },
    {
      "inputs": [
        {
          "internalType": "contract IKeplerPair",
          "name": "_pair",
          "type": "address"
        },
        {
          "internalType": "address",
          "name": "token",
          "type": "address"
        },
        {
          "internalType": "uint256",
          "name": "amountIn",
          "type": "uint256"
        }
      ],
      "name": "getAmountOut",
      "outputs": [
        {
          "internalType": "uint256",
          "name": "",
          "type": "uint256"
        }
      ],
      "stateMutability": "view",
      "type": "function"
    },
    {
      "inputs": [
        {
          "internalType": "contract IMasterChef",
          "name": "_masterChef",
          "type": "address"
        },
        {
          "internalType": "contract IKeplerPair",
          "name": "_pair",
          "type": "address"
        },
        {
          "internalType": "address",
          "name": "_user",
          "type": "address"
        }
      ],
      "name": "getInviteInfo",
      "outputs": [
        {
          "components": [
            {
              "internalType": "string",
              "name": "symbol0",
              "type": "string"
            },
            {
              "internalType": "string",
              "name": "symbol1",
              "type": "string"
            },
            {
              "internalType": "uint256",
              "name": "amount",
              "type": "uint256"
            },
            {
              "internalType": "uint256",
              "name": "shares",
              "type": "uint256"
            },
            {
              "internalType": "uint256",
              "name": "amount0",
              "type": "uint256"
            },
            {
              "internalType": "uint256",
              "name": "amount1",
              "type": "uint256"
            },
            {
              "internalType": "uint256",
              "name": "percent",
              "type": "uint256"
            }
          ],
          "internalType": "struct Lens.MineInfo",
          "name": "mineInfo",
          "type": "tuple"
        }
      ],
      "stateMutability": "view",
      "type": "function"
    },
    {
      "inputs": [
        {
          "internalType": "contract IMasterChef",
          "name": "_masterChef",
          "type": "address"
        },
        {
          "internalType": "contract IKeplerPair",
          "name": "_pair",
          "type": "address"
        },
        {
          "internalType": "address",
          "name": "user",
          "type": "address"
        },
        {
          "internalType": "uint256",
          "name": "from",
          "type": "uint256"
        },
        {
          "internalType": "uint256",
          "name": "size",
          "type": "uint256"
        }
      ],
      "name": "getLockInfo",
      "outputs": [
        {
          "components": [
            {
              "internalType": "uint256",
              "name": "amount",
              "type": "uint256"
            },
            {
              "internalType": "string",
              "name": "symbol0",
              "type": "string"
            },
            {
              "internalType": "string",
              "name": "symbol1",
              "type": "string"
            },
            {
              "internalType": "uint256",
              "name": "amount0",
              "type": "uint256"
            },
            {
              "internalType": "uint256",
              "name": "amount1",
              "type": "uint256"
            },
            {
              "internalType": "uint256",
              "name": "shares",
              "type": "uint256"
            },
            {
              "internalType": "uint256",
              "name": "lockType",
              "type": "uint256"
            },
            {
              "internalType": "uint256",
              "name": "depositAt",
              "type": "uint256"
            },
            {
              "internalType": "uint256",
              "name": "expireAt",
              "type": "uint256"
            }
          ],
          "internalType": "struct Lens.UserLockInfo[]",
          "name": "",
          "type": "tuple[]"
        }
      ],
      "stateMutability": "view",
      "type": "function"
    },
    {
      "inputs": [
        {
          "internalType": "contract IMasterChef",
          "name": "_masterChef",
          "type": "address"
        },
        {
          "internalType": "contract IKeplerPair",
          "name": "_pair",
          "type": "address"
        },
        {
          "internalType": "address",
          "name": "user",
          "type": "address"
        }
      ],
      "name": "getLockInfoLength",
      "outputs": [
        {
          "internalType": "uint256",
          "name": "",
          "type": "uint256"
        }
      ],
      "stateMutability": "view",
      "type": "function"
    },
    {
      "inputs": [
        {
          "internalType": "contract IMasterChef",
          "name": "_masterChef",
          "type": "address"
        },
        {
          "internalType": "contract IKeplerPair",
          "name": "_pair",
          "type": "address"
        },
        {
          "internalType": "address",
          "name": "_user",
          "type": "address"
        }
      ],
      "name": "getMineInfo",
      "outputs": [
        {
          "components": [
            {
              "internalType": "string",
              "name": "symbol0",
              "type": "string"
            },
            {
              "internalType": "string",
              "name": "symbol1",
              "type": "string"
            },
            {
              "internalType": "uint256",
              "name": "amount",
              "type": "uint256"
            },
            {
              "internalType": "uint256",
              "name": "shares",
              "type": "uint256"
            },
            {
              "internalType": "uint256",
              "name": "amount0",
              "type": "uint256"
            },
            {
              "internalType": "uint256",
              "name": "amount1",
              "type": "uint256"
            },
            {
              "internalType": "uint256",
              "name": "percent",
              "type": "uint256"
            }
          ],
          "internalType": "struct Lens.MineInfo",
          "name": "mineInfo",
          "type": "tuple"
        }
      ],
      "stateMutability": "view",
      "type": "function"
    },
    {
      "inputs": [
        {
          "internalType": "contract IKeplerFactory",
          "name": "_factory",
          "type": "address"
        },
        {
          "internalType": "address[]",
          "name": "_path",
          "type": "address[]"
        },
        {
          "internalType": "uint256",
          "name": "amountOut",
          "type": "uint256"
        }
      ],
      "name": "getSwapInfoIn",
      "outputs": [
        {
          "components": [
            {
              "internalType": "uint256",
              "name": "amountIn",
              "type": "uint256"
            },
            {
              "internalType": "uint256",
              "name": "amountOut",
              "type": "uint256"
            },
            {
              "internalType": "uint256",
              "name": "fee",
              "type": "uint256"
            },
            {
              "internalType": "uint256",
              "name": "affect",
              "type": "uint256"
            }
          ],
          "internalType": "struct Lens.SwapInfo",
          "name": "swapInfo",
          "type": "tuple"
        }
      ],
      "stateMutability": "view",
      "type": "function"
    },
    {
      "inputs": [
        {
          "internalType": "contract IKeplerFactory",
          "name": "_factory",
          "type": "address"
        },
        {
          "internalType": "address[]",
          "name": "_path",
          "type": "address[]"
        },
        {
          "internalType": "uint256",
          "name": "amountIn",
          "type": "uint256"
        }
      ],
      "name": "getSwapInfoOut",
      "outputs": [
        {
          "components": [
            {
              "internalType": "uint256",
              "name": "amountIn",
              "type": "uint256"
            },
            {
              "internalType": "uint256",
              "name": "amountOut",
              "type": "uint256"
            },
            {
              "internalType": "uint256",
              "name": "fee",
              "type": "uint256"
            },
            {
              "internalType": "uint256",
              "name": "affect",
              "type": "uint256"
            }
          ],
          "internalType": "struct Lens.SwapInfo",
          "name": "swapInfo",
          "type": "tuple"
        }
      ],
      "stateMutability": "view",
      "type": "function"
    },
    {
      "inputs": [],
      "name": "owner",
      "outputs": [
        {
          "internalType": "address",
          "name": "",
          "type": "address"
        }
      ],
      "stateMutability": "view",
      "type": "function"
    },
    {
      "inputs": [
        {
          "internalType": "contract IInviter",
          "name": "_inviter",
          "type": "address"
        },
        {
          "internalType": "address",
          "name": "_token",
          "type": "address"
        },
        {
          "internalType": "address",
          "name": "_user",
          "type": "address"
        }
      ],
      "name": "pendingInvite",
      "outputs": [
        {
          "internalType": "uint256",
          "name": "",
          "type": "uint256"
        }
      ],
      "stateMutability": "view",
      "type": "function"
    },
    {
      "inputs": [
        {
          "internalType": "contract IMasterChef",
          "name": "_masterChef",
          "type": "address"
        },
        {
          "internalType": "contract IKeplerPair",
          "name": "_pair",
          "type": "address"
        },
        {
          "internalType": "address",
          "name": "_token",
          "type": "address"
        },
        {
          "internalType": "address",
          "name": "_user",
          "type": "address"
        }
      ],
      "name": "pendingInviteMine",
      "outputs": [
        {
          "internalType": "uint256",
          "name": "",
          "type": "uint256"
        }
      ],
      "stateMutability": "view",
      "type": "function"
    },
    {
      "inputs": [
        {
          "internalType": "contract IMasterChef",
          "name": "_masterChef",
          "type": "address"
        },
        {
          "internalType": "contract IKeplerPair",
          "name": "_pair",
          "type": "address"
        },
        {
          "internalType": "address",
          "name": "_token",
          "type": "address"
        },
        {
          "internalType": "address",
          "name": "_user",
          "type": "address"
        }
      ],
      "name": "pendingMine",
      "outputs": [
        {
          "internalType": "uint256",
          "name": "",
          "type": "uint256"
        }
      ],
      "stateMutability": "view",
      "type": "function"
    },
    {
      "inputs": [],
      "name": "renounceOwnership",
      "outputs": [],
      "stateMutability": "nonpayable",
      "type": "function"
    },
    {
      "inputs": [
        {
          "internalType": "address",
          "name": "newOwner",
          "type": "address"
        }
      ],
      "name": "transferOwnership",
      "outputs": [],
      "stateMutability": "nonpayable",
      "type": "function"
    }
  ],
  "transactionHash": "0xa9c730c8a5ff25b2dcf5ab7486029315cc67da0f668aa3439d38a3d528e88375",
  "args": [],
  "solcInputHash": "79df23217798be468311a9a1f72d7e6c",
  "bytecode": "0x60806040523480156200001157600080fd5b5060006200001e6200006e565b600080546001600160a01b0319166001600160a01b0383169081178255604051929350917f8be0079c531659141344cd1fd0a4f28419497f9722a3daafe3b4186f6b6457e0908290a35062000072565b3390565b61393280620000826000396000f3fe608060405234801561001057600080fd5b50600436106100cf5760003560e01c80638eb3a82e1161008c578063d209fb7b11610066578063d209fb7b146101b5578063f2914890146101c8578063f2fde38b146101db578063f6827539146101ee576100cf565b80638eb3a82e146101625780639485a21014610182578063af3d1ba814610195576100cf565b80631df027b7146100d45780634aa06652146100fd5780636828d3301461011d578063715018a6146101305780638727b45c1461013a5780638da5cb5b1461014d575b600080fd5b6100e76100e2366004613262565b610201565b6040516100f4919061367a565b60405180910390f35b61011061010b366004613222565b6107fc565b6040516100f4919061371e565b61011061012b366004613262565b61095f565b6101386109e8565b005b610110610148366004613122565b610aa6565b610155610ad7565b6040516100f491906134e8565b61017561017036600461316c565b610ae6565b6040516100f491906136f3565b61017561019036600461316c565b610ee8565b6101a86101a33660046132d1565b610ff9565b6040516100f49190613563565b6100e76101c3366004613262565b611761565b6101106101d6366004613276565b611cb8565b6101386101e9366004613055565b61207b565b6101106101fc366004613276565b61218f565b610209612f88565b6000836001600160a01b0316630dfe16816040518163ffffffff1660e01b815260040160206040518083038186803b15801561024457600080fd5b505afa158015610258573d6000803e3d6000fd5b505050506040513d601f19601f8201168201806040525081019061027c9190613071565b90506000846001600160a01b031663d21220a76040518163ffffffff1660e01b815260040160206040518083038186803b1580156102b957600080fd5b505afa1580156102cd573d6000803e3d6000fd5b505050506040513d601f19601f820116820180604052508101906102f19190613071565b9050816001600160a01b03166395d89b416040518163ffffffff1660e01b815260040160006040518083038186803b15801561032c57600080fd5b505afa158015610340573d6000803e3d6000fd5b505050506040513d6000823e601f3d908101601f19168201604052610368919081019061332b565b8360000181905250806001600160a01b03166395d89b416040518163ffffffff1660e01b815260040160006040518083038186803b1580156103a957600080fd5b505afa1580156103bd573d6000803e3d6000fd5b505050506040513d6000823e601f3d908101601f191682016040526103e5919081019061332b565b602084015260405163f741198f60e01b81526001600160a01b0387169063f741198f9061041890889088906004016134fc565b60c06040518083038186803b15801561043057600080fd5b505afa158015610444573d6000803e3d6000fd5b505050506040513d601f19601f820116820180604052508101906104689190613473565b5050505060608501526040808501919091528051630dfe168160e01b815290516000916001600160a01b03881691630dfe168191600480820192602092909190829003018186803b1580156104bc57600080fd5b505afa1580156104d0573d6000803e3d6000fd5b505050506040513d601f19601f820116820180604052508101906104f49190613071565b6001600160a01b03166370a08231876040518263ffffffff1660e01b815260040161051f91906134e8565b60206040518083038186803b15801561053757600080fd5b505afa15801561054b573d6000803e3d6000fd5b505050506040513d601f19601f8201168201806040525081019061056f91906133ef565b90506000866001600160a01b031663d21220a76040518163ffffffff1660e01b815260040160206040518083038186803b1580156105ac57600080fd5b505afa1580156105c0573d6000803e3d6000fd5b505050506040513d601f19601f820116820180604052508101906105e49190613071565b6001600160a01b03166370a08231886040518263ffffffff1660e01b815260040161060f91906134e8565b60206040518083038186803b15801561062757600080fd5b505afa15801561063b573d6000803e3d6000fd5b505050506040513d601f19601f8201168201806040525081019061065f91906133ef565b90506000876001600160a01b03166318160ddd6040518163ffffffff1660e01b815260040160206040518083038186803b15801561069c57600080fd5b505afa1580156106b0573d6000803e3d6000fd5b505050506040513d601f19601f820116820180604052508101906106d491906133ef565b90508015610721576106fd816106f78589604001516125c490919063ffffffff16565b90612626565b608087015260408601516107179082906106f790856125c4565b60a0870152610730565b60006080870181905260a08701525b60405163677de24b60e11b81526000906001600160a01b038b169063cefbc4969061075f908c906004016134e8565b60606040518083038186803b15801561077757600080fd5b505afa15801561078b573d6000803e3d6000fd5b505050506040513d601f19601f820116820180604052508101906107af9190613407565b509091505080156107e7576107dd816106f7670de0b6b3a76400008a606001516125c490919063ffffffff16565b60c08801526107ef565b600060c08801525b5050505050509392505050565b6000806000856001600160a01b0316630902f1ac6040518163ffffffff1660e01b815260040160606040518083038186803b15801561083a57600080fd5b505afa15801561084e573d6000803e3d6000fd5b505050506040513d601f19601f8201168201806040525081019061087291906133ac565b506001600160701b031691506001600160701b03169150856001600160a01b0316630dfe16816040518163ffffffff1660e01b815260040160206040518083038186803b1580156108c257600080fd5b505afa1580156108d6573d6000803e3d6000fd5b505050506040513d601f19601f820116820180604052508101906108fa9190613071565b6001600160a01b0316856001600160a01b0316141561093a578161092357600092505050610958565b610931826106f783876125c4565b92505050610958565b8061094a57600092505050610958565b610931816106f784876125c4565b9392505050565b604051630cb1c87b60e31b81526000906001600160a01b0385169063658e43d89061099090869086906004016134fc565b60206040518083038186803b1580156109a857600080fd5b505afa1580156109bc573d6000803e3d6000fd5b505050506040513d601f19601f820116820180604052508101906109e091906133ef565b949350505050565b6109f061268d565b6001600160a01b0316610a01610ad7565b6001600160a01b031614610a5c576040805162461bcd60e51b815260206004820181905260248201527f4f776e61626c653a2063616c6c6572206973206e6f7420746865206f776e6572604482015290519081900360640190fd5b600080546040516001600160a01b03909116907f8be0079c531659141344cd1fd0a4f28419497f9722a3daafe3b4186f6b6457e0908390a3600080546001600160a01b0319169055565b6040516367dd2f7d60e01b81526000906001600160a01b038516906367dd2f7d9061099090859087906004016134fc565b6000546001600160a01b031690565b610aee612fc5565b81815260405163372dad2160e21b81526000906001600160a01b0386169063dcb6b48490610b20908790600401613516565b60006040518083038186803b158015610b3857600080fd5b505afa158015610b4c573d6000803e3d6000fd5b505050506040513d6000823e601f3d908101601f19168201604052610b74919081019061308d565b9050610ba36103e86106f78584600081518110610b8d57fe5b60200260200101516125c490919063ffffffff16565b60408301526000610bb686858785612691565b905080600182510381518110610bc857fe5b6020026020010151836020018181525050600080876001600160a01b031663e6a4390588600081518110610bf857fe5b602002602001015189600181518110610c0d57fe5b60200260200101516040518363ffffffff1660e01b8152600401610c329291906134fc565b60206040518083038186803b158015610c4a57600080fd5b505afa158015610c5e573d6000803e3d6000fd5b505050506040513d601f19601f82011682018060405250810190610c829190613071565b6001600160a01b0316630902f1ac6040518163ffffffff1660e01b815260040160606040518083038186803b158015610cba57600080fd5b505afa158015610cce573d6000803e3d6000fd5b505050506040513d601f19601f82011682018060405250810190610cf291906133ac565b506001600160701b031691506001600160701b031691506000886001600160a01b031663e6a4390589600081518110610d2757fe5b60200260200101518a600181518110610d3c57fe5b60200260200101516040518363ffffffff1660e01b8152600401610d619291906134fc565b60206040518083038186803b158015610d7957600080fd5b505afa158015610d8d573d6000803e3d6000fd5b505050506040513d601f19601f82011682018060405250810190610db19190613071565b6001600160a01b0316630dfe16816040518163ffffffff1660e01b815260040160206040518083038186803b158015610de957600080fd5b505afa158015610dfd573d6000803e3d6000fd5b505050506040513d601f19601f82011682018060405250810190610e219190613071565b6001600160a01b031688600081518110610e3757fe5b60200260200101516001600160a01b031614610e535781610e55565b825b9050610ed6610e9f610e9887600081518110610e6d57fe5b602002602001015187600081518110610e8257fe5b602002602001015161283290919063ffffffff16565b839061288f565b6106f7670de0b6b3a7640000610ed089600081518110610ebb57fe5b602002602001015189600081518110610e8257fe5b906125c4565b60608701525093979650505050505050565b610ef0612fc5565b6020810182905260405163372dad2160e21b81526000906001600160a01b0386169063dcb6b48490610f26908790600401613516565b60006040518083038186803b158015610f3e57600080fd5b505afa158015610f52573d6000803e3d6000fd5b505050506040513d6000823e601f3d908101601f19168201604052610f7a919081019061308d565b90506000610f8a868587856128e9565b9050610fb76103e86106f783600081518110610fa257fe5b602002602001015185600081518110610b8d57fe5b604084015280518190600090610fc957fe5b6020026020010151836000018181525050600080876001600160a01b031663e6a4390588600081518110610bf857fe5b60606000856001600160a01b0316630dfe16816040518163ffffffff1660e01b815260040160206040518083038186803b15801561103657600080fd5b505afa15801561104a573d6000803e3d6000fd5b505050506040513d601f19601f8201168201806040525081019061106e9190613071565b6001600160a01b03166395d89b416040518163ffffffff1660e01b815260040160006040518083038186803b1580156110a657600080fd5b505afa1580156110ba573d6000803e3d6000fd5b505050506040513d6000823e601f3d908101601f191682016040526110e2919081019061332b565b90506000866001600160a01b031663d21220a76040518163ffffffff1660e01b815260040160206040518083038186803b15801561111f57600080fd5b505afa158015611133573d6000803e3d6000fd5b505050506040513d601f19601f820116820180604052508101906111579190613071565b6001600160a01b03166395d89b416040518163ffffffff1660e01b815260040160006040518083038186803b15801561118f57600080fd5b505afa1580156111a3573d6000803e3d6000fd5b505050506040513d6000823e601f3d908101601f191682016040526111cb919081019061332b565b90506000876001600160a01b0316630dfe16816040518163ffffffff1660e01b815260040160206040518083038186803b15801561120857600080fd5b505afa15801561121c573d6000803e3d6000fd5b505050506040513d601f19601f820116820180604052508101906112409190613071565b6001600160a01b03166370a08231896040518263ffffffff1660e01b815260040161126b91906134e8565b60206040518083038186803b15801561128357600080fd5b505afa158015611297573d6000803e3d6000fd5b505050506040513d601f19601f820116820180604052508101906112bb91906133ef565b90506000886001600160a01b031663d21220a76040518163ffffffff1660e01b815260040160206040518083038186803b1580156112f857600080fd5b505afa15801561130c573d6000803e3d6000fd5b505050506040513d601f19601f820116820180604052508101906113309190613071565b6001600160a01b03166370a082318a6040518263ffffffff1660e01b815260040161135b91906134e8565b60206040518083038186803b15801561137357600080fd5b505afa158015611387573d6000803e3d6000fd5b505050506040513d601f19601f820116820180604052508101906113ab91906133ef565b90506000896001600160a01b03166318160ddd6040518163ffffffff1660e01b815260040160206040518083038186803b1580156113e857600080fd5b505afa1580156113fc573d6000803e3d6000fd5b505050506040513d601f19601f8201168201806040525081019061142091906133ef565b905060008b6001600160a01b031663658e43d88c8c6040518363ffffffff1660e01b81526004016114529291906134fc565b60206040518083038186803b15801561146a57600080fd5b505afa15801561147e573d6000803e3d6000fd5b505050506040513d601f19601f820116820180604052508101906114a291906133ef565b9050876114af828b612832565b116114c3576114be818a612832565b6114c5565b875b975060008867ffffffffffffffff811180156114e057600080fd5b5060405190808252806020026020018201604052801561151a57816020015b611507612fed565b8152602001906001900390816114ff5790505b50905060008a5b61152b8c8c61288f565b81101561174e578e6001600160a01b03166308cc72d88f8f846040518463ffffffff1660e01b81526004016115629392919061362f565b60a06040518083038186803b15801561157a57600080fd5b505afa15801561158e573d6000803e3d6000fd5b505050506040513d601f19601f820116820180604052508101906115b29190613434565b8787815181106115be57fe5b60200260200101516000018888815181106115d557fe5b602002602001015160a0018989815181106115ec57fe5b602002602001015160c0018a8a8151811061160357fe5b602002602001015160e0018b8b8151811061161a57fe5b60209081029190910101516101000194909452939092529290915291909152528251899084908490811061164a57fe5b6020026020010151602001819052508783838151811061166657fe5b602002602001015160400181905250846000146116fc576116ab856106f78986868151811061169157fe5b6020026020010151600001516125c490919063ffffffff16565b8383815181106116b757fe5b602002602001015160600181815250506116db856106f78886868151811061169157fe5b8383815181106116e757fe5b60200260200101516080018181525050611739565b600083838151811061170a57fe5b60200260200101516060018181525050600083838151811061172857fe5b602002602001015160800181815250505b61174482600161288f565b9150600101611521565b50909d9c50505050505050505050505050565b611769612f88565b6000836001600160a01b0316630dfe16816040518163ffffffff1660e01b815260040160206040518083038186803b1580156117a457600080fd5b505afa1580156117b8573d6000803e3d6000fd5b505050506040513d601f19601f820116820180604052508101906117dc9190613071565b90506000846001600160a01b031663d21220a76040518163ffffffff1660e01b815260040160206040518083038186803b15801561181957600080fd5b505afa15801561182d573d6000803e3d6000fd5b505050506040513d601f19601f820116820180604052508101906118519190613071565b9050816001600160a01b03166395d89b416040518163ffffffff1660e01b815260040160006040518083038186803b15801561188c57600080fd5b505afa1580156118a0573d6000803e3d6000fd5b505050506040513d6000823e601f3d908101601f191682016040526118c8919081019061332b565b8360000181905250806001600160a01b03166395d89b416040518163ffffffff1660e01b815260040160006040518083038186803b15801561190957600080fd5b505afa15801561191d573d6000803e3d6000fd5b505050506040513d6000823e601f3d908101601f19168201604052611945919081019061332b565b602084015260405163f2801fe760e01b81526001600160a01b0387169063f2801fe79061197890889088906004016134fc565b60c06040518083038186803b15801561199057600080fd5b505afa1580156119a4573d6000803e3d6000fd5b505050506040513d601f19601f820116820180604052508101906119c89190613473565b5050505060608501526040808501919091528051630dfe168160e01b815290516000916001600160a01b03881691630dfe168191600480820192602092909190829003018186803b158015611a1c57600080fd5b505afa158015611a30573d6000803e3d6000fd5b505050506040513d601f19601f82011682018060405250810190611a549190613071565b6001600160a01b03166370a08231876040518263ffffffff1660e01b8152600401611a7f91906134e8565b60206040518083038186803b158015611a9757600080fd5b505afa158015611aab573d6000803e3d6000fd5b505050506040513d601f19601f82011682018060405250810190611acf91906133ef565b90506000866001600160a01b031663d21220a76040518163ffffffff1660e01b815260040160206040518083038186803b158015611b0c57600080fd5b505afa158015611b20573d6000803e3d6000fd5b505050506040513d601f19601f82011682018060405250810190611b449190613071565b6001600160a01b03166370a08231886040518263ffffffff1660e01b8152600401611b6f91906134e8565b60206040518083038186803b158015611b8757600080fd5b505afa158015611b9b573d6000803e3d6000fd5b505050506040513d601f19601f82011682018060405250810190611bbf91906133ef565b90506000876001600160a01b03166318160ddd6040518163ffffffff1660e01b815260040160206040518083038186803b158015611bfc57600080fd5b505afa158015611c10573d6000803e3d6000fd5b505050506040513d601f19601f82011682018060405250810190611c3491906133ef565b90508015611c7b57611c57816106f78589604001516125c490919063ffffffff16565b60808701526040860151611c719082906106f790856125c4565b60a0870152611c8a565b60006080870181905260a08701525b60405162d7f52760e31b81526000906001600160a01b038b16906306bfa9389061075f908c906004016134e8565b600080846001600160a01b0316630dfe16816040518163ffffffff1660e01b815260040160206040518083038186803b158015611cf457600080fd5b505afa158015611d08573d6000803e3d6000fd5b505050506040513d601f19601f82011682018060405250810190611d2c9190613071565b90506000856001600160a01b031663d21220a76040518163ffffffff1660e01b815260040160206040518083038186803b158015611d6957600080fd5b505afa158015611d7d573d6000803e3d6000fd5b505050506040513d601f19601f82011682018060405250810190611da19190613071565b9050816001600160a01b0316856001600160a01b03161415611f0b5760405162d7f52760e31b81526000906001600160a01b038916906306bfa93890611deb908a906004016134e8565b60606040518083038186803b158015611e0357600080fd5b505afa158015611e17573d6000803e3d6000fd5b505050506040513d601f19601f82011682018060405250810190611e3b9190613407565b5091505060008060008a6001600160a01b031663f2801fe78b8a6040518363ffffffff1660e01b8152600401611e729291906134fc565b60c06040518083038186803b158015611e8a57600080fd5b505afa158015611e9e573d6000803e3d6000fd5b505050506040513d601f19601f82011682018060405250810190611ec29190613473565b509450509350935050611efe81611ef884611ef2670de0b6b3a76400006106f7898b6125c490919063ffffffff16565b90612832565b9061288f565b96505050505050506109e0565b806001600160a01b0316856001600160a01b0316141561205a5760405162d7f52760e31b81526000906001600160a01b038916906306bfa93890611f53908a906004016134e8565b60606040518083038186803b158015611f6b57600080fd5b505afa158015611f7f573d6000803e3d6000fd5b505050506040513d601f19601f82011682018060405250810190611fa39190613407565b9250505060008060008a6001600160a01b031663f2801fe78b8a6040518363ffffffff1660e01b8152600401611fda9291906134fc565b60c06040518083038186803b158015611ff257600080fd5b505afa158015612006573d6000803e3d6000fd5b505050506040513d601f19601f8201168201806040525081019061202a9190613473565b955050945050935050611efe81611ef884611ef2670de0b6b3a76400006106f7898b6125c490919063ffffffff16565b60405162461bcd60e51b815260040161207290613653565b60405180910390fd5b61208361268d565b6001600160a01b0316612094610ad7565b6001600160a01b0316146120ef576040805162461bcd60e51b815260206004820181905260248201527f4f776e61626c653a2063616c6c6572206973206e6f7420746865206f776e6572604482015290519081900360640190fd5b6001600160a01b0381166121345760405162461bcd60e51b81526004018080602001828103825260268152602001806137f86026913960400191505060405180910390fd5b600080546040516001600160a01b03808516939216917f8be0079c531659141344cd1fd0a4f28419497f9722a3daafe3b4186f6b6457e091a3600080546001600160a01b0319166001600160a01b0392909216919091179055565b600080846001600160a01b0316630dfe16816040518163ffffffff1660e01b815260040160206040518083038186803b1580156121cb57600080fd5b505afa1580156121df573d6000803e3d6000fd5b505050506040513d601f19601f820116820180604052508101906122039190613071565b90506000856001600160a01b031663d21220a76040518163ffffffff1660e01b815260040160206040518083038186803b15801561224057600080fd5b505afa158015612254573d6000803e3d6000fd5b505050506040513d601f19601f820116820180604052508101906122789190613071565b90506000876001600160a01b031663f2801fe788876040518363ffffffff1660e01b81526004016122aa9291906134fc565b60c06040518083038186803b1580156122c257600080fd5b505afa1580156122d6573d6000803e3d6000fd5b505050506040513d601f19601f820116820180604052508101906122fa9190613473565b50505050509050806000141561231657600093505050506109e0565b826001600160a01b0316866001600160a01b031614156124745760405163677de24b60e11b81526000906001600160a01b038a169063cefbc4969061235f908b906004016134e8565b60606040518083038186803b15801561237757600080fd5b505afa15801561238b573d6000803e3d6000fd5b505050506040513d601f19601f820116820180604052508101906123af9190613407565b5091505060008060008b6001600160a01b031663f741198f8c8b6040518363ffffffff1660e01b81526004016123e69291906134fc565b60c06040518083038186803b1580156123fe57600080fd5b505afa158015612412573d6000803e3d6000fd5b505050506040513d601f19601f820116820180604052508101906124369190613473565b50945050935093505061246681611ef884611ef2670de0b6b3a76400006106f7898b6125c490919063ffffffff16565b9750505050505050506109e0565b816001600160a01b0316866001600160a01b0316141561205a5760405163677de24b60e11b81526000906001600160a01b038a169063cefbc496906124bd908b906004016134e8565b60606040518083038186803b1580156124d557600080fd5b505afa1580156124e9573d6000803e3d6000fd5b505050506040513d601f19601f8201168201806040525081019061250d9190613407565b9250505060008060008b6001600160a01b031663f741198f8c8b6040518363ffffffff1660e01b81526004016125449291906134fc565b60c06040518083038186803b15801561255c57600080fd5b505afa158015612570573d6000803e3d6000fd5b505050506040513d601f19601f820116820180604052508101906125949190613473565b95505094505093505061246681611ef884611ef2670de0b6b3a76400006106f7898b6125c490919063ffffffff16565b6000826125d357506000612620565b828202828482816125e057fe5b041461261d5760405162461bcd60e51b815260040180806020018281038252602181526020018061386b6021913960400191505060405180910390fd5b90505b92915050565b600080821161267c576040805162461bcd60e51b815260206004820152601a60248201527f536166654d6174683a206469766973696f6e206279207a65726f000000000000604482015290519081900360640190fd5b81838161268557fe5b049392505050565b3390565b60606002835110156126ea576040805162461bcd60e51b815260206004820152601b60248201527f4b65706c65724c6962726172793a20494e56414c49445f504154480000000000604482015290519081900360640190fd5b815183511461272a5760405162461bcd60e51b81526004018080602001828103825260218152602001806137b26021913960400191505060405180910390fd5b825167ffffffffffffffff8111801561274257600080fd5b5060405190808252806020026020018201604052801561276c578160200160208202803683370190505b509050838160008151811061277d57fe5b60200260200101818152505060005b6001845103811015612829576000806127cf888785815181106127ab57fe5b60200260200101518886600101815181106127c257fe5b6020026020010151612a78565b915091506128058484815181106127e257fe5b602002602001015183838887815181106127f857fe5b6020026020010151612b4b565b84846001018151811061281457fe5b6020908102919091010152505060010161278c565b50949350505050565b600082821115612889576040805162461bcd60e51b815260206004820152601e60248201527f536166654d6174683a207375627472616374696f6e206f766572666c6f770000604482015290519081900360640190fd5b50900390565b60008282018381101561261d576040805162461bcd60e51b815260206004820152601b60248201527f536166654d6174683a206164646974696f6e206f766572666c6f770000000000604482015290519081900360640190fd5b6060600283511015612942576040805162461bcd60e51b815260206004820152601b60248201527f4b65706c65724c6962726172793a20494e56414c49445f504154480000000000604482015290519081900360640190fd5b81518351146129825760405162461bcd60e51b81526004018080602001828103825260218152602001806137b26021913960400191505060405180910390fd5b825167ffffffffffffffff8111801561299a57600080fd5b506040519080825280602002602001820160405280156129c4578160200160208202803683370190505b50905083816001835103815181106129d857fe5b60209081029190910101528251600019015b801561282957600080612a1a88876001860381518110612a0657fe5b60200260200101518886815181106127c257fe5b91509150612a53848481518110612a2d57fe5b60200260200101518383886001880381518110612a4657fe5b6020026020010151612c6a565b846001850381518110612a6257fe5b60209081029190910101525050600019016129ea565b6000806000612a878585612d88565b509050612a95868686612e66565b50600080612aa4888888612e66565b6001600160a01b0316630902f1ac6040518163ffffffff1660e01b815260040160606040518083038186803b158015612adc57600080fd5b505afa158015612af0573d6000803e3d6000fd5b505050506040513d6060811015612b0657600080fd5b5080516020909101516001600160701b0391821693501690506001600160a01b0387811690841614612b39578082612b3c565b81815b90999098509650505050505050565b60006103e8821115612b8e5760405162461bcd60e51b815260040180806020018281038252602381526020018061388c6023913960400191505060405180910390fd5b60008511612bcd5760405162461bcd60e51b81526004018080602001828103825260288152602001806138d56028913960400191505060405180910390fd5b600084118015612bdd5750600083115b612c185760405162461bcd60e51b81526004018080602001828103825260258152602001806137d36025913960400191505060405180910390fd5b6000612c30612c296103e885612832565b87906125c4565b90506000612c3e82866125c4565b90506000612c5283611ef8896103e86125c4565b9050808281612c5d57fe5b0498975050505050505050565b60006103e8821115612cad5760405162461bcd60e51b815260040180806020018281038252602381526020018061388c6023913960400191505060405180910390fd5b60008511612cec5760405162461bcd60e51b815260040180806020018281038252602a81526020018061381e602a913960400191505060405180910390fd5b600084118015612cfc5750600083115b612d375760405162461bcd60e51b81526004018080602001828103825260268152602001806138af6026913960400191505060405180910390fd5b6000612d496103e8610ed087896125c4565b90506000612d66612d5c6103e886612832565b610ed0878a612832565b9050612d7d6001828481612d7657fe5b049061288f565b979650505050505050565b600080826001600160a01b0316846001600160a01b03161415612ddc5760405162461bcd60e51b81526004018080602001828103825260238152602001806138486023913960400191505060405180910390fd5b826001600160a01b0316846001600160a01b031610612dfc578284612dff565b83835b90925090506001600160a01b038216612e5f576040805162461bcd60e51b815260206004820152601c60248201527f50616e63616b654c6962726172793a205a45524f5f4144445245535300000000604482015290519081900360640190fd5b9250929050565b6000806000612e758585612d88565b9150915085828260405160200180836001600160a01b031660601b8152601401826001600160a01b031660601b81526014019250505060405160208183030381529060405280519060200120876001600160a01b0316635855a25a6040518163ffffffff1660e01b815260040160206040518083038186803b158015612efa57600080fd5b505afa158015612f0e573d6000803e3d6000fd5b505050506040513d6020811015612f2457600080fd5b5051604080516001600160f81b031960208083019190915260609590951b6bffffffffffffffffffffffff19166021820152603581019390935260558084019290925280518084039092018252607590920190915280519101209695505050505050565b6040518060e00160405280606081526020016060815260200160008152602001600081526020016000815260200160008152602001600081525090565b6040518060800160405280600081526020016000815260200160008152602001600081525090565b6040518061012001604052806000815260200160608152602001606081526020016000815260200160008152602001600081526020016000815260200160008152602001600081525090565b80516001600160701b038116811461305057600080fd5b919050565b600060208284031215613066578081fd5b813561261d81613799565b600060208284031215613082578081fd5b815161261d81613799565b6000602080838503121561309f578182fd5b825167ffffffffffffffff8111156130b5578283fd5b8301601f810185136130c5578283fd5b80516130d86130d38261374b565b613727565b81815283810190838501858402850186018910156130f4578687fd5b8694505b838510156131165780518352600194909401939185019185016130f8565b50979650505050505050565b600080600060608486031215613136578182fd5b833561314181613799565b9250602084013561315181613799565b9150604084013561316181613799565b809150509250925092565b600080600060608486031215613180578283fd5b833561318b81613799565b925060208481013567ffffffffffffffff8111156131a7578384fd5b8501601f810187136131b7578384fd5b80356131c56130d38261374b565b81815283810190838501858402850186018b10156131e1578788fd5b8794505b8385101561320c5780356131f881613799565b8352600194909401939185019185016131e5565b5096999698505050506040949094013593505050565b600080600060608486031215613236578283fd5b833561324181613799565b9250602084013561325181613799565b929592945050506040919091013590565b600080600060608486031215613136578283fd5b6000806000806080858703121561328b578081fd5b843561329681613799565b935060208501356132a681613799565b925060408501356132b681613799565b915060608501356132c681613799565b939692955090935050565b600080600080600060a086880312156132e8578283fd5b85356132f381613799565b9450602086013561330381613799565b9350604086013561331381613799565b94979396509394606081013594506080013592915050565b60006020828403121561333c578081fd5b815167ffffffffffffffff80821115613353578283fd5b818401915084601f830112613366578283fd5b81518181111561337257fe5b613385601f8201601f1916602001613727565b915080825285602082850101111561339b578384fd5b612829816020840160208601613769565b6000806000606084860312156133c0578081fd5b6133c984613039565b92506133d760208501613039565b9150604084015163ffffffff81168114613161578182fd5b600060208284031215613400578081fd5b5051919050565b60008060006060848603121561341b578081fd5b8351925060208401519150604084015190509250925092565b600080600080600060a0868803121561344b578283fd5b5050835160208501516040860151606087015160809097015192989197509594509092509050565b60008060008060008060c0878903121561348b578384fd5b865195506020870151945060408701519350606087015192506080870151915060a087015190509295509295509295565b600081518084526134d4816020860160208601613769565b601f01601f19169290920160200192915050565b6001600160a01b0391909116815260200190565b6001600160a01b0392831681529116602082015260400190565b6020808252825182820181905260009190848201906040850190845b818110156135575783516001600160a01b031683529284019291840191600101613532565b50909695505050505050565b60208082528251828201819052600091906040908185019080840286018301878501865b8381101561362157603f1989840301855281516101208151855288820151818a8701526135b6828701826134bc565b91505087820151858203898701526135ce82826134bc565b606084810151908801526080808501519088015260a0808501519088015260c0808501519088015260e0808501519088015261010093840151939096019290925250509386019390860190600101613587565b509098975050505050505050565b6001600160a01b039384168152919092166020820152604081019190915260600190565b6020808252600d908201526c34b63632b3b0b6103a37b5b2b760991b604082015260600190565b600060208252825160e060208401526136976101008401826134bc565b90506020840151601f198483030160408501526136b482826134bc565b9150506040840151606084015260608401516080840152608084015160a084015260a084015160c084015260c084015160e08401528091505092915050565b8151815260208083015190820152604080830151908201526060918201519181019190915260800190565b90815260200190565b60405181810167ffffffffffffffff8111828210171561374357fe5b604052919050565b600067ffffffffffffffff82111561375f57fe5b5060209081020190565b60005b8381101561378457818101518382015260200161376c565b83811115613793576000848401525b50505050565b6001600160a01b03811681146137ae57600080fd5b5056fe4b65706c65724c6962726172793a20494e56414c49445f4645455f4c454e4754484b65706c65724c6962726172793a20494e53554646494349454e545f4c49515549444954594f776e61626c653a206e6577206f776e657220697320746865207a65726f206164647265737350616e63616b654c6962726172793a20494e53554646494349454e545f4f55545055545f414d4f554e5450616e63616b654c6962726172793a204944454e544943414c5f414444524553534553536166654d6174683a206d756c7469706c69636174696f6e206f766572666c6f774b65706c65724c6962726172793a20494c4c4547414c5f5452414e534645525f46454550616e63616b654c6962726172793a20494e53554646494349454e545f4c49515549444954594b65706c65724c6962726172793a20494e53554646494349454e545f494e5055545f414d4f554e54a2646970667358221220556d417acffd37415949cabff5c89e619c18e4c0fea0c49dd77c92aa1d48913764736f6c63430007060033",
  "devdoc": {
    "kind": "dev",
    "methods": {
      "owner()": {
        "details": "Returns the address of the current owner."
      },
      "renounceOwnership()": {
        "details": "Leaves the contract without owner. It will not be possible to call `onlyOwner` functions anymore. Can only be called by the current owner. NOTE: Renouncing ownership will leave the contract without an owner, thereby removing any functionality that is only available to the owner."
      },
      "transferOwnership(address)": {
        "details": "Transfers ownership of the contract to a new account (`newOwner`). Can only be called by the current owner."
      }
    },
    "version": 1
  },
  "userdoc": {
    "kind": "user",
    "methods": {},
    "version": 1
  },
  "storageLayout": {
    "storage": [
      {
        "astId": 7,
        "contract": "contracts/lens/Lens.sol:Lens",
        "label": "_owner",
        "offset": 0,
        "slot": "0",
        "type": "t_address"
      }
    ],
    "types": {
      "t_address": {
        "encoding": "inplace",
        "label": "address",
        "numberOfBytes": "20"
      }
    }
  }
}