{
  "address": "0xf1f566516A5c849769098a9a64152bE44F2951eE",
  "abi": [
    {
      "inputs": [
        {
          "internalType": "contract IRandom",
          "name": "_random",
          "type": "address"
        }
      ],
      "stateMutability": "nonpayable",
      "type": "constructor"
    },
    {
      "anonymous": false,
      "inputs": [
        {
          "indexed": false,
          "internalType": "uint256",
          "name": "luckyId",
          "type": "uint256"
        },
        {
          "indexed": false,
          "internalType": "uint256",
          "name": "timestamp",
          "type": "uint256"
        }
      ],
      "name": "LuckyPoolBegin",
      "type": "event"
    },
    {
      "anonymous": false,
      "inputs": [
        {
          "indexed": false,
          "internalType": "uint256",
          "name": "luckyId",
          "type": "uint256"
        },
        {
          "indexed": false,
          "internalType": "address",
          "name": "user",
          "type": "address"
        },
        {
          "indexed": false,
          "internalType": "contract IKeplerPair",
          "name": "pair",
          "type": "address"
        },
        {
          "indexed": false,
          "internalType": "bool",
          "name": "lucky",
          "type": "bool"
        },
        {
          "indexed": false,
          "internalType": "bool",
          "name": "best",
          "type": "bool"
        },
        {
          "indexed": false,
          "internalType": "uint256",
          "name": "reward0",
          "type": "uint256"
        },
        {
          "indexed": false,
          "internalType": "uint256",
          "name": "reward1",
          "type": "uint256"
        }
      ],
      "name": "LuckyPoolClaim",
      "type": "event"
    },
    {
      "anonymous": false,
      "inputs": [
        {
          "indexed": false,
          "internalType": "uint256",
          "name": "luckyId",
          "type": "uint256"
        },
        {
          "indexed": false,
          "internalType": "uint256",
          "name": "countAt",
          "type": "uint256"
        },
        {
          "indexed": false,
          "internalType": "uint256",
          "name": "openAt",
          "type": "uint256"
        },
        {
          "indexed": false,
          "internalType": "uint256",
          "name": "finishAt",
          "type": "uint256"
        }
      ],
      "name": "LuckyPoolOpen",
      "type": "event"
    },
    {
      "anonymous": false,
      "inputs": [
        {
          "indexed": false,
          "internalType": "uint256",
          "name": "luckyId",
          "type": "uint256"
        },
        {
          "indexed": false,
          "internalType": "contract IKeplerPair",
          "name": "pair",
          "type": "address"
        },
        {
          "indexed": false,
          "internalType": "uint256",
          "name": "userNum",
          "type": "uint256"
        },
        {
          "indexed": false,
          "internalType": "uint256",
          "name": "reward0",
          "type": "uint256"
        },
        {
          "indexed": false,
          "internalType": "uint256",
          "name": "reward1",
          "type": "uint256"
        }
      ],
      "name": "LuckyPoolRewardInfo",
      "type": "event"
    },
    {
      "anonymous": false,
      "inputs": [
        {
          "indexed": true,
          "internalType": "address",
          "name": "previousOwner",
          "type": "address"
        },
        {
          "indexed": true,
          "internalType": "address",
          "name": "newOwner",
          "type": "address"
        }
      ],
      "name": "OwnershipTransferred",
      "type": "event"
    },
    {
      "inputs": [],
      "name": "BEST_WINER_NUM",
      "outputs": [
        {
          "internalType": "uint256",
          "name": "",
          "type": "uint256"
        }
      ],
      "stateMutability": "view",
      "type": "function"
    },
    {
      "inputs": [],
      "name": "CLAIM_WAIT",
      "outputs": [
        {
          "internalType": "uint256",
          "name": "",
          "type": "uint256"
        }
      ],
      "stateMutability": "view",
      "type": "function"
    },
    {
      "inputs": [],
      "name": "OPEN_WAIT",
      "outputs": [
        {
          "internalType": "uint256",
          "name": "",
          "type": "uint256"
        }
      ],
      "stateMutability": "view",
      "type": "function"
    },
    {
      "inputs": [],
      "name": "TOTAL_WINER_NUM",
      "outputs": [
        {
          "internalType": "uint256",
          "name": "",
          "type": "uint256"
        }
      ],
      "stateMutability": "view",
      "type": "function"
    },
    {
      "inputs": [],
      "name": "WINER_NUM",
      "outputs": [
        {
          "internalType": "uint256",
          "name": "",
          "type": "uint256"
        }
      ],
      "stateMutability": "view",
      "type": "function"
    },
    {
      "inputs": [
        {
          "internalType": "uint256",
          "name": "",
          "type": "uint256"
        },
        {
          "internalType": "contract IKeplerPair",
          "name": "",
          "type": "address"
        },
        {
          "internalType": "address",
          "name": "",
          "type": "address"
        }
      ],
      "name": "avaliableUsers",
      "outputs": [
        {
          "internalType": "bool",
          "name": "",
          "type": "bool"
        }
      ],
      "stateMutability": "view",
      "type": "function"
    },
    {
      "inputs": [],
      "name": "beginLuckyPool",
      "outputs": [],
      "stateMutability": "nonpayable",
      "type": "function"
    },
    {
      "inputs": [
        {
          "internalType": "contract IKeplerPair",
          "name": "pair",
          "type": "address"
        },
        {
          "internalType": "string",
          "name": "r",
          "type": "string"
        }
      ],
      "name": "claim",
      "outputs": [],
      "stateMutability": "nonpayable",
      "type": "function"
    },
    {
      "inputs": [],
      "name": "currentPoolId",
      "outputs": [
        {
          "internalType": "uint256",
          "name": "",
          "type": "uint256"
        }
      ],
      "stateMutability": "view",
      "type": "function"
    },
    {
      "inputs": [
        {
          "internalType": "contract IKeplerPair",
          "name": "_pair",
          "type": "address"
        },
        {
          "internalType": "address",
          "name": "_token",
          "type": "address"
        },
        {
          "internalType": "uint256",
          "name": "_amount",
          "type": "uint256"
        }
      ],
      "name": "doHardWork",
      "outputs": [],
      "stateMutability": "nonpayable",
      "type": "function"
    },
    {
      "inputs": [
        {
          "internalType": "uint256",
          "name": "",
          "type": "uint256"
        }
      ],
      "name": "luckyInfos",
      "outputs": [
        {
          "internalType": "uint256",
          "name": "beginAt",
          "type": "uint256"
        },
        {
          "internalType": "uint256",
          "name": "countAt",
          "type": "uint256"
        },
        {
          "internalType": "uint256",
          "name": "openAt",
          "type": "uint256"
        },
        {
          "internalType": "uint256",
          "name": "finishAt",
          "type": "uint256"
        },
        {
          "internalType": "uint256",
          "name": "luckyPairsNum",
          "type": "uint256"
        }
      ],
      "stateMutability": "view",
      "type": "function"
    },
    {
      "inputs": [
        {
          "internalType": "uint256",
          "name": "",
          "type": "uint256"
        },
        {
          "internalType": "contract IKeplerPair",
          "name": "",
          "type": "address"
        }
      ],
      "name": "luckyPairs",
      "outputs": [
        {
          "internalType": "bool",
          "name": "",
          "type": "bool"
        }
      ],
      "stateMutability": "view",
      "type": "function"
    },
    {
      "inputs": [
        {
          "internalType": "uint256",
          "name": "",
          "type": "uint256"
        },
        {
          "internalType": "contract IKeplerPair",
          "name": "",
          "type": "address"
        },
        {
          "internalType": "address",
          "name": "",
          "type": "address"
        }
      ],
      "name": "luckyUsers0",
      "outputs": [
        {
          "internalType": "uint256",
          "name": "",
          "type": "uint256"
        }
      ],
      "stateMutability": "view",
      "type": "function"
    },
    {
      "inputs": [
        {
          "internalType": "uint256",
          "name": "",
          "type": "uint256"
        },
        {
          "internalType": "contract IKeplerPair",
          "name": "",
          "type": "address"
        },
        {
          "internalType": "address",
          "name": "",
          "type": "address"
        }
      ],
      "name": "luckyUsers1",
      "outputs": [
        {
          "internalType": "uint256",
          "name": "",
          "type": "uint256"
        }
      ],
      "stateMutability": "view",
      "type": "function"
    },
    {
      "inputs": [
        {
          "internalType": "address[]",
          "name": "users",
          "type": "address[]"
        },
        {
          "internalType": "contract IKeplerPair[]",
          "name": "pairs",
          "type": "address[]"
        },
        {
          "internalType": "uint256[]",
          "name": "perPairNum",
          "type": "uint256[]"
        }
      ],
      "name": "openLuckyPool",
      "outputs": [],
      "stateMutability": "nonpayable",
      "type": "function"
    },
    {
      "inputs": [
        {
          "internalType": "uint256",
          "name": "",
          "type": "uint256"
        },
        {
          "internalType": "contract IKeplerPair",
          "name": "",
          "type": "address"
        },
        {
          "internalType": "address",
          "name": "",
          "type": "address"
        }
      ],
      "name": "openUsers",
      "outputs": [
        {
          "internalType": "bool",
          "name": "",
          "type": "bool"
        }
      ],
      "stateMutability": "view",
      "type": "function"
    },
    {
      "inputs": [],
      "name": "owner",
      "outputs": [
        {
          "internalType": "address",
          "name": "",
          "type": "address"
        }
      ],
      "stateMutability": "view",
      "type": "function"
    },
    {
      "inputs": [],
      "name": "random",
      "outputs": [
        {
          "internalType": "contract IRandom",
          "name": "",
          "type": "address"
        }
      ],
      "stateMutability": "view",
      "type": "function"
    },
    {
      "inputs": [
        {
          "internalType": "contract IKeplerPair",
          "name": "",
          "type": "address"
        },
        {
          "internalType": "address",
          "name": "",
          "type": "address"
        }
      ],
      "name": "receiveAmounts",
      "outputs": [
        {
          "internalType": "uint256",
          "name": "",
          "type": "uint256"
        }
      ],
      "stateMutability": "view",
      "type": "function"
    },
    {
      "inputs": [],
      "name": "renounceOwnership",
      "outputs": [],
      "stateMutability": "nonpayable",
      "type": "function"
    },
    {
      "inputs": [
        {
          "internalType": "uint256",
          "name": "",
          "type": "uint256"
        },
        {
          "internalType": "contract IKeplerPair",
          "name": "",
          "type": "address"
        }
      ],
      "name": "rewardInfos",
      "outputs": [
        {
          "internalType": "uint256",
          "name": "avaliableUserNum",
          "type": "uint256"
        },
        {
          "internalType": "uint256",
          "name": "openUserNum",
          "type": "uint256"
        },
        {
          "internalType": "address",
          "name": "bestUser",
          "type": "address"
        },
        {
          "internalType": "uint256",
          "name": "luckyUserNum",
          "type": "uint256"
        },
        {
          "internalType": "uint256",
          "name": "reward0",
          "type": "uint256"
        },
        {
          "internalType": "uint256",
          "name": "reward1",
          "type": "uint256"
        }
      ],
      "stateMutability": "view",
      "type": "function"
    },
    {
      "inputs": [],
      "name": "rewardPoolId",
      "outputs": [
        {
          "internalType": "uint256",
          "name": "",
          "type": "uint256"
        }
      ],
      "stateMutability": "view",
      "type": "function"
    },
    {
      "inputs": [
        {
          "internalType": "contract IRandom",
          "name": "_random",
          "type": "address"
        }
      ],
      "name": "setRandom",
      "outputs": [],
      "stateMutability": "nonpayable",
      "type": "function"
    },
    {
      "inputs": [
        {
          "internalType": "address",
          "name": "newOwner",
          "type": "address"
        }
      ],
      "name": "transferOwnership",
      "outputs": [],
      "stateMutability": "nonpayable",
      "type": "function"
    }
  ],
  "transactionHash": "0xd55a3dd1c1b4ff4cdf7d515a343217a65a4b226516b06f71ed0d37f11159e811",
  "args": [
    "0x3CBE4F722C98A0fed7b9724fe5eBDeB59a5416c8"
  ],
  "solcInputHash": "79df23217798be468311a9a1f72d7e6c",
  "bytecode": "0x60806040523480156200001157600080fd5b50604051620027fb380380620027fb833981810160405260208110156200003757600080fd5b5051600062000045620000bb565b600080546001600160a01b0319166001600160a01b0383169081178255604051929350917f8be0079c531659141344cd1fd0a4f28419497f9722a3daafe3b4186f6b6457e0908290a350600980546001600160a01b0319166001600160a01b038316179055620000b4620000bf565b50620002cf565b3390565b620000c9620000bb565b6001600160a01b0316620000dc620002c0565b6001600160a01b03161462000138576040805162461bcd60e51b815260206004820181905260248201527f4f776e61626c653a2063616c6c6572206973206e6f7420746865206f776e6572604482015290519081900360640190fd5b600254156200017f57600280546000919060001981019081106200015857fe5b906000526020600020906005020190508060010154600014156200017d5750620002be565b505b6040805160a08101825242808252600060208084018281528486018381526060860184815260808701858152600280546001810182559681905297517f405787fa12a823e0f2b7631cc41b3ba8828b3321ca811111fa75cd3aa3bb5ace60059097029687015592517f405787fa12a823e0f2b7631cc41b3ba8828b3321ca811111fa75cd3aa3bb5acf86015590517f405787fa12a823e0f2b7631cc41b3ba8828b3321ca811111fa75cd3aa3bb5ad0850155517f405787fa12a823e0f2b7631cc41b3ba8828b3321ca811111fa75cd3aa3bb5ad1840155517f405787fa12a823e0f2b7631cc41b3ba8828b3321ca811111fa75cd3aa3bb5ad290920191909155915483516000199190910181529182015281517ff54544980c2cb53c7f24ba0544d0e589b21cfd823d23bb10dee28b6814b20b5c929181900390910190a15b565b6000546001600160a01b031690565b61251c80620002df6000396000f3fe608060405234801561001057600080fd5b50600436106101585760003560e01c8063a58ed781116100c3578063ebc5163b1161007c578063ebc5163b14610482578063ed3417911461048a578063ef4d768814610492578063f2fde38b1461049a578063f6d2f148146104c0578063fae03fff146105ce57610158565b8063a58ed781146102d1578063a8d95fb214610338578063ca9c0bad146103ec578063caab33ea14610412578063e814b1a714610446578063e83950681461047a57610158565b8063803f84df11610115578063803f84df14610247578063823eb50e1461024f57806388fee43b146102575780638da5cb5b1461028d57806396205de6146102955780639d1a48301461029d57610158565b806334d3b3451461015d5780635ec01e4d146101a55780636a0b4d0b146101c9578063715018a6146101d357806374010516146101db578063758496da1461021b575b600080fd5b6101916004803603606081101561017357600080fd5b508035906001600160a01b0360208201358116916040013516610616565b604080519115158252519081900360200190f35b6101ad61063c565b604080516001600160a01b039092168252519081900360200190f35b6101d161064b565b005b6101d1610831565b610209600480360360408110156101f157600080fd5b506001600160a01b03813581169160200135166108dd565b60408051918252519081900360200190f35b6101916004803603604081101561023157600080fd5b50803590602001356001600160a01b03166108fa565b61020961091a565b61020961091f565b6101d16004803603606081101561026d57600080fd5b506001600160a01b03813581169160208101359091169060400135610924565b6101ad610962565b610209610972565b610191600480360360608110156102b357600080fd5b508035906001600160a01b0360208201358116916040013516610a3d565b6102fd600480360360408110156102e757600080fd5b50803590602001356001600160a01b0316610a63565b6040805196875260208701959095526001600160a01b03909316858501526060850191909152608084015260a0830152519081900360c00190f35b6101d16004803603604081101561034e57600080fd5b6001600160a01b038235169190810190604081016020820135600160201b81111561037857600080fd5b82018360208201111561038a57600080fd5b803590602001918460018302840111600160201b831117156103ab57600080fd5b91908080601f016020809104026020016040519081016040528093929190818152602001838380828437600092019190915250929550610aaa945050505050565b6101d16004803603602081101561040257600080fd5b50356001600160a01b031661122e565b6102096004803603606081101561042857600080fd5b508035906001600160a01b03602082013581169160400135166112b2565b6102096004803603606081101561045c57600080fd5b508035906001600160a01b03602082013581169160400135166112d5565b6102096112f8565b6102096112fd565b610209611307565b61020961130e565b6101d1600480360360208110156104b057600080fd5b50356001600160a01b0316611313565b6101d1600480360360608110156104d657600080fd5b810190602081018135600160201b8111156104f057600080fd5b82018360208201111561050257600080fd5b803590602001918460208302840111600160201b8311171561052357600080fd5b919390929091602081019035600160201b81111561054057600080fd5b82018360208201111561055257600080fd5b803590602001918460208302840111600160201b8311171561057357600080fd5b919390929091602081019035600160201b81111561059057600080fd5b8201836020820111156105a257600080fd5b803590602001918460208302840111600160201b831117156105c357600080fd5b509092509050611415565b6105eb600480360360208110156105e457600080fd5b5035611eed565b6040805195865260208601949094528484019290925260608401526080830152519081900360a00190f35b600560209081526000938452604080852082529284528284209052825290205460ff1681565b6009546001600160a01b031681565b610653611f2e565b6001600160a01b0316610664610962565b6001600160a01b0316146106ad576040805162461bcd60e51b8152602060048201819052602482015260008051602061249d833981519152604482015290519081900360640190fd5b600254156106f057600280546000919060001981019081106106cb57fe5b906000526020600020906005020190508060010154600014156106ee575061082f565b505b6040805160a08101825242808252600060208084018281528486018381526060860184815260808701858152600280546001810182559681905297517f405787fa12a823e0f2b7631cc41b3ba8828b3321ca811111fa75cd3aa3bb5ace60059097029687015592517f405787fa12a823e0f2b7631cc41b3ba8828b3321ca811111fa75cd3aa3bb5acf86015590517f405787fa12a823e0f2b7631cc41b3ba8828b3321ca811111fa75cd3aa3bb5ad0850155517f405787fa12a823e0f2b7631cc41b3ba8828b3321ca811111fa75cd3aa3bb5ad1840155517f405787fa12a823e0f2b7631cc41b3ba8828b3321ca811111fa75cd3aa3bb5ad290920191909155915483516000199190910181529182015281517ff54544980c2cb53c7f24ba0544d0e589b21cfd823d23bb10dee28b6814b20b5c929181900390910190a15b565b610839611f2e565b6001600160a01b031661084a610962565b6001600160a01b031614610893576040805162461bcd60e51b8152602060048201819052602482015260008051602061249d833981519152604482015290519081900360640190fd5b600080546040516001600160a01b03909116907f8be0079c531659141344cd1fd0a4f28419497f9722a3daafe3b4186f6b6457e0908390a3600080546001600160a01b0319169055565b600160209081526000928352604080842090915290825290205481565b600360209081526000928352604080842090915290825290205460ff1681565b603c81565b600181565b61093082333084611f32565b6001600160a01b0392831660009081526001602090815260408083209490951682529290925291902080549091019055565b6000546001600160a01b03165b90565b6002546000906000199015610a34576002805460009190600019810190811061099757fe5b9060005260206000209060050201905060016002805490501180156109be57506001810154155b156109f4576002805460011981019081106109d557fe5b90600052602060002090600502019050600280805490500391506109fe565b6002546000190191505b600281015415801590610a15575042816002015411155b8015610a25575042816003015410155b15610a325750905061096f565b505b60001991505090565b600660209081526000938452604080852082529284528284209052825290205460ff1681565b60046020818152600093845260408085209091529183529120805460018201546002830154600384015494840154600590940154929491936001600160a01b039091169286565b610ab333611f92565b15610afe576040805162461bcd60e51b8152602060048201526016602482015275636f6e74726163742063616e206e6f7420636c61696d60501b604482015290519081900360640190fd5b6000610b08610972565b9050600060028281548110610b1957fe5b600091825260208083208584526004825260408085206001600160a01b038a168652909252922060026005909202909201908101549092504210801590610b64575081600301544211155b610baa576040805162461bcd60e51b81526020600482015260126024820152716e6f74207468652072696768742074696d6560701b604482015290519081900360640190fd5b60008381526005602090815260408083206001600160a01b0389168452825280832033845290915290205460ff16610c21576040805162461bcd60e51b8152602060048201526015602482015274191bc81b9bdd081a185d99481d1a19481c9a59da1d605a1b604482015290519081900360640190fd5b60008381526006602090815260408083206001600160a01b0389168452825280832033845290915290205460ff1615610c92576040805162461bcd60e51b815260206004820152600e60248201526d185b1c9958591e481bdc195b995960921b604482015290519081900360640190fd5b600381015460018201548254600092600b0391900311610cb457506001610db0565b6003820154600b11610cc857506000610db0565b600954604080516312b6680360e01b8152600560248201819052600482019283528851604483015288516000946001600160a01b0316936312b66803938b939282916064019060208601908083838c5b83811015610d30578181015183820152602001610d18565b50505050905090810190601f168015610d5d5780820380516001836020036101000a031916815260200191505b509350505050602060405180830381600087803b158015610d7d57600080fd5b505af1158015610d91573d6000803e3d6000fd5b505050506040513d6020811015610da757600080fd5b50516001149150505b60008481526006602090815260408083206001600160a01b038a16845282528083203384529091529020805460ff191660019081179091558281018054909101905580610e6457604080518581523360208201526001600160a01b03881681830152821515606082015260006080820181905260a0820181905260c082015290517f902a1cdcb2a7b36dddcd624ec6d6ed136255bc56a5d4540cb75ac3f6898deb259181900360e00190a15050505061122a565b600382018054600101905560028201546000906001600160a01b0316158015610e91575060028360030154115b15610e9a575060015b6000808215610ee1576004850154610eb3906002611f98565b6005860154909250610ec6906002611f98565b6002860180546001600160a01b031916331790559050610f26565b610f04600a610efe60028860040154611f9890919063ffffffff16565b90611f98565b9150610f23600a610efe60028860050154611f9890919063ffffffff16565b90505b60008781526007602090815260408083206001600160a01b038d16808552908352818420338086529084528285208790558b8552600884528285209185529083528184209084529091529020819055811561109957610fea896001600160a01b0316630dfe16816040518163ffffffff1660e01b815260040160206040518083038186803b158015610fb757600080fd5b505afa158015610fcb573d6000803e3d6000fd5b505050506040513d6020811015610fe157600080fd5b50513384611fff565b81600160008b6001600160a01b03166001600160a01b0316815260200190815260200160002060008b6001600160a01b0316630dfe16816040518163ffffffff1660e01b815260040160206040518083038186803b15801561104b57600080fd5b505afa15801561105f573d6000803e3d6000fd5b505050506040513d602081101561107557600080fd5b50516001600160a01b03168152602081019190915260400160002080549190910390555b80156111bd5761110e896001600160a01b031663d21220a76040518163ffffffff1660e01b815260040160206040518083038186803b1580156110db57600080fd5b505afa1580156110ef573d6000803e3d6000fd5b505050506040513d602081101561110557600080fd5b50513383611fff565b80600160008b6001600160a01b03166001600160a01b0316815260200190815260200160002060008b6001600160a01b031663d21220a76040518163ffffffff1660e01b815260040160206040518083038186803b15801561116f57600080fd5b505afa158015611183573d6000803e3d6000fd5b505050506040513d602081101561119957600080fd5b50516001600160a01b03168152602081019190915260400160002080549190910390555b604080518881523360208201526001600160a01b038b16818301528515156060820152841515608082015260a0810184905260c0810183905290517f902a1cdcb2a7b36dddcd624ec6d6ed136255bc56a5d4540cb75ac3f6898deb259181900360e00190a1505050505050505b5050565b611236611f2e565b6001600160a01b0316611247610962565b6001600160a01b031614611290576040805162461bcd60e51b8152602060048201819052602482015260008051602061249d833981519152604482015290519081900360640190fd5b600980546001600160a01b0319166001600160a01b0392909216919091179055565b600860209081526000938452604080852082529284528284209052825290205481565b600760209081526000938452604080852082529284528284209052825290205481565b600b81565b6002546000190190565b6203f48081565b600a81565b61131b611f2e565b6001600160a01b031661132c610962565b6001600160a01b031614611375576040805162461bcd60e51b8152602060048201819052602482015260008051602061249d833981519152604482015290519081900360640190fd5b6001600160a01b0381166113ba5760405162461bcd60e51b81526004018080602001828103825260268152602001806124516026913960400191505060405180910390fd5b600080546040516001600160a01b03808516939216917f8be0079c531659141344cd1fd0a4f28419497f9722a3daafe3b4186f6b6457e091a3600080546001600160a01b0319166001600160a01b0392909216919091179055565b61141d611f2e565b6001600160a01b031661142e610962565b6001600160a01b031614611477576040805162461bcd60e51b8152602060048201819052602482015260008051602061249d833981519152604482015290519081900360640190fd5b61147f612421565b60025460001990156116595760028054600019810190811061149d57fe5b90600052602060002090600502016040518060a0016040529081600082015481526020016001820154815260200160028201548152602001600382015481526020016004820154815250509150600160028054905011801561150157506020820151155b156115745760028054600119810190811061151857fe5b90600052602060002090600502016040518060a00160405290816000820154815260200160018201548152602001600282015481526020016003820154815260200160048201548152505091506002808054905003905061157d565b50600254600019015b428260600151116115f35760028054600019810190811061159a57fe5b90600052602060002090600502016040518060a001604052908160008201548152602001600182015481526020016002820154815260200160038201548152602001600482015481525050915060016002805490500390505b60408201511580611608575042826040015110155b611659576040805162461bcd60e51b815260206004820152601760248201527f6c75636b7920706f6f6c20616c7265616479206f70656e000000000000000000604482015290519081900360640190fd5b6000198114156116a7576040805162461bcd60e51b8152602060048201526014602482015273363ab1b5bc903837b7b6103737ba103132b3b4b760611b604482015290519081900360640190fd5b8483146116ee576040805162461bcd60e51b815260206004820152601060248201526f696c6c6567616c2070616972206e756d60801b604482015290519081900360640190fd5b6000805b86811015611db6576000805b87878481811061170a57fe5b9050602002013581101561185457838b11611762576040805162461bcd60e51b81526020600482015260136024820152720d2d8d8cacec2d840eae6cae440d8cadccee8d606b1b604482015290519081900360640190fd5b60008c8c8681811061177057fe5b905060200201356001600160a01b0316905084806001019550506005600087815260200190815260200160002060008c8c878181106117ab57fe5b6001600160a01b0360209182029390930135831684528381019490945250604091820160009081209185168152925290205460ff1661184b5760008681526005602052604081206001918d8d8881811061180157fe5b6001600160a01b036020918202939093013583168452838101949094525060409182016000908120918616815292529020805491151560ff19909216919091179055600192909201915b506001016116fe565b508015611cdc57600084815260046020526040812082918b8b8681811061187757fe5b905060200201356001600160a01b03166001600160a01b03166001600160a01b0316815260200190815260200160002060000154016004600086815260200190815260200160002060008b8b868181106118cd57fe5b905060200201356001600160a01b03166001600160a01b03166001600160a01b0316815260200190815260200160002060000181905550600160008a8a8581811061191457fe5b905060200201356001600160a01b03166001600160a01b03166001600160a01b0316815260200190815260200160002060008a8a8581811061195257fe5b905060200201356001600160a01b03166001600160a01b0316630dfe16816040518163ffffffff1660e01b815260040160206040518083038186803b15801561199a57600080fd5b505afa1580156119ae573d6000803e3d6000fd5b505050506040513d60208110156119c457600080fd5b50516001600160a01b0316815260208181019290925260409081016000908120548782526004909352908120908b8b868181106119fd57fe5b905060200201356001600160a01b03166001600160a01b03166001600160a01b0316815260200190815260200160002060040181905550600160008a8a85818110611a4457fe5b905060200201356001600160a01b03166001600160a01b03166001600160a01b0316815260200190815260200160002060008a8a85818110611a8257fe5b905060200201356001600160a01b03166001600160a01b031663d21220a76040518163ffffffff1660e01b815260040160206040518083038186803b158015611aca57600080fd5b505afa158015611ade573d6000803e3d6000fd5b505050506040513d6020811015611af457600080fd5b50516001600160a01b0316815260208181019290925260409081016000908120548782526004909352908120908b8b86818110611b2d57fe5b905060200201356001600160a01b03166001600160a01b03166001600160a01b03168152602001908152602001600020600501819055507f6346157cec3517277c4432f0cadd5827afec2f2ae099467171840826032c419a848a8a85818110611b9257fe5b905060200201356001600160a01b03166004600088815260200190815260200160002060008d8d88818110611bc357fe5b905060200201356001600160a01b03166001600160a01b03166001600160a01b03168152602001908152602001600020600001546004600089815260200190815260200160002060008e8e89818110611c1857fe5b905060200201356001600160a01b03166001600160a01b03166001600160a01b0316815260200190815260200160002060040154600460008a815260200190815260200160002060008f8f8a818110611c6d57fe5b905060200201356001600160a01b03166001600160a01b03166001600160a01b031681526020019081526020016000206005015460405180868152602001856001600160a01b031681526020018481526020018381526020018281526020019550505050505060405180910390a15b6000848152600360205260408120908a8a85818110611cf757fe5b602090810292909201356001600160a01b03168352508101919091526040016000205460ff16611dad5760008481526003602052604081206001918b8b86818110611d3e57fe5b905060200201356001600160a01b03166001600160a01b03166001600160a01b0316815260200190815260200160002060006101000a81548160ff02191690831515021790555060028481548110611d9257fe5b60009182526020909120600460059092020101805460010190555b506001016116f2565b506020830151611ee2574260028381548110611dce57fe5b906000526020600020906005020160010181905550603c420160028381548110611df457fe5b9060005260206000209060050201600201819055506203f480420160028381548110611e1c57fe5b9060005260206000209060050201600301819055507f8ad0597611df84f6f628e0d5d1a1c2252c12e77db97b081825a8bc9968bdf3c18260028481548110611e6057fe5b90600052602060002090600502016001015460028581548110611e7f57fe5b90600052602060002090600502016002015460028681548110611e9e57fe5b9060005260206000209060050201600301546040518085815260200184815260200183815260200182815260200194505050505060405180910390a1611ee261064b565b505050505050505050565b60028181548110611efd57600080fd5b6000918252602090912060059091020180546001820154600283015460038401546004909401549294509092909185565b3390565b604080516001600160a01b0380861660248301528416604482015260648082018490528251808303909101815260849091019091526020810180516001600160e01b03166323b872dd60e01b179052611f8c908590612106565b50505050565b3b151590565b6000808211611fee576040805162461bcd60e51b815260206004820152601a60248201527f536166654d6174683a206469766973696f6e206279207a65726f000000000000604482015290519081900360640190fd5b818381611ff757fe5b049392505050565b6121018383856001600160a01b03166370a08231306040518263ffffffff1660e01b815260040180826001600160a01b0316815260200191505060206040518083038186803b15801561205157600080fd5b505afa158015612065573d6000803e3d6000fd5b505050506040513d602081101561207b57600080fd5b505184106120fa57604080516370a0823160e01b815230600482015290516001600160a01b038816916370a08231916024808301926020929190829003018186803b1580156120c957600080fd5b505afa1580156120dd573d6000803e3d6000fd5b505050506040513d60208110156120f357600080fd5b50516120fc565b835b6121b7565b505050565b600061215b826040518060400160405280602081526020017f5361666545524332303a206c6f772d6c6576656c2063616c6c206661696c6564815250856001600160a01b03166122099092919063ffffffff16565b8051909150156121015780806020019051602081101561217a57600080fd5b50516121015760405162461bcd60e51b815260040180806020018281038252602a8152602001806124bd602a913960400191505060405180910390fd5b604080516001600160a01b038416602482015260448082018490528251808303909101815260649091019091526020810180516001600160e01b031663a9059cbb60e01b179052612101908490612106565b60606122188484600085612222565b90505b9392505050565b6060824710156122635760405162461bcd60e51b81526004018080602001828103825260268152602001806124776026913960400191505060405180910390fd5b61226c85611f92565b6122bd576040805162461bcd60e51b815260206004820152601d60248201527f416464726573733a2063616c6c20746f206e6f6e2d636f6e7472616374000000604482015290519081900360640190fd5b600080866001600160a01b031685876040518082805190602001908083835b602083106122fb5780518252601f1990920191602091820191016122dc565b6001836020036101000a03801982511681845116808217855250505050505090500191505060006040518083038185875af1925050503d806000811461235d576040519150601f19603f3d011682016040523d82523d6000602084013e612362565b606091505b509150915061237282828661237d565b979650505050505050565b6060831561238c57508161221b565b82511561239c5782518084602001fd5b8160405162461bcd60e51b81526004018080602001828103825283818151815260200191508051906020019080838360005b838110156123e65781810151838201526020016123ce565b50505050905090810190601f1680156124135780820380516001836020036101000a031916815260200191505b509250505060405180910390fd5b6040518060a001604052806000815260200160008152602001600081526020016000815260200160008152509056fe4f776e61626c653a206e6577206f776e657220697320746865207a65726f2061646472657373416464726573733a20696e73756666696369656e742062616c616e636520666f722063616c6c4f776e61626c653a2063616c6c6572206973206e6f7420746865206f776e65725361666545524332303a204552433230206f7065726174696f6e20646964206e6f742073756363656564a2646970667358221220e2bbd87ec3156badf14aead1b4df97fe658f532799dfec44ceb6f95178a3b40864736f6c63430007060033",
  "devdoc": {
    "kind": "dev",
    "methods": {
      "owner()": {
        "details": "Returns the address of the current owner."
      },
      "renounceOwnership()": {
        "details": "Leaves the contract without owner. It will not be possible to call `onlyOwner` functions anymore. Can only be called by the current owner. NOTE: Renouncing ownership will leave the contract without an owner, thereby removing any functionality that is only available to the owner."
      },
      "transferOwnership(address)": {
        "details": "Transfers ownership of the contract to a new account (`newOwner`). Can only be called by the current owner."
      }
    },
    "version": 1
  },
  "userdoc": {
    "kind": "user",
    "methods": {},
    "version": 1
  },
  "storageLayout": {
    "storage": [
      {
        "astId": 7,
        "contract": "contracts/farm/LuckyPool.sol:LuckyPool",
        "label": "_owner",
        "offset": 0,
        "slot": "0",
        "type": "t_address"
      },
      {
        "astId": 4262,
        "contract": "contracts/farm/LuckyPool.sol:LuckyPool",
        "label": "receiveAmounts",
        "offset": 0,
        "slot": "1",
        "type": "t_mapping(t_contract(IKeplerPair)8624,t_mapping(t_address,t_uint256))"
      },
      {
        "astId": 4309,
        "contract": "contracts/farm/LuckyPool.sol:LuckyPool",
        "label": "luckyInfos",
        "offset": 0,
        "slot": "2",
        "type": "t_array(t_struct(LuckyInfo)4306_storage)dyn_storage"
      },
      {
        "astId": 4315,
        "contract": "contracts/farm/LuckyPool.sol:LuckyPool",
        "label": "luckyPairs",
        "offset": 0,
        "slot": "3",
        "type": "t_mapping(t_uint256,t_mapping(t_contract(IKeplerPair)8624,t_bool))"
      },
      {
        "astId": 4384,
        "contract": "contracts/farm/LuckyPool.sol:LuckyPool",
        "label": "rewardInfos",
        "offset": 0,
        "slot": "4",
        "type": "t_mapping(t_uint256,t_mapping(t_contract(IKeplerPair)8624,t_struct(RewardInfo)4378_storage))"
      },
      {
        "astId": 4392,
        "contract": "contracts/farm/LuckyPool.sol:LuckyPool",
        "label": "avaliableUsers",
        "offset": 0,
        "slot": "5",
        "type": "t_mapping(t_uint256,t_mapping(t_contract(IKeplerPair)8624,t_mapping(t_address,t_bool)))"
      },
      {
        "astId": 4400,
        "contract": "contracts/farm/LuckyPool.sol:LuckyPool",
        "label": "openUsers",
        "offset": 0,
        "slot": "6",
        "type": "t_mapping(t_uint256,t_mapping(t_contract(IKeplerPair)8624,t_mapping(t_address,t_bool)))"
      },
      {
        "astId": 4408,
        "contract": "contracts/farm/LuckyPool.sol:LuckyPool",
        "label": "luckyUsers0",
        "offset": 0,
        "slot": "7",
        "type": "t_mapping(t_uint256,t_mapping(t_contract(IKeplerPair)8624,t_mapping(t_address,t_uint256)))"
      },
      {
        "astId": 4416,
        "contract": "contracts/farm/LuckyPool.sol:LuckyPool",
        "label": "luckyUsers1",
        "offset": 0,
        "slot": "8",
        "type": "t_mapping(t_uint256,t_mapping(t_contract(IKeplerPair)8624,t_mapping(t_address,t_uint256)))"
      },
      {
        "astId": 4908,
        "contract": "contracts/farm/LuckyPool.sol:LuckyPool",
        "label": "random",
        "offset": 0,
        "slot": "9",
        "type": "t_contract(IRandom)9035"
      }
    ],
    "types": {
      "t_address": {
        "encoding": "inplace",
        "label": "address",
        "numberOfBytes": "20"
      },
      "t_array(t_struct(LuckyInfo)4306_storage)dyn_storage": {
        "base": "t_struct(LuckyInfo)4306_storage",
        "encoding": "dynamic_array",
        "label": "struct LuckyPool.LuckyInfo[]",
        "numberOfBytes": "32"
      },
      "t_bool": {
        "encoding": "inplace",
        "label": "bool",
        "numberOfBytes": "1"
      },
      "t_contract(IKeplerPair)8624": {
        "encoding": "inplace",
        "label": "contract IKeplerPair",
        "numberOfBytes": "20"
      },
      "t_contract(IRandom)9035": {
        "encoding": "inplace",
        "label": "contract IRandom",
        "numberOfBytes": "20"
      },
      "t_mapping(t_address,t_bool)": {
        "encoding": "mapping",
        "key": "t_address",
        "label": "mapping(address => bool)",
        "numberOfBytes": "32",
        "value": "t_bool"
      },
      "t_mapping(t_address,t_uint256)": {
        "encoding": "mapping",
        "key": "t_address",
        "label": "mapping(address => uint256)",
        "numberOfBytes": "32",
        "value": "t_uint256"
      },
      "t_mapping(t_contract(IKeplerPair)8624,t_bool)": {
        "encoding": "mapping",
        "key": "t_contract(IKeplerPair)8624",
        "label": "mapping(contract IKeplerPair => bool)",
        "numberOfBytes": "32",
        "value": "t_bool"
      },
      "t_mapping(t_contract(IKeplerPair)8624,t_mapping(t_address,t_bool))": {
        "encoding": "mapping",
        "key": "t_contract(IKeplerPair)8624",
        "label": "mapping(contract IKeplerPair => mapping(address => bool))",
        "numberOfBytes": "32",
        "value": "t_mapping(t_address,t_bool)"
      },
      "t_mapping(t_contract(IKeplerPair)8624,t_mapping(t_address,t_uint256))": {
        "encoding": "mapping",
        "key": "t_contract(IKeplerPair)8624",
        "label": "mapping(contract IKeplerPair => mapping(address => uint256))",
        "numberOfBytes": "32",
        "value": "t_mapping(t_address,t_uint256)"
      },
      "t_mapping(t_contract(IKeplerPair)8624,t_struct(RewardInfo)4378_storage)": {
        "encoding": "mapping",
        "key": "t_contract(IKeplerPair)8624",
        "label": "mapping(contract IKeplerPair => struct LuckyPool.RewardInfo)",
        "numberOfBytes": "32",
        "value": "t_struct(RewardInfo)4378_storage"
      },
      "t_mapping(t_uint256,t_mapping(t_contract(IKeplerPair)8624,t_bool))": {
        "encoding": "mapping",
        "key": "t_uint256",
        "label": "mapping(uint256 => mapping(contract IKeplerPair => bool))",
        "numberOfBytes": "32",
        "value": "t_mapping(t_contract(IKeplerPair)8624,t_bool)"
      },
      "t_mapping(t_uint256,t_mapping(t_contract(IKeplerPair)8624,t_mapping(t_address,t_bool)))": {
        "encoding": "mapping",
        "key": "t_uint256",
        "label": "mapping(uint256 => mapping(contract IKeplerPair => mapping(address => bool)))",
        "numberOfBytes": "32",
        "value": "t_mapping(t_contract(IKeplerPair)8624,t_mapping(t_address,t_bool))"
      },
      "t_mapping(t_uint256,t_mapping(t_contract(IKeplerPair)8624,t_mapping(t_address,t_uint256)))": {
        "encoding": "mapping",
        "key": "t_uint256",
        "label": "mapping(uint256 => mapping(contract IKeplerPair => mapping(address => uint256)))",
        "numberOfBytes": "32",
        "value": "t_mapping(t_contract(IKeplerPair)8624,t_mapping(t_address,t_uint256))"
      },
      "t_mapping(t_uint256,t_mapping(t_contract(IKeplerPair)8624,t_struct(RewardInfo)4378_storage))": {
        "encoding": "mapping",
        "key": "t_uint256",
        "label": "mapping(uint256 => mapping(contract IKeplerPair => struct LuckyPool.RewardInfo))",
        "numberOfBytes": "32",
        "value": "t_mapping(t_contract(IKeplerPair)8624,t_struct(RewardInfo)4378_storage)"
      },
      "t_struct(LuckyInfo)4306_storage": {
        "encoding": "inplace",
        "label": "struct LuckyPool.LuckyInfo",
        "members": [
          {
            "astId": 4297,
            "contract": "contracts/farm/LuckyPool.sol:LuckyPool",
            "label": "beginAt",
            "offset": 0,
            "slot": "0",
            "type": "t_uint256"
          },
          {
            "astId": 4299,
            "contract": "contracts/farm/LuckyPool.sol:LuckyPool",
            "label": "countAt",
            "offset": 0,
            "slot": "1",
            "type": "t_uint256"
          },
          {
            "astId": 4301,
            "contract": "contracts/farm/LuckyPool.sol:LuckyPool",
            "label": "openAt",
            "offset": 0,
            "slot": "2",
            "type": "t_uint256"
          },
          {
            "astId": 4303,
            "contract": "contracts/farm/LuckyPool.sol:LuckyPool",
            "label": "finishAt",
            "offset": 0,
            "slot": "3",
            "type": "t_uint256"
          },
          {
            "astId": 4305,
            "contract": "contracts/farm/LuckyPool.sol:LuckyPool",
            "label": "luckyPairsNum",
            "offset": 0,
            "slot": "4",
            "type": "t_uint256"
          }
        ],
        "numberOfBytes": "160"
      },
      "t_struct(RewardInfo)4378_storage": {
        "encoding": "inplace",
        "label": "struct LuckyPool.RewardInfo",
        "members": [
          {
            "astId": 4367,
            "contract": "contracts/farm/LuckyPool.sol:LuckyPool",
            "label": "avaliableUserNum",
            "offset": 0,
            "slot": "0",
            "type": "t_uint256"
          },
          {
            "astId": 4369,
            "contract": "contracts/farm/LuckyPool.sol:LuckyPool",
            "label": "openUserNum",
            "offset": 0,
            "slot": "1",
            "type": "t_uint256"
          },
          {
            "astId": 4371,
            "contract": "contracts/farm/LuckyPool.sol:LuckyPool",
            "label": "bestUser",
            "offset": 0,
            "slot": "2",
            "type": "t_address"
          },
          {
            "astId": 4373,
            "contract": "contracts/farm/LuckyPool.sol:LuckyPool",
            "label": "luckyUserNum",
            "offset": 0,
            "slot": "3",
            "type": "t_uint256"
          },
          {
            "astId": 4375,
            "contract": "contracts/farm/LuckyPool.sol:LuckyPool",
            "label": "reward0",
            "offset": 0,
            "slot": "4",
            "type": "t_uint256"
          },
          {
            "astId": 4377,
            "contract": "contracts/farm/LuckyPool.sol:LuckyPool",
            "label": "reward1",
            "offset": 0,
            "slot": "5",
            "type": "t_uint256"
          }
        ],
        "numberOfBytes": "192"
      },
      "t_uint256": {
        "encoding": "inplace",
        "label": "uint256",
        "numberOfBytes": "32"
      }
    }
  }
}