{
  "address": "0x7E1854545320f34a089416D665C1116556a884ac",
  "abi": [
    {
      "inputs": [
        {
          "internalType": "contract IUser",
          "name": "_user",
          "type": "address"
        },
        {
          "internalType": "address",
          "name": "_weth",
          "type": "address"
        }
      ],
      "stateMutability": "nonpayable",
      "type": "constructor"
    },
    {
      "anonymous": false,
      "inputs": [
        {
          "indexed": true,
          "internalType": "address",
          "name": "user",
          "type": "address"
        },
        {
          "indexed": true,
          "internalType": "address",
          "name": "inviter",
          "type": "address"
        },
        {
          "indexed": true,
          "internalType": "address",
          "name": "pair",
          "type": "address"
        },
        {
          "indexed": false,
          "internalType": "uint256",
          "name": "lockId",
          "type": "uint256"
        },
        {
          "indexed": false,
          "internalType": "uint256",
          "name": "amount",
          "type": "uint256"
        },
        {
          "indexed": false,
          "internalType": "uint256",
          "name": "shares",
          "type": "uint256"
        },
        {
          "indexed": false,
          "internalType": "uint256",
          "name": "lockType",
          "type": "uint256"
        }
      ],
      "name": "Deposit",
      "type": "event"
    },
    {
      "anonymous": false,
      "inputs": [
        {
          "indexed": false,
          "internalType": "uint256",
          "name": "snapshotId",
          "type": "uint256"
        }
      ],
      "name": "NewSnapshot",
      "type": "event"
    },
    {
      "anonymous": false,
      "inputs": [
        {
          "indexed": true,
          "internalType": "address",
          "name": "previousOwner",
          "type": "address"
        },
        {
          "indexed": true,
          "internalType": "address",
          "name": "newOwner",
          "type": "address"
        }
      ],
      "name": "OwnershipTransferred",
      "type": "event"
    },
    {
      "anonymous": false,
      "inputs": [
        {
          "indexed": true,
          "internalType": "address",
          "name": "user",
          "type": "address"
        },
        {
          "indexed": true,
          "internalType": "address",
          "name": "inviter",
          "type": "address"
        },
        {
          "indexed": true,
          "internalType": "address",
          "name": "pair",
          "type": "address"
        },
        {
          "indexed": false,
          "internalType": "uint256",
          "name": "lockId",
          "type": "uint256"
        },
        {
          "indexed": false,
          "internalType": "uint256",
          "name": "amount",
          "type": "uint256"
        },
        {
          "indexed": false,
          "internalType": "uint256",
          "name": "shares",
          "type": "uint256"
        },
        {
          "indexed": false,
          "internalType": "uint256",
          "name": "lockType",
          "type": "uint256"
        }
      ],
      "name": "Withdraw",
      "type": "event"
    },
    {
      "inputs": [],
      "name": "RATIO",
      "outputs": [
        {
          "internalType": "uint256",
          "name": "",
          "type": "uint256"
        }
      ],
      "stateMutability": "view",
      "type": "function"
    },
    {
      "inputs": [],
      "name": "WETH",
      "outputs": [
        {
          "internalType": "address",
          "name": "",
          "type": "address"
        }
      ],
      "stateMutability": "view",
      "type": "function"
    },
    {
      "inputs": [
        {
          "internalType": "contract IKeplerPair",
          "name": "_pair",
          "type": "address"
        },
        {
          "internalType": "address",
          "name": "_token",
          "type": "address"
        }
      ],
      "name": "claimInviteMine",
      "outputs": [],
      "stateMutability": "nonpayable",
      "type": "function"
    },
    {
      "inputs": [
        {
          "internalType": "contract IKeplerPair",
          "name": "_pair",
          "type": "address"
        },
        {
          "internalType": "address",
          "name": "_token",
          "type": "address"
        }
      ],
      "name": "claimMine",
      "outputs": [],
      "stateMutability": "nonpayable",
      "type": "function"
    },
    {
      "inputs": [
        {
          "internalType": "uint256",
          "name": "id",
          "type": "uint256"
        }
      ],
      "name": "createSnapshot",
      "outputs": [],
      "stateMutability": "nonpayable",
      "type": "function"
    },
    {
      "inputs": [],
      "name": "currentSnapshotId",
      "outputs": [
        {
          "internalType": "uint256",
          "name": "",
          "type": "uint256"
        }
      ],
      "stateMutability": "view",
      "type": "function"
    },
    {
      "inputs": [
        {
          "internalType": "contract IKeplerPair",
          "name": "_pair",
          "type": "address"
        },
        {
          "internalType": "uint256",
          "name": "_amount",
          "type": "uint256"
        },
        {
          "internalType": "uint256",
          "name": "_lockType",
          "type": "uint256"
        }
      ],
      "name": "deposit",
      "outputs": [],
      "stateMutability": "nonpayable",
      "type": "function"
    },
    {
      "inputs": [
        {
          "internalType": "contract IKeplerPair",
          "name": "_pair",
          "type": "address"
        },
        {
          "internalType": "uint256",
          "name": "_amount",
          "type": "uint256"
        },
        {
          "internalType": "uint256",
          "name": "_lockType",
          "type": "uint256"
        },
        {
          "internalType": "address",
          "name": "to",
          "type": "address"
        }
      ],
      "name": "depositFor",
      "outputs": [],
      "stateMutability": "nonpayable",
      "type": "function"
    },
    {
      "inputs": [
        {
          "internalType": "contract IKeplerPair",
          "name": "pair",
          "type": "address"
        },
        {
          "internalType": "contract IERC20",
          "name": "token",
          "type": "address"
        },
        {
          "internalType": "uint256",
          "name": "amount",
          "type": "uint256"
        }
      ],
      "name": "doInviteMiner",
      "outputs": [],
      "stateMutability": "nonpayable",
      "type": "function"
    },
    {
      "inputs": [
        {
          "internalType": "contract IKeplerPair",
          "name": "pair",
          "type": "address"
        },
        {
          "internalType": "contract IERC20",
          "name": "token",
          "type": "address"
        },
        {
          "internalType": "uint256",
          "name": "amount",
          "type": "uint256"
        }
      ],
      "name": "doMiner",
      "outputs": [],
      "stateMutability": "nonpayable",
      "type": "function"
    },
    {
      "inputs": [
        {
          "internalType": "contract IKeplerPair",
          "name": "_pair",
          "type": "address"
        }
      ],
      "name": "getInvitePoolInfo",
      "outputs": [
        {
          "internalType": "uint256",
          "name": "totalShares",
          "type": "uint256"
        },
        {
          "internalType": "uint256",
          "name": "token0AccPerShare",
          "type": "uint256"
        },
        {
          "internalType": "uint256",
          "name": "token1AccPerShare",
          "type": "uint256"
        }
      ],
      "stateMutability": "view",
      "type": "function"
    },
    {
      "inputs": [
        {
          "internalType": "contract IKeplerPair",
          "name": "_pair",
          "type": "address"
        },
        {
          "internalType": "address",
          "name": "_user",
          "type": "address"
        }
      ],
      "name": "getInviteUserInfo",
      "outputs": [
        {
          "internalType": "uint256",
          "name": "amount",
          "type": "uint256"
        },
        {
          "internalType": "uint256",
          "name": "shares",
          "type": "uint256"
        },
        {
          "internalType": "uint256",
          "name": "token0Debt",
          "type": "uint256"
        },
        {
          "internalType": "uint256",
          "name": "token1Debt",
          "type": "uint256"
        },
        {
          "internalType": "uint256",
          "name": "token0Pending",
          "type": "uint256"
        },
        {
          "internalType": "uint256",
          "name": "token1Pending",
          "type": "uint256"
        }
      ],
      "stateMutability": "view",
      "type": "function"
    },
    {
      "inputs": [
        {
          "internalType": "contract IKeplerPair",
          "name": "pair",
          "type": "address"
        },
        {
          "internalType": "address",
          "name": "inviter",
          "type": "address"
        }
      ],
      "name": "getInviterAmount",
      "outputs": [
        {
          "internalType": "uint256",
          "name": "",
          "type": "uint256"
        }
      ],
      "stateMutability": "view",
      "type": "function"
    },
    {
      "inputs": [
        {
          "internalType": "contract IKeplerPair",
          "name": "_pair",
          "type": "address"
        }
      ],
      "name": "getPoolInfo",
      "outputs": [
        {
          "internalType": "uint256",
          "name": "totalShares",
          "type": "uint256"
        },
        {
          "internalType": "uint256",
          "name": "token0AccPerShare",
          "type": "uint256"
        },
        {
          "internalType": "uint256",
          "name": "token1AccPerShare",
          "type": "uint256"
        }
      ],
      "stateMutability": "view",
      "type": "function"
    },
    {
      "inputs": [
        {
          "internalType": "uint256",
          "name": "lockType",
          "type": "uint256"
        }
      ],
      "name": "getType",
      "outputs": [
        {
          "internalType": "uint256",
          "name": "",
          "type": "uint256"
        },
        {
          "internalType": "uint256",
          "name": "",
          "type": "uint256"
        }
      ],
      "stateMutability": "pure",
      "type": "function"
    },
    {
      "inputs": [
        {
          "internalType": "contract IKeplerPair",
          "name": "pair",
          "type": "address"
        },
        {
          "internalType": "address",
          "name": "_user",
          "type": "address"
        },
        {
          "internalType": "uint256",
          "name": "lockType",
          "type": "uint256"
        }
      ],
      "name": "getUserAmount",
      "outputs": [
        {
          "internalType": "uint256",
          "name": "",
          "type": "uint256"
        }
      ],
      "stateMutability": "view",
      "type": "function"
    },
    {
      "inputs": [
        {
          "internalType": "contract IKeplerPair",
          "name": "_pair",
          "type": "address"
        },
        {
          "internalType": "address",
          "name": "_user",
          "type": "address"
        }
      ],
      "name": "getUserInfo",
      "outputs": [
        {
          "internalType": "uint256",
          "name": "amount",
          "type": "uint256"
        },
        {
          "internalType": "uint256",
          "name": "shares",
          "type": "uint256"
        },
        {
          "internalType": "uint256",
          "name": "token0Debt",
          "type": "uint256"
        },
        {
          "internalType": "uint256",
          "name": "token1Debt",
          "type": "uint256"
        },
        {
          "internalType": "uint256",
          "name": "token0Pending",
          "type": "uint256"
        },
        {
          "internalType": "uint256",
          "name": "token1Pending",
          "type": "uint256"
        }
      ],
      "stateMutability": "view",
      "type": "function"
    },
    {
      "inputs": [
        {
          "internalType": "address",
          "name": "pair",
          "type": "address"
        },
        {
          "internalType": "address",
          "name": "_user",
          "type": "address"
        }
      ],
      "name": "getUserSnapshot",
      "outputs": [
        {
          "internalType": "uint256",
          "name": "",
          "type": "uint256"
        }
      ],
      "stateMutability": "view",
      "type": "function"
    },
    {
      "inputs": [
        {
          "internalType": "contract IKeplerPair",
          "name": "",
          "type": "address"
        }
      ],
      "name": "inviterPoolInfo",
      "outputs": [
        {
          "internalType": "uint256",
          "name": "totalShares",
          "type": "uint256"
        },
        {
          "internalType": "uint256",
          "name": "token0AccPerShare",
          "type": "uint256"
        },
        {
          "internalType": "uint256",
          "name": "token1AccPerShare",
          "type": "uint256"
        },
        {
          "internalType": "bool",
          "name": "avaliable",
          "type": "bool"
        }
      ],
      "stateMutability": "view",
      "type": "function"
    },
    {
      "inputs": [
        {
          "internalType": "contract IKeplerPair",
          "name": "",
          "type": "address"
        },
        {
          "internalType": "address",
          "name": "",
          "type": "address"
        }
      ],
      "name": "inviterUserInfo",
      "outputs": [
        {
          "internalType": "uint256",
          "name": "amount",
          "type": "uint256"
        },
        {
          "internalType": "uint256",
          "name": "shares",
          "type": "uint256"
        },
        {
          "internalType": "uint256",
          "name": "token0Debt",
          "type": "uint256"
        },
        {
          "internalType": "uint256",
          "name": "token1Debt",
          "type": "uint256"
        },
        {
          "internalType": "uint256",
          "name": "token0Pending",
          "type": "uint256"
        },
        {
          "internalType": "uint256",
          "name": "token1Pending",
          "type": "uint256"
        }
      ],
      "stateMutability": "view",
      "type": "function"
    },
    {
      "inputs": [],
      "name": "owner",
      "outputs": [
        {
          "internalType": "address",
          "name": "",
          "type": "address"
        }
      ],
      "stateMutability": "view",
      "type": "function"
    },
    {
      "inputs": [
        {
          "internalType": "contract IKeplerPair",
          "name": "",
          "type": "address"
        }
      ],
      "name": "poolInfo",
      "outputs": [
        {
          "internalType": "uint256",
          "name": "totalShares",
          "type": "uint256"
        },
        {
          "internalType": "uint256",
          "name": "token0AccPerShare",
          "type": "uint256"
        },
        {
          "internalType": "uint256",
          "name": "token1AccPerShare",
          "type": "uint256"
        },
        {
          "internalType": "bool",
          "name": "avaliable",
          "type": "bool"
        }
      ],
      "stateMutability": "view",
      "type": "function"
    },
    {
      "inputs": [],
      "name": "renounceOwnership",
      "outputs": [],
      "stateMutability": "nonpayable",
      "type": "function"
    },
    {
      "inputs": [
        {
          "internalType": "address",
          "name": "_snapshotCreateCaller",
          "type": "address"
        }
      ],
      "name": "setSnapshotCreateCaller",
      "outputs": [],
      "stateMutability": "nonpayable",
      "type": "function"
    },
    {
      "inputs": [],
      "name": "snapshotCreateCaller",
      "outputs": [
        {
          "internalType": "address",
          "name": "",
          "type": "address"
        }
      ],
      "stateMutability": "view",
      "type": "function"
    },
    {
      "inputs": [
        {
          "internalType": "address",
          "name": "newOwner",
          "type": "address"
        }
      ],
      "name": "transferOwnership",
      "outputs": [],
      "stateMutability": "nonpayable",
      "type": "function"
    },
    {
      "inputs": [
        {
          "internalType": "contract IKeplerPair",
          "name": "",
          "type": "address"
        },
        {
          "internalType": "address",
          "name": "",
          "type": "address"
        }
      ],
      "name": "userInfo",
      "outputs": [
        {
          "internalType": "uint256",
          "name": "amount",
          "type": "uint256"
        },
        {
          "internalType": "uint256",
          "name": "shares",
          "type": "uint256"
        },
        {
          "internalType": "uint256",
          "name": "token0Debt",
          "type": "uint256"
        },
        {
          "internalType": "uint256",
          "name": "token1Debt",
          "type": "uint256"
        },
        {
          "internalType": "uint256",
          "name": "token0Pending",
          "type": "uint256"
        },
        {
          "internalType": "uint256",
          "name": "token1Pending",
          "type": "uint256"
        }
      ],
      "stateMutability": "view",
      "type": "function"
    },
    {
      "inputs": [
        {
          "internalType": "contract IKeplerPair",
          "name": "",
          "type": "address"
        },
        {
          "internalType": "address",
          "name": "",
          "type": "address"
        },
        {
          "internalType": "uint256",
          "name": "",
          "type": "uint256"
        }
      ],
      "name": "userLockInfo",
      "outputs": [
        {
          "internalType": "uint256",
          "name": "amount",
          "type": "uint256"
        },
        {
          "internalType": "uint256",
          "name": "shares",
          "type": "uint256"
        },
        {
          "internalType": "uint256",
          "name": "lockType",
          "type": "uint256"
        },
        {
          "internalType": "uint256",
          "name": "depositAt",
          "type": "uint256"
        },
        {
          "internalType": "uint256",
          "name": "expireAt",
          "type": "uint256"
        }
      ],
      "stateMutability": "view",
      "type": "function"
    },
    {
      "inputs": [
        {
          "internalType": "contract IKeplerPair",
          "name": "",
          "type": "address"
        },
        {
          "internalType": "address",
          "name": "",
          "type": "address"
        },
        {
          "internalType": "uint256",
          "name": "",
          "type": "uint256"
        }
      ],
      "name": "userLockTypeAmount",
      "outputs": [
        {
          "internalType": "uint256",
          "name": "",
          "type": "uint256"
        }
      ],
      "stateMutability": "view",
      "type": "function"
    },
    {
      "inputs": [
        {
          "internalType": "contract IKeplerPair",
          "name": "_pair",
          "type": "address"
        },
        {
          "internalType": "uint256",
          "name": "_lockId",
          "type": "uint256"
        }
      ],
      "name": "withdraw",
      "outputs": [],
      "stateMutability": "nonpayable",
      "type": "function"
    }
  ],
  "transactionHash": "0xadc72ef9e6da45263b42d744e5dc44f11cfff788e8e1cc6af839910efd5ed029",
  "args": [
    "0x9D51d0d1691F490619BA9d407b703a0e3067071F",
    "0xe050Ae07F1563CA30e65830b081C10fb21E9D0DB"
  ],
  "solcInputHash": "242b40143480c3f95a14b352a9b967fb",
  "bytecode": "0x60a06040523480156200001157600080fd5b5060405162003c1038038062003c10833981810160405260408110156200003757600080fd5b50805160209091015160006200004c620000cd565b600080546001600160a01b0319166001600160a01b0383169081178255604051929350917f8be0079c531659141344cd1fd0a4f28419497f9722a3daafe3b4186f6b6457e0908290a350600180546001600160a01b0319166001600160a01b03939093169290921790915560601b6001600160601b031916608052620000d1565b3390565b60805160601c613b0d62000103600039806117395280612297528061236052806124f252806125c05250613b0d6000f3fe608060405234801561001057600080fd5b50600436106101da5760003560e01c80638d32ccc211610104578063ad5c4648116100a2578063f2801fe711610071578063f2801fe714610682578063f2fde38b146106b0578063f3fef3a3146106d6578063f741198f14610702576101da565b8063ad5c4648146105e4578063ceb04d53146105ec578063cefbc49614610622578063ef3a217414610648576101da565b8063964f5517116100de578063964f551714610563578063970875ce146105805780639a7b5f1114610588578063a260988c146105ae576101da565b80638d32ccc2146104e75780638da5cb5b146105355780638f2a1e511461053d576101da565b80632526da0e1161017c5780633cb79e641161014b5780633cb79e641461046b5780634036ab78146104a157806359e741d2146104d7578063715018a6146104df576101da565b80632526da0e1461039957806329aaf873146103c75780632cae426b146103fd5780632d2d55eb1461043d576101da565b80630f208beb116101b85780630f208beb146102b8578063132f129f1461031957806315d68ed7146103475780631dcb47d414610375576101da565b806306bfa938146101df57806308cc72d8146102235780630efe6a8b14610284575b600080fd5b610205600480360360208110156101f557600080fd5b50356001600160a01b0316610730565b60408051938452602084019290925282820152519081900360600190f35b6102596004803603606081101561023957600080fd5b506001600160a01b03813581169160208101359091169060400135610785565b6040805195865260208601949094528484019290925260608401526080830152519081900360a00190f35b6102b66004803603606081101561029a57600080fd5b506001600160a01b0381351690602081013590604001356107c5565b005b6102e6600480360360408110156102ce57600080fd5b506001600160a01b03813581169160200135166107d6565b604080519687526020870195909552858501939093526060850191909152608084015260a0830152519081900360c00190f35b6102b66004803603604081101561032f57600080fd5b506001600160a01b0381358116916020013516610816565b6102b66004803603604081101561035d57600080fd5b506001600160a01b0381358116916020013516610b20565b61037d610d92565b604080516001600160a01b039092168252519081900360200190f35b6102e6600480360360408110156103af57600080fd5b506001600160a01b0381358116916020013516610da1565b6102b6600480360360608110156103dd57600080fd5b506001600160a01b03813581169160208101359091169060400135610de1565b61042b6004803603604081101561041357600080fd5b506001600160a01b0381358116916020013516611043565b60408051918252519081900360200190f35b61042b6004803603604081101561045357600080fd5b506001600160a01b0381358116916020013516611070565b6102b66004803603606081101561048157600080fd5b506001600160a01b03813581169160208101359091169060400135611130565b6104be600480360360208110156104b757600080fd5b503561137b565b6040805192835260208301919091528051918290030190f35b61042b61141a565b6102b6611426565b61050d600480360360208110156104fd57600080fd5b50356001600160a01b03166114e4565b6040805194855260208501939093528383019190915215156060830152519081900360800190f35b61037d61150e565b6102b66004803603602081101561055357600080fd5b50356001600160a01b031661151d565b6102b66004803603602081101561057957600080fd5b50356115b3565b61042b6116d1565b61050d6004803603602081101561059e57600080fd5b50356001600160a01b03166116d7565b61042b600480360360608110156105c457600080fd5b506001600160a01b03813581169160208101359091169060400135611701565b61037d611737565b61042b6004803603606081101561060257600080fd5b506001600160a01b0381358116916020810135909116906040013561175b565b6102056004803603602081101561063857600080fd5b50356001600160a01b031661177e565b6102b66004803603608081101561065e57600080fd5b506001600160a01b03813581169160208101359160408201359160600135166117d3565b6102e66004803603604081101561069857600080fd5b506001600160a01b0381358116916020013516611c81565b6102b6600480360360208110156106c657600080fd5b50356001600160a01b0316611cfd565b6102b6600480360360408110156106ec57600080fd5b506001600160a01b038135169060200135611e11565b6102e66004803603604081101561071857600080fd5b506001600160a01b038135811691602001351661289a565b6001600160a01b0316600090815260066020908152604091829020825160808101845281548082526001830154938201849052600283015494820185905260039092015460ff16151560609091015292909190565b6009602090815260009384526040808520825292845282842090528252902080546001820154600283015460038401546004909401549293919290919085565b6107d1838383336117d3565b505050565b6007602090815260009283526040808420909152908252902080546001820154600283015460038401546004850154600590950154939492939192909186565b6000826001600160a01b0316630dfe16816040518163ffffffff1660e01b815260040160206040518083038186803b15801561085157600080fd5b505afa158015610865573d6000803e3d6000fd5b505050506040513d602081101561087b57600080fd5b50516040805163d21220a760e01b815290519192506000916001600160a01b0386169163d21220a7916004808301926020929190829003018186803b1580156108c357600080fd5b505afa1580156108d7573d6000803e3d6000fd5b505050506040513d60208110156108ed57600080fd5b50516001600160a01b03851660009081526007602090815260408083203384529091529020549091508061092357505050610b1c565b826001600160a01b0316846001600160a01b03161415610a03576001600160a01b0385166000908152600b60209081526040808320600190810154600c84528285203386529093529220918201546002830154600490930154919290916109b0816109aa846109a4670de0b6b3a764000061099e8a8a612916565b9061296f565b906129d6565b90612a33565b94506109c8670de0b6b3a764000061099e8686612916565b6001600160a01b038a166000908152600c602090815260408083203384529091528120600281019290925560049091015550610b0d92505050565b816001600160a01b0316846001600160a01b03161415610ad0576001600160a01b0385166000908152600b6020908152604080832060020154600c835281842033855290925290912060018101546003820154600590920154909190610a7d816109aa846109a4670de0b6b3a764000061099e8a8a612916565b9450610a95670de0b6b3a764000061099e8686612916565b6001600160a01b038a166000908152600c602090815260408083203384529091528120600381019290925560059091015550610b0d92505050565b6040805162461bcd60e51b815260206004820152600d60248201526c34b63632b3b0b6103a37b5b2b760991b604482015290519081900360640190fd5b610b18843383612a8d565b5050505b5050565b6000826001600160a01b0316630dfe16816040518163ffffffff1660e01b815260040160206040518083038186803b158015610b5b57600080fd5b505afa158015610b6f573d6000803e3d6000fd5b505050506040513d6020811015610b8557600080fd5b50516040805163d21220a760e01b815290519192506000916001600160a01b0386169163d21220a7916004808301926020929190829003018186803b158015610bcd57600080fd5b505afa158015610be1573d6000803e3d6000fd5b505050506040513d6020811015610bf757600080fd5b5051905060006001600160a01b038481169084161415610cc5576001600160a01b038516600090815260066020908152604080832060019081015460078452828520338652909352922091820154600283015460049093015491929091610c72816109aa846109a4670de0b6b3a764000061099e8a8a612916565b9450610c8a670de0b6b3a764000061099e8686612916565b6001600160a01b038a1660009081526007602090815260408083203384529091528120600281019290925560049091015550610b0d92505050565b816001600160a01b0316846001600160a01b03161415610ad0576001600160a01b0385166000908152600660209081526040808320600201546007835281842033855290925290912060018101546003820154600590920154909190610d3f816109aa846109a4670de0b6b3a764000061099e8a8a612916565b9450610d57670de0b6b3a764000061099e8686612916565b6001600160a01b038a1660009081526007602090815260408083203384529091528120600381019290925560059091015550610b0d92505050565b6005546001600160a01b031681565b600c602090815260009283526040808420909152908252902080546001820154600283015460038401546004850154600590950154939492939192909186565b610dea83612adf565b6000836001600160a01b0316630dfe16816040518163ffffffff1660e01b815260040160206040518083038186803b158015610e2557600080fd5b505afa158015610e39573d6000803e3d6000fd5b505050506040513d6020811015610e4f57600080fd5b50516040805163d21220a760e01b815290519192506000916001600160a01b0387169163d21220a7916004808301926020929190829003018186803b158015610e9757600080fd5b505afa158015610eab573d6000803e3d6000fd5b505050506040513d6020811015610ec157600080fd5b505190506001600160a01b038481169083161480610ef05750806001600160a01b0316846001600160a01b0316145b610f31576040805162461bcd60e51b815260206004820152600d60248201526c34b63632b3b0b6103a37b5b2b760991b604482015290519081900360640190fd5b6001600160a01b0384811690831614610f4c85333087612b82565b6001600160a01b038616600090815260066020908152604091829020825160808101845281548082526001830154938201939093526002820154938101939093526003015460ff1615156060830152610fa857505050506107d1565b8115610ff6578051610fd590610fca9061099e88670de0b6b3a7640000612916565b602083015190612a33565b6001600160a01b03881660009081526006602052604090206001015561103a565b805161101d906110129061099e88670de0b6b3a7640000612916565b604083015190612a33565b6001600160a01b0388166000908152600660205260409020600201555b50505050505050565b6001600160a01b038083166000908152600c60209081526040808320938516835292905220545b92915050565b6000600254600014156110a957506001600160a01b0380831660009081526007602090815260408083209385168352929052205461106a565b6002546001600160a01b03808516600090815260036020908152604080832093871683529290522054141561110457506001600160a01b0380831660009081526004602090815260408083209385168352929052205461106a565b506001600160a01b0380831660009081526007602090815260408083209385168352929052205461106a565b61113983612adf565b6000836001600160a01b0316630dfe16816040518163ffffffff1660e01b815260040160206040518083038186803b15801561117457600080fd5b505afa158015611188573d6000803e3d6000fd5b505050506040513d602081101561119e57600080fd5b50516040805163d21220a760e01b815290519192506000916001600160a01b0387169163d21220a7916004808301926020929190829003018186803b1580156111e657600080fd5b505afa1580156111fa573d6000803e3d6000fd5b505050506040513d602081101561121057600080fd5b505190506001600160a01b03848116908316148061123f5750806001600160a01b0316846001600160a01b0316145b611280576040805162461bcd60e51b815260206004820152600d60248201526c34b63632b3b0b6103a37b5b2b760991b604482015290519081900360640190fd5b6001600160a01b038481169083161461129b85333087612b82565b6001600160a01b0386166000908152600b6020908152604091829020825160808101845281548082526001830154938201939093526002820154938101939093526003015460ff16151560608301526112f757505050506107d1565b811561133a57805161131990610fca9061099e88670de0b6b3a7640000612916565b6001600160a01b0388166000908152600b602052604090206001015561103a565b8051611356906110129061099e88670de0b6b3a7640000612916565b6001600160a01b0388166000908152600b602052604090206002015550505050505050565b6000808261138f5750600390506000611415565b82600114156113a65750600a905062278d00611415565b82600214156113bd5750600f90506276a700611415565b82600314156113d55750601e90506301da9c00611415565b6040805162461bcd60e51b815260206004820152601060248201526f696c6c6567616c206c6f636b5479706560801b604482015290519081900360640190fd5b915091565b670de0b6b3a764000081565b61142e612be2565b6001600160a01b031661143f61150e565b6001600160a01b03161461149a576040805162461bcd60e51b815260206004820181905260248201527f4f776e61626c653a2063616c6c6572206973206e6f7420746865206f776e6572604482015290519081900360640190fd5b600080546040516001600160a01b03909116907f8be0079c531659141344cd1fd0a4f28419497f9722a3daafe3b4186f6b6457e0908390a3600080546001600160a01b0319169055565b600b6020526000908152604090208054600182015460028301546003909301549192909160ff1684565b6000546001600160a01b031690565b611525612be2565b6001600160a01b031661153661150e565b6001600160a01b031614611591576040805162461bcd60e51b815260206004820181905260248201527f4f776e61626c653a2063616c6c6572206973206e6f7420746865206f776e6572604482015290519081900360640190fd5b600580546001600160a01b0319166001600160a01b0392909216919091179055565b6005546001600160a01b031633146115fc5760405162461bcd60e51b8152600401808060200182810382526025815260200180613a456025913960400191505060405180910390fd5b6002548111611647576040805162461bcd60e51b81526020600482015260126024820152711a5b1b1959d85b081cdb985c1cda1bdd125960721b604482015290519081900360640190fd5b6002546064018110611696576040805162461bcd60e51b8152602060048201526013602482015272736e617073686f7420696420746f6f2062696760681b604482015290519081900360640190fd5b60028190556040805182815290517f5d18a0a8930f7bf520ae0ed5fbc4db582b4b60c0c0d2a06a3dceaeedc10c61989181900360200190a150565b60025481565b60066020526000908152604090208054600182015460028301546003909301549192909160ff1684565b6001600160a01b038084166000908152600a602090815260408083209386168352928152828220848352905220545b9392505050565b7f000000000000000000000000000000000000000000000000000000000000000081565b600a60209081526000938452604080852082529284528284209052825290205481565b6001600160a01b03166000908152600b6020908152604091829020825160808101845281548082526001830154938201849052600283015494820185905260039092015460ff16151560609091015292909190565b6117de848285612be6565b6117e784612adf565b6000806117f38461137b565b6001600160a01b03808916600081815260066020908152604080832081516080808201845282548252600180840154838701526002808501548487015260039485015460ff16151560608086019190915298885260078752858820998f16885298865295849020845160c08101865281548152968101549587019590955296840154928501929092528201549383019390935260048101549382019390935260059092015460a08301529294509092506118af88868484612c79565b60006118bb8886612916565b905060008811611903576040805162461bcd60e51b815260206004820152600e60248201526d1a5b1b1959d85b08185b5bdd5b9d60921b604482015290519081900360640190fd5b61190f8933308b612b82565b6001600160a01b03808716600081815260086020908152604080832054948e168352600982528083209383529281528282208483529052208981556001808201849055600282018a9055426003830181905587016004830155611973908390612a33565b6001600160a01b0389166000908152600860209081526040909120919091558401516119fd576119a38b89612d90565b6001600160a01b03808c166000818152600c60209081526040808320948d16835293815283822060010154928252600b905291909120546119e391612a33565b6001600160a01b038c166000908152600b60205260409020555b8451611a099084612a33565b6001600160a01b038c16600090815260066020908152604090912091909155840151611a359084612a33565b6001600160a01b03808d166000908152600760209081526040808320938d16835292905220600101558351611a6a908b612a33565b6001600160a01b03808d166000908152600760209081526040808320938d168352928152919020919091558581015190850151611ac091670de0b6b3a76400009161099e9190611aba9088612a33565b90612916565b6001600160a01b03808d166000908152600760209081526040808320938d168352928152908290206002019290925586015190850151611b1391670de0b6b3a76400009161099e9190611aba9088612a33565b6001600160a01b03808d166000818152600760209081526040808320948e1680845294825280832060030195909555918152600a82528381209281529181528282208c835290522054611b66908b612a33565b6001600160a01b03808d166000908152600a60209081526040808320938d1683529281528282208d835290522055611ba0888c8c86612fe8565b6001546040805163774785bd60e11b81526001600160a01b038b811660048301529151828f16939092169163ee8f0b7a91602480820192602092909190829003018186803b158015611bf157600080fd5b505afa158015611c05573d6000803e3d6000fd5b505050506040513d6020811015611c1b57600080fd5b505160408051858152602081018e9052808201879052606081018d905290516001600160a01b03928316928c16917fee58b7a4a41f919b43841b7643761b258297cdd1aa967230d35bc23caf2b4f51919081900360800190a45050505050505050505050565b6001600160a01b039182166000908152600760209081526040808320939094168252918252829020825160c08101845281548082526001830154938201849052600283015494820185905260038301546060830181905260048401546080840181905260059094015460a0909301839052909593949390929190565b611d05612be2565b6001600160a01b0316611d1661150e565b6001600160a01b031614611d71576040805162461bcd60e51b815260206004820181905260248201527f4f776e61626c653a2063616c6c6572206973206e6f7420746865206f776e6572604482015290519081900360640190fd5b6001600160a01b038116611db65760405162461bcd60e51b81526004018080602001828103825260268152602001806139f96026913960400191505060405180910390fd5b600080546040516001600160a01b03808516939216917f8be0079c531659141344cd1fd0a4f28419497f9722a3daafe3b4186f6b6457e091a3600080546001600160a01b0319166001600160a01b0392909216919091179055565b6001600160a01b03821660009081526009602090815260408083203384528252808320848452825291829020825160a081018452815480825260018301549382019390935260028201549381019390935260038101546060840152600401546080830152611eb8576040805162461bcd60e51b815260206004820152600f60248201526e1a5b1b1959d85b081b1bd8dac81a59608a1b604482015290519081900360640190fd5b8060800151421015611f06576040805162461bcd60e51b81526020600482015260126024820152716e6f74207468652072696768742074696d6560701b604482015290519081900360640190fd5b6001600160a01b038316600081815260066020908152604080832081516080808201845282548252600180840154838701526002808501548487015260039485015460ff1615156060808601919091529888526007875285882033808a5290885297869020865160c081018852815480825293820154988101989098529081015495870195909552928401549685019690965260048301549584019590955260059091015460a08301529091611fbe91879190612be6565b611fca85338484612c79565b60208301518251611fda916129d6565b6001600160a01b038616600090815260066020908152604090912091909155838101519082015161200a916129d6565b6001600160a01b03861660009081526007602090815260408083203384529091529020600101558251815161203e916129d6565b6001600160a01b038616600081815260076020908152604080832033808552908352818420959095558751938352600a825280832094835293815283822087850151835290529190912054612092916129d6565b6001600160a01b0386166000908152600a60209081526040808320338452825280832087820151845282529091209190915583810151908201511415612131576120dc8533612d90565b6001600160a01b0385166000818152600c60209081526040808320338452825280832060010154938352600b909152902054612117916129d6565b6001600160a01b0386166000908152600b60205260409020555b8251156126be576000856001600160a01b0316630dfe16816040518163ffffffff1660e01b815260040160206040518083038186803b15801561217357600080fd5b505afa158015612187573d6000803e3d6000fd5b505050506040513d602081101561219d57600080fd5b50516040805163d21220a760e01b815290519192506000916001600160a01b0389169163d21220a7916004808301926020929190829003018186803b1580156121e557600080fd5b505afa1580156121f9573d6000803e3d6000fd5b505050506040513d602081101561220f57600080fd5b505185516040805163a9059cbb60e01b81526001600160a01b038b166004820181905260248201939093529051929350909163a9059cbb916044808201926020929091908290030181600087803b15801561226957600080fd5b505af115801561227d573d6000803e3d6000fd5b505050506040513d602081101561229357600080fd5b50507f00000000000000000000000000000000000000000000000000000000000000006001600160a01b0390811690831614156124f057600080886001600160a01b03166389afcb44306040518263ffffffff1660e01b815260040180826001600160a01b031681526020019150506040805180830381600087803b15801561231b57600080fd5b505af115801561232f573d6000803e3d6000fd5b505050506040513d604081101561234557600080fd5b508051602090910151909250905061235e833383612a8d565b7f00000000000000000000000000000000000000000000000000000000000000006001600160a01b0316632e1a7d4d836040518263ffffffff1660e01b815260040180828152602001915050600060405180830381600087803b1580156123c457600080fd5b505af11580156123d8573d6000803e3d6000fd5b506000925033915084905082805b506040519080825280601f01601f191660200182016040528015612411576020820181803683370190505b506040518082805190602001908083835b602083106124415780518252601f199092019160209182019101612422565b6001836020036101000a03801982511681845116808217855250505050505090500191505060006040518083038185875af1925050503d80600081146124a3576040519150601f19603f3d011682016040523d82523d6000602084013e6124a8565b606091505b50509050806124e85760405162461bcd60e51b8152600401808060200182810382526023815260200180613a8b6023913960400191505060405180910390fd5b5050506126bb565b7f00000000000000000000000000000000000000000000000000000000000000006001600160a01b0316816001600160a01b0316141561264a57600080886001600160a01b03166389afcb44306040518263ffffffff1660e01b815260040180826001600160a01b031681526020019150506040805180830381600087803b15801561257b57600080fd5b505af115801561258f573d6000803e3d6000fd5b505050506040513d60408110156125a557600080fd5b50805160209091015190925090506125be843384612a8d565b7f00000000000000000000000000000000000000000000000000000000000000006001600160a01b0316632e1a7d4d826040518263ffffffff1660e01b815260040180828152602001915050600060405180830381600087803b15801561262457600080fd5b505af1158015612638573d6000803e3d6000fd5b506000925033915083905082806123e6565b6040805163226bf2d160e21b815233600482015281516001600160a01b038a16926389afcb4492602480820193918290030181600087803b15801561268e57600080fd5b505af11580156126a2573d6000803e3d6000fd5b505050506040513d60408110156126b857600080fd5b50505b50505b82516020808501516001600160a01b0388166000908152600983526040808220338352845280822089835284528120818155600181018290556002810182905560038101829055600401558482015191840151909161272f91670de0b6b3a76400009161099e91611aba90866129d6565b6001600160a01b0388166000908152600760209081526040808320338452825291829020600201929092558501519084015161277e91670de0b6b3a76400009161099e9190611aba90866129d6565b6001600160a01b0388166000908152600760209081526040808320338085529252909120600301919091556127b5908884846132df565b6001546040805163774785bd60e11b815233600482015290516001600160a01b03808b1693169163ee8f0b7a916024808301926020929190829003018186803b15801561280157600080fd5b505afa158015612815573d6000803e3d6000fd5b505050506040513d602081101561282b57600080fd5b505186516020888101516040808b015181518d81529384019490945282810191909152606082019290925290516001600160a01b039092169133917fd91ccdd5cef3c2bca03dc0bf0b42adf67c0d34121e6476bff161091e0411c11c919081900360800190a450505050505050565b6001600160a01b039182166000908152600c60209081526040808320939094168252918252829020825160c08101845281548082526001830154938201849052600283015494820185905260038301546060830181905260048401546080840181905260059094015460a0909301839052909593949390929190565b6000826129255750600061106a565b8282028284828161293257fe5b04146117305760405162461bcd60e51b8152600401808060200182810382526021815260200180613a6a6021913960400191505060405180910390fd5b60008082116129c5576040805162461bcd60e51b815260206004820152601a60248201527f536166654d6174683a206469766973696f6e206279207a65726f000000000000604482015290519081900360640190fd5b8183816129ce57fe5b049392505050565b600082821115612a2d576040805162461bcd60e51b815260206004820152601e60248201527f536166654d6174683a207375627472616374696f6e206f766572666c6f770000604482015290519081900360640190fd5b50900390565b600082820183811015611730576040805162461bcd60e51b815260206004820152601b60248201527f536166654d6174683a206164646974696f6e206f766572666c6f770000000000604482015290519081900360640190fd5b604080516001600160a01b038416602482015260448082018490528251808303909101815260649091019091526020810180516001600160e01b031663a9059cbb60e01b1790526107d19084906135a6565b6001600160a01b03811660009081526006602052604090206003015460ff16151560011415612b0d57612b7f565b6001600160a01b03811660009081526006602090815260408083206003808201805460ff19166001908117909155600b90945291909320015460ff1615151415612b575750612b7f565b506001600160a01b0381166000908152600b60205260409020600301805460ff191660011790555b50565b604080516001600160a01b0380861660248301528416604482015260648082018490528251808303909101815260849091019091526020810180516001600160e01b03166323b872dd60e01b179052612bdc9085906135a6565b50505050565b3390565b600254612bf2576107d1565b6002546001600160a01b0380851660009081526003602090815260408083209387168352929052205410156107d157506001600160a01b039182166000818152600760209081526040808320949095168083529381528482205483835260048252858320858452825285832055600254928252600381528482209382529290925291902055565b602081015115612bdc576000612cac670de0b6b3a764000061099e8560200151856020015161291690919063ffffffff16565b9050612cd3612cc88360400151836129d690919063ffffffff16565b608084015190612a33565b6001600160a01b03868116600090815260076020908152604080832093891683529281528282206004810194909455600290930184905590850151918401519091612d2c91670de0b6b3a76400009161099e9190612916565b9050612d53612d488460600151836129d690919063ffffffff16565b60a085015190612a33565b6001600160a01b03968716600090815260076020908152604080832098909916825296909652959094206005810195909555505050600390910155565b6001600160a01b038083166000908152600c602090815260408083209385168352929052206001015415610b1c576001600160a01b038083166000818152600760209081526040808320948616808452948252808320600190810154948452600b8352818420810154600c8452828520968552959092528220015491929091612e2691670de0b6b3a76400009161099e91612916565b90508115612ebf576001600160a01b038085166000908152600c6020908152604080832093871683529290522060020154612e9590612e669083906129d6565b6001600160a01b038087166000908152600c602090815260408083209389168352929052206004015490612a33565b6001600160a01b038086166000908152600c60209081526040808320938816835292905220600401555b6001600160a01b038085166000818152600c602090815260408083209488168084528583528184206002808201899055958552600b845291842090940154938352939052600190920154612f2091670de0b6b3a76400009161099e91612916565b90508215612fb9576001600160a01b038086166000908152600c6020908152604080832093881683529290522060030154612f8f90612f609083906129d6565b6001600160a01b038088166000908152600c60209081526040808320938a168352929052206005015490612a33565b6001600160a01b038087166000908152600c60209081526040808320938916835292905220600501555b6001600160a01b038086166000908152600c602090815260408083209388168352929052206003015550505050565b6001546040805163774785bd60e11b81526001600160a01b0387811660048301529151600093929092169163ee8f0b7a91602480820192602092909190829003018186803b15801561303957600080fd5b505afa15801561304d573d6000803e3d6000fd5b505050506040513d602081101561306357600080fd5b505190506001600160a01b0381166130b5576040805162461bcd60e51b815260206004820152601060248201526f75736572206e6f74207265676973746560801b604482015290519081900360640190fd5b6001600160a01b038085166000818152600b6020908152604080832081516080808201845282548252600180840154838701526002808501548487015260039485015460ff161515606080860191909152988852600c8752858820998b16885298865295849020845160c08101865281548152968101549587019590955296840154928501929092528201549383019390935260048101549382019390935260059092015460a08301529061316c86848484613657565b831561103a576001600160a01b03808716600090815260076020908152604080832093871683529290522060010154156131c65781516131ac9085612a33565b6001600160a01b0387166000908152600b60205260409020555b60208101516131d59085612a33565b6001600160a01b038088166000908152600c6020908152604080832093881683529290522060010155805161320a9086612a33565b6001600160a01b038088166000908152600c60209081526040808320938816835292815291902091909155828101519082015161325a91670de0b6b3a76400009161099e9190611aba9089612a33565b6001600160a01b038088166000908152600c6020908152604080832093881683529281529082902060020192909255830151908201516132ad91670de0b6b3a76400009161099e9190611aba9089612a33565b6001600160a01b038088166000908152600c602090815260408083209388168352929052206003015550505050505050565b6001546040805163774785bd60e11b81526001600160a01b0387811660048301529151600093929092169163ee8f0b7a91602480820192602092909190829003018186803b15801561333057600080fd5b505afa158015613344573d6000803e3d6000fd5b505050506040513d602081101561335a57600080fd5b505190506001600160a01b0381166133ac576040805162461bcd60e51b815260206004820152601060248201526f75736572206e6f74207265676973746560801b604482015290519081900360640190fd5b6001600160a01b038085166000818152600b6020908152604080832081516080808201845282548252600180840154838701526002808501548487015260039485015460ff161515606080860191909152988852600c8752858820998b16885298865295849020845160c08101865281548152968101549587019590955296840154928501929092528201549383019390935260048101549382019390935260059092015460a08301529061346386848484613657565b8315613528576001600160a01b03808716600090815260076020908152604080832093871683529290522060010154156134bd5781516134a390856129d6565b6001600160a01b0387166000908152600b60205260409020555b60208101516134cc90856129d6565b6001600160a01b038088166000908152600c6020908152604080832093881683529290522060010155805161350190866129d6565b6001600160a01b038088166000908152600c60209081526040808320938816835292905220555b613553670de0b6b3a764000061099e8460200151611aba8886602001516129d690919063ffffffff16565b6001600160a01b038088166000908152600c6020908152604080832093881683529281529082902060020192909255830151908201516132ad91670de0b6b3a76400009161099e9190611aba90896129d6565b60006135fb826040518060400160405280602081526020017f5361666545524332303a206c6f772d6c6576656c2063616c6c206661696c6564815250856001600160a01b03166137dc9092919063ffffffff16565b8051909150156107d15780806020019051602081101561361a57600080fd5b50516107d15760405162461bcd60e51b815260040180806020018281038252602a815260200180613aae602a913960400191505060405180910390fd5b602081015115612bdc576001600160a01b038085166000908152600760209081526040808320938716835292815291812060010154848301519284015190926136ae91670de0b6b3a76400009161099e9190612916565b90508115613705576136db6136d08460400151836129d690919063ffffffff16565b608085015190612a33565b6001600160a01b038088166000908152600c60209081526040808320938a16835292905220600401555b6001600160a01b038087166000908152600c6020908152604080832093891683529281528282206002018490559186015191850151909161375491670de0b6b3a76400009161099e9190612916565b905082156137ab576137816137768560600151836129d690919063ffffffff16565b60a086015190612a33565b6001600160a01b038089166000908152600c60209081526040808320938b16835292905220600501555b6001600160a01b038088166000908152600c60209081526040808320938a1683529290522060030155505050505050565b60606137eb84846000856137f3565b949350505050565b6060824710156138345760405162461bcd60e51b8152600401808060200182810382526026815260200180613a1f6026913960400191505060405180910390fd5b61383d8561394e565b61388e576040805162461bcd60e51b815260206004820152601d60248201527f416464726573733a2063616c6c20746f206e6f6e2d636f6e7472616374000000604482015290519081900360640190fd5b600080866001600160a01b031685876040518082805190602001908083835b602083106138cc5780518252601f1990920191602091820191016138ad565b6001836020036101000a03801982511681845116808217855250505050505090500191505060006040518083038185875af1925050503d806000811461392e576040519150601f19603f3d011682016040523d82523d6000602084013e613933565b606091505b5091509150613943828286613954565b979650505050505050565b3b151590565b60608315613963575081611730565b8251156139735782518084602001fd5b8160405162461bcd60e51b81526004018080602001828103825283818151815260200191508051906020019080838360005b838110156139bd5781810151838201526020016139a5565b50505050905090810190601f1680156139ea5780820380516001836020036101000a031916815260200191505b509250505060405180910390fdfe4f776e61626c653a206e6577206f776e657220697320746865207a65726f2061646472657373416464726573733a20696e73756666696369656e742062616c616e636520666f722063616c6c6f6e6c7920736e617073686f7443726561746543616c6c65722063616e20646f2074686973536166654d6174683a206d756c7469706c69636174696f6e206f766572666c6f775472616e7366657248656c7065723a204554485f5452414e534645525f4641494c45445361666545524332303a204552433230206f7065726174696f6e20646964206e6f742073756363656564a26469706673582212206e594b7ec4116ce87eaa1a9a40c631f4f56c02f1602d32400855ea7a620230db64736f6c63430007060033",
  "devdoc": {
    "kind": "dev",
    "methods": {
      "owner()": {
        "details": "Returns the address of the current owner."
      },
      "renounceOwnership()": {
        "details": "Leaves the contract without owner. It will not be possible to call `onlyOwner` functions anymore. Can only be called by the current owner. NOTE: Renouncing ownership will leave the contract without an owner, thereby removing any functionality that is only available to the owner."
      },
      "transferOwnership(address)": {
        "details": "Transfers ownership of the contract to a new account (`newOwner`). Can only be called by the current owner."
      }
    },
    "version": 1
  },
  "userdoc": {
    "kind": "user",
    "methods": {},
    "version": 1
  },
  "storageLayout": {
    "storage": [
      {
        "astId": 7,
        "contract": "contracts/farm/MasterChef.sol:MasterChef",
        "label": "_owner",
        "offset": 0,
        "slot": "0",
        "type": "t_address"
      },
      {
        "astId": 5403,
        "contract": "contracts/farm/MasterChef.sol:MasterChef",
        "label": "user",
        "offset": 0,
        "slot": "1",
        "type": "t_contract(IUser)9173"
      },
      {
        "astId": 5407,
        "contract": "contracts/farm/MasterChef.sol:MasterChef",
        "label": "currentSnapshotId",
        "offset": 0,
        "slot": "2",
        "type": "t_uint256"
      },
      {
        "astId": 5413,
        "contract": "contracts/farm/MasterChef.sol:MasterChef",
        "label": "userSnapshotId",
        "offset": 0,
        "slot": "3",
        "type": "t_mapping(t_contract(IKeplerPair)8728,t_mapping(t_address,t_uint256))"
      },
      {
        "astId": 5419,
        "contract": "contracts/farm/MasterChef.sol:MasterChef",
        "label": "userSnapshotAmount",
        "offset": 0,
        "slot": "4",
        "type": "t_mapping(t_contract(IKeplerPair)8728,t_mapping(t_address,t_uint256))"
      },
      {
        "astId": 5421,
        "contract": "contracts/farm/MasterChef.sol:MasterChef",
        "label": "snapshotCreateCaller",
        "offset": 0,
        "slot": "5",
        "type": "t_address"
      },
      {
        "astId": 5461,
        "contract": "contracts/farm/MasterChef.sol:MasterChef",
        "label": "poolInfo",
        "offset": 0,
        "slot": "6",
        "type": "t_mapping(t_contract(IKeplerPair)8728,t_struct(PoolInfo)5457_storage)"
      },
      {
        "astId": 5467,
        "contract": "contracts/farm/MasterChef.sol:MasterChef",
        "label": "userInfo",
        "offset": 0,
        "slot": "7",
        "type": "t_mapping(t_contract(IKeplerPair)8728,t_mapping(t_address,t_struct(UserInfo)5448_storage))"
      },
      {
        "astId": 5471,
        "contract": "contracts/farm/MasterChef.sol:MasterChef",
        "label": "userMaxLockId",
        "offset": 0,
        "slot": "8",
        "type": "t_mapping(t_address,t_uint256)"
      },
      {
        "astId": 5479,
        "contract": "contracts/farm/MasterChef.sol:MasterChef",
        "label": "userLockInfo",
        "offset": 0,
        "slot": "9",
        "type": "t_mapping(t_contract(IKeplerPair)8728,t_mapping(t_address,t_mapping(t_uint256,t_struct(UserLockInfo)5435_storage)))"
      },
      {
        "astId": 5487,
        "contract": "contracts/farm/MasterChef.sol:MasterChef",
        "label": "userLockTypeAmount",
        "offset": 0,
        "slot": "10",
        "type": "t_mapping(t_contract(IKeplerPair)8728,t_mapping(t_address,t_mapping(t_uint256,t_uint256)))"
      },
      {
        "astId": 5491,
        "contract": "contracts/farm/MasterChef.sol:MasterChef",
        "label": "inviterPoolInfo",
        "offset": 0,
        "slot": "11",
        "type": "t_mapping(t_contract(IKeplerPair)8728,t_struct(PoolInfo)5457_storage)"
      },
      {
        "astId": 5497,
        "contract": "contracts/farm/MasterChef.sol:MasterChef",
        "label": "inviterUserInfo",
        "offset": 0,
        "slot": "12",
        "type": "t_mapping(t_contract(IKeplerPair)8728,t_mapping(t_address,t_struct(UserInfo)5448_storage))"
      }
    ],
    "types": {
      "t_address": {
        "encoding": "inplace",
        "label": "address",
        "numberOfBytes": "20"
      },
      "t_bool": {
        "encoding": "inplace",
        "label": "bool",
        "numberOfBytes": "1"
      },
      "t_contract(IKeplerPair)8728": {
        "encoding": "inplace",
        "label": "contract IKeplerPair",
        "numberOfBytes": "20"
      },
      "t_contract(IUser)9173": {
        "encoding": "inplace",
        "label": "contract IUser",
        "numberOfBytes": "20"
      },
      "t_mapping(t_address,t_mapping(t_uint256,t_struct(UserLockInfo)5435_storage))": {
        "encoding": "mapping",
        "key": "t_address",
        "label": "mapping(address => mapping(uint256 => struct MasterChef.UserLockInfo))",
        "numberOfBytes": "32",
        "value": "t_mapping(t_uint256,t_struct(UserLockInfo)5435_storage)"
      },
      "t_mapping(t_address,t_mapping(t_uint256,t_uint256))": {
        "encoding": "mapping",
        "key": "t_address",
        "label": "mapping(address => mapping(uint256 => uint256))",
        "numberOfBytes": "32",
        "value": "t_mapping(t_uint256,t_uint256)"
      },
      "t_mapping(t_address,t_struct(UserInfo)5448_storage)": {
        "encoding": "mapping",
        "key": "t_address",
        "label": "mapping(address => struct MasterChef.UserInfo)",
        "numberOfBytes": "32",
        "value": "t_struct(UserInfo)5448_storage"
      },
      "t_mapping(t_address,t_uint256)": {
        "encoding": "mapping",
        "key": "t_address",
        "label": "mapping(address => uint256)",
        "numberOfBytes": "32",
        "value": "t_uint256"
      },
      "t_mapping(t_contract(IKeplerPair)8728,t_mapping(t_address,t_mapping(t_uint256,t_struct(UserLockInfo)5435_storage)))": {
        "encoding": "mapping",
        "key": "t_contract(IKeplerPair)8728",
        "label": "mapping(contract IKeplerPair => mapping(address => mapping(uint256 => struct MasterChef.UserLockInfo)))",
        "numberOfBytes": "32",
        "value": "t_mapping(t_address,t_mapping(t_uint256,t_struct(UserLockInfo)5435_storage))"
      },
      "t_mapping(t_contract(IKeplerPair)8728,t_mapping(t_address,t_mapping(t_uint256,t_uint256)))": {
        "encoding": "mapping",
        "key": "t_contract(IKeplerPair)8728",
        "label": "mapping(contract IKeplerPair => mapping(address => mapping(uint256 => uint256)))",
        "numberOfBytes": "32",
        "value": "t_mapping(t_address,t_mapping(t_uint256,t_uint256))"
      },
      "t_mapping(t_contract(IKeplerPair)8728,t_mapping(t_address,t_struct(UserInfo)5448_storage))": {
        "encoding": "mapping",
        "key": "t_contract(IKeplerPair)8728",
        "label": "mapping(contract IKeplerPair => mapping(address => struct MasterChef.UserInfo))",
        "numberOfBytes": "32",
        "value": "t_mapping(t_address,t_struct(UserInfo)5448_storage)"
      },
      "t_mapping(t_contract(IKeplerPair)8728,t_mapping(t_address,t_uint256))": {
        "encoding": "mapping",
        "key": "t_contract(IKeplerPair)8728",
        "label": "mapping(contract IKeplerPair => mapping(address => uint256))",
        "numberOfBytes": "32",
        "value": "t_mapping(t_address,t_uint256)"
      },
      "t_mapping(t_contract(IKeplerPair)8728,t_struct(PoolInfo)5457_storage)": {
        "encoding": "mapping",
        "key": "t_contract(IKeplerPair)8728",
        "label": "mapping(contract IKeplerPair => struct MasterChef.PoolInfo)",
        "numberOfBytes": "32",
        "value": "t_struct(PoolInfo)5457_storage"
      },
      "t_mapping(t_uint256,t_struct(UserLockInfo)5435_storage)": {
        "encoding": "mapping",
        "key": "t_uint256",
        "label": "mapping(uint256 => struct MasterChef.UserLockInfo)",
        "numberOfBytes": "32",
        "value": "t_struct(UserLockInfo)5435_storage"
      },
      "t_mapping(t_uint256,t_uint256)": {
        "encoding": "mapping",
        "key": "t_uint256",
        "label": "mapping(uint256 => uint256)",
        "numberOfBytes": "32",
        "value": "t_uint256"
      },
      "t_struct(PoolInfo)5457_storage": {
        "encoding": "inplace",
        "label": "struct MasterChef.PoolInfo",
        "members": [
          {
            "astId": 5450,
            "contract": "contracts/farm/MasterChef.sol:MasterChef",
            "label": "totalShares",
            "offset": 0,
            "slot": "0",
            "type": "t_uint256"
          },
          {
            "astId": 5452,
            "contract": "contracts/farm/MasterChef.sol:MasterChef",
            "label": "token0AccPerShare",
            "offset": 0,
            "slot": "1",
            "type": "t_uint256"
          },
          {
            "astId": 5454,
            "contract": "contracts/farm/MasterChef.sol:MasterChef",
            "label": "token1AccPerShare",
            "offset": 0,
            "slot": "2",
            "type": "t_uint256"
          },
          {
            "astId": 5456,
            "contract": "contracts/farm/MasterChef.sol:MasterChef",
            "label": "avaliable",
            "offset": 0,
            "slot": "3",
            "type": "t_bool"
          }
        ],
        "numberOfBytes": "128"
      },
      "t_struct(UserInfo)5448_storage": {
        "encoding": "inplace",
        "label": "struct MasterChef.UserInfo",
        "members": [
          {
            "astId": 5437,
            "contract": "contracts/farm/MasterChef.sol:MasterChef",
            "label": "amount",
            "offset": 0,
            "slot": "0",
            "type": "t_uint256"
          },
          {
            "astId": 5439,
            "contract": "contracts/farm/MasterChef.sol:MasterChef",
            "label": "shares",
            "offset": 0,
            "slot": "1",
            "type": "t_uint256"
          },
          {
            "astId": 5441,
            "contract": "contracts/farm/MasterChef.sol:MasterChef",
            "label": "token0Debt",
            "offset": 0,
            "slot": "2",
            "type": "t_uint256"
          },
          {
            "astId": 5443,
            "contract": "contracts/farm/MasterChef.sol:MasterChef",
            "label": "token1Debt",
            "offset": 0,
            "slot": "3",
            "type": "t_uint256"
          },
          {
            "astId": 5445,
            "contract": "contracts/farm/MasterChef.sol:MasterChef",
            "label": "token0Pending",
            "offset": 0,
            "slot": "4",
            "type": "t_uint256"
          },
          {
            "astId": 5447,
            "contract": "contracts/farm/MasterChef.sol:MasterChef",
            "label": "token1Pending",
            "offset": 0,
            "slot": "5",
            "type": "t_uint256"
          }
        ],
        "numberOfBytes": "192"
      },
      "t_struct(UserLockInfo)5435_storage": {
        "encoding": "inplace",
        "label": "struct MasterChef.UserLockInfo",
        "members": [
          {
            "astId": 5426,
            "contract": "contracts/farm/MasterChef.sol:MasterChef",
            "label": "amount",
            "offset": 0,
            "slot": "0",
            "type": "t_uint256"
          },
          {
            "astId": 5428,
            "contract": "contracts/farm/MasterChef.sol:MasterChef",
            "label": "shares",
            "offset": 0,
            "slot": "1",
            "type": "t_uint256"
          },
          {
            "astId": 5430,
            "contract": "contracts/farm/MasterChef.sol:MasterChef",
            "label": "lockType",
            "offset": 0,
            "slot": "2",
            "type": "t_uint256"
          },
          {
            "astId": 5432,
            "contract": "contracts/farm/MasterChef.sol:MasterChef",
            "label": "depositAt",
            "offset": 0,
            "slot": "3",
            "type": "t_uint256"
          },
          {
            "astId": 5434,
            "contract": "contracts/farm/MasterChef.sol:MasterChef",
            "label": "expireAt",
            "offset": 0,
            "slot": "4",
            "type": "t_uint256"
          }
        ],
        "numberOfBytes": "160"
      },
      "t_uint256": {
        "encoding": "inplace",
        "label": "uint256",
        "numberOfBytes": "32"
      }
    }
  }
}