{
  "address": "0x2c5C2BB023dD96B96C05486D1c098F1E8ae23F82",
  "abi": [
    {
      "inputs": [],
      "stateMutability": "nonpayable",
      "type": "constructor"
    },
    {
      "anonymous": false,
      "inputs": [
        {
          "indexed": false,
          "internalType": "address",
          "name": "user",
          "type": "address"
        },
        {
          "indexed": false,
          "internalType": "address",
          "name": "inviter",
          "type": "address"
        },
        {
          "indexed": false,
          "internalType": "uint256",
          "name": "timestamp",
          "type": "uint256"
        }
      ],
      "name": "NewUser",
      "type": "event"
    },
    {
      "inputs": [
        {
          "internalType": "address",
          "name": "",
          "type": "address"
        }
      ],
      "name": "inviteNum",
      "outputs": [
        {
          "internalType": "uint256",
          "name": "",
          "type": "uint256"
        }
      ],
      "stateMutability": "view",
      "type": "function"
    },
    {
      "inputs": [
        {
          "internalType": "address",
          "name": "",
          "type": "address"
        }
      ],
      "name": "inviter",
      "outputs": [
        {
          "internalType": "address",
          "name": "",
          "type": "address"
        }
      ],
      "stateMutability": "view",
      "type": "function"
    },
    {
      "inputs": [
        {
          "internalType": "address",
          "name": "_inviter",
          "type": "address"
        }
      ],
      "name": "registe",
      "outputs": [],
      "stateMutability": "nonpayable",
      "type": "function"
    },
    {
      "inputs": [
        {
          "internalType": "address",
          "name": "user",
          "type": "address"
        }
      ],
      "name": "userExists",
      "outputs": [
        {
          "internalType": "bool",
          "name": "",
          "type": "bool"
        }
      ],
      "stateMutability": "view",
      "type": "function"
    },
    {
      "inputs": [],
      "name": "userNum",
      "outputs": [
        {
          "internalType": "uint256",
          "name": "",
          "type": "uint256"
        }
      ],
      "stateMutability": "view",
      "type": "function"
    }
  ],
  "transactionHash": "0x82b8a7fe45feb53d50afc8b5b79f6356c2609a62fd28e05d4f4ff63e9e434df2",
  "args": [],
  "solcInputHash": "251284aae9794742e975b7948d7b4689",
  "bytecode": "0x608060405234801561001057600080fd5b506103ae806100206000396000f3fe608060405234801561001057600080fd5b50600436106100575760003560e01c80630e666e491461005c5780634867b94c14610096578063bbfc5d6e146100ce578063ee8f0b7a146100d6578063fb56a4ae14610118575b600080fd5b6100826004803603602081101561007257600080fd5b50356001600160a01b0316610140565b604080519115158252519081900360200190f35b6100bc600480360360208110156100ac57600080fd5b50356001600160a01b0316610160565b60408051918252519081900360200190f35b6100bc610172565b6100fc600480360360208110156100ec57600080fd5b50356001600160a01b0316610178565b604080516001600160a01b039092168252519081900360200190f35b61013e6004803603602081101561012e57600080fd5b50356001600160a01b0316610193565b005b6001600160a01b0390811660009081526020819052604090205416151590565b60016020526000908152604090205481565b60025481565b6000602081905290815260409020546001600160a01b031681565b336001600160a01b03821614156101f1576040805162461bcd60e51b815260206004820152601760248201527f63616e206e6f7420696e7669746520796f757273656c66000000000000000000604482015290519081900360640190fd5b6002541561025a576001600160a01b038181166000908152602081905260409020541661025a576040805162461bcd60e51b8152602060048201526012602482015271696e7669746572206e6f742065786973747360701b604482015290519081900360640190fd5b33600090815260208190526040902080546001600160a01b0319166001600160a01b038316179055600254610290906001610317565b6002556001600160a01b0381166000908152600160208190526040909120546102b891610317565b6001600160a01b038216600081815260016020908152604091829020939093558051338152928301919091524282820152517fdd9b7565a44d4d5aa13061190be9813637438e5107568c6ddce54711553e246e9181900360600190a150565b600082820183811015610371576040805162461bcd60e51b815260206004820152601b60248201527f536166654d6174683a206164646974696f6e206f766572666c6f770000000000604482015290519081900360640190fd5b939250505056fea264697066735822122075f8d7257bb54a12ee2b25574f7163cf0bd0a55124306ecb893a8d2c1ef7abab64736f6c63430007060033",
  "devdoc": {
    "kind": "dev",
    "methods": {},
    "version": 1
  },
  "userdoc": {
    "kind": "user",
    "methods": {},
    "version": 1
  },
  "storageLayout": {
    "storage": [
      {
        "astId": 15041,
        "contract": "contracts/user/User.sol:User",
        "label": "inviter",
        "offset": 0,
        "slot": "0",
        "type": "t_mapping(t_address,t_address)"
      },
      {
        "astId": 15045,
        "contract": "contracts/user/User.sol:User",
        "label": "inviteNum",
        "offset": 0,
        "slot": "1",
        "type": "t_mapping(t_address,t_uint256)"
      },
      {
        "astId": 15047,
        "contract": "contracts/user/User.sol:User",
        "label": "userNum",
        "offset": 0,
        "slot": "2",
        "type": "t_uint256"
      }
    ],
    "types": {
      "t_address": {
        "encoding": "inplace",
        "label": "address",
        "numberOfBytes": "20"
      },
      "t_mapping(t_address,t_address)": {
        "encoding": "mapping",
        "key": "t_address",
        "label": "mapping(address => address)",
        "numberOfBytes": "32",
        "value": "t_address"
      },
      "t_mapping(t_address,t_uint256)": {
        "encoding": "mapping",
        "key": "t_address",
        "label": "mapping(address => uint256)",
        "numberOfBytes": "32",
        "value": "t_uint256"
      },
      "t_uint256": {
        "encoding": "inplace",
        "label": "uint256",
        "numberOfBytes": "32"
      }
    }
  }
}