{
  "address": "0x30FAE26A3068f748955B5C5e20Bb96538e545905",
  "abi": [
    {
      "inputs": [
        {
          "internalType": "contract IUser",
          "name": "_user",
          "type": "address"
        },
        {
          "internalType": "contract IMasterChef",
          "name": "_masterChef",
          "type": "address"
        },
        {
          "internalType": "contract IKeplerPair",
          "name": "_pair",
          "type": "address"
        },
        {
          "internalType": "contract IERC20",
          "name": "_busd",
          "type": "address"
        },
        {
          "internalType": "contract IKeplerToken",
          "name": "_sds",
          "type": "address"
        },
        {
          "internalType": "contract IKeplerFactory",
          "name": "_factory",
          "type": "address"
        }
      ],
      "stateMutability": "nonpayable",
      "type": "constructor"
    },
    {
      "anonymous": false,
      "inputs": [
        {
          "indexed": false,
          "internalType": "address",
          "name": "creator",
          "type": "address"
        },
        {
          "indexed": false,
          "internalType": "string",
          "name": "title",
          "type": "string"
        },
        {
          "indexed": false,
          "internalType": "string",
          "name": "mainfest",
          "type": "string"
        },
        {
          "indexed": false,
          "internalType": "string",
          "name": "telegram",
          "type": "string"
        },
        {
          "indexed": false,
          "internalType": "uint256",
          "name": "timestamp",
          "type": "uint256"
        }
      ],
      "name": "NewCrycle",
      "type": "event"
    },
    {
      "anonymous": false,
      "inputs": [
        {
          "indexed": false,
          "internalType": "address",
          "name": "creator",
          "type": "address"
        },
        {
          "indexed": false,
          "internalType": "string",
          "name": "oldMainfest",
          "type": "string"
        },
        {
          "indexed": false,
          "internalType": "string",
          "name": "newMainfest",
          "type": "string"
        },
        {
          "indexed": false,
          "internalType": "uint256",
          "name": "timestamp",
          "type": "uint256"
        }
      ],
      "name": "NewMainfest",
      "type": "event"
    },
    {
      "anonymous": false,
      "inputs": [
        {
          "indexed": false,
          "internalType": "address",
          "name": "creator",
          "type": "address"
        },
        {
          "indexed": false,
          "internalType": "string",
          "name": "oldTelegram",
          "type": "string"
        },
        {
          "indexed": false,
          "internalType": "string",
          "name": "newTelegram",
          "type": "string"
        },
        {
          "indexed": false,
          "internalType": "uint256",
          "name": "timestamp",
          "type": "uint256"
        }
      ],
      "name": "NewTelegram",
      "type": "event"
    },
    {
      "anonymous": false,
      "inputs": [
        {
          "indexed": false,
          "internalType": "address",
          "name": "creator",
          "type": "address"
        },
        {
          "indexed": false,
          "internalType": "string",
          "name": "oldTitle",
          "type": "string"
        },
        {
          "indexed": false,
          "internalType": "string",
          "name": "newTitle",
          "type": "string"
        },
        {
          "indexed": false,
          "internalType": "uint256",
          "name": "timestamp",
          "type": "uint256"
        }
      ],
      "name": "NewTitle",
      "type": "event"
    },
    {
      "anonymous": false,
      "inputs": [
        {
          "indexed": false,
          "internalType": "address",
          "name": "user",
          "type": "address"
        },
        {
          "indexed": false,
          "internalType": "address",
          "name": "creator",
          "type": "address"
        },
        {
          "indexed": false,
          "internalType": "uint256",
          "name": "userNum",
          "type": "uint256"
        },
        {
          "indexed": false,
          "internalType": "uint256",
          "name": "timestamp",
          "type": "uint256"
        }
      ],
      "name": "NewUser",
      "type": "event"
    },
    {
      "anonymous": false,
      "inputs": [
        {
          "indexed": false,
          "internalType": "uint256",
          "name": "voteId",
          "type": "uint256"
        },
        {
          "indexed": false,
          "internalType": "address",
          "name": "user",
          "type": "address"
        },
        {
          "indexed": false,
          "internalType": "address",
          "name": "crycle",
          "type": "address"
        },
        {
          "indexed": false,
          "internalType": "uint256",
          "name": "num",
          "type": "uint256"
        },
        {
          "indexed": false,
          "internalType": "uint256",
          "name": "totalSended",
          "type": "uint256"
        },
        {
          "indexed": false,
          "internalType": "uint256",
          "name": "totalReceived",
          "type": "uint256"
        }
      ],
      "name": "NewVote",
      "type": "event"
    },
    {
      "anonymous": false,
      "inputs": [
        {
          "indexed": false,
          "internalType": "uint256",
          "name": "voteId",
          "type": "uint256"
        },
        {
          "indexed": false,
          "internalType": "uint256",
          "name": "beginAt",
          "type": "uint256"
        },
        {
          "indexed": false,
          "internalType": "uint256",
          "name": "countAt",
          "type": "uint256"
        },
        {
          "indexed": false,
          "internalType": "uint256",
          "name": "finishAt",
          "type": "uint256"
        },
        {
          "indexed": false,
          "internalType": "uint256",
          "name": "reward",
          "type": "uint256"
        }
      ],
      "name": "NewVoteInfo",
      "type": "event"
    },
    {
      "anonymous": false,
      "inputs": [
        {
          "indexed": true,
          "internalType": "address",
          "name": "previousOwner",
          "type": "address"
        },
        {
          "indexed": true,
          "internalType": "address",
          "name": "newOwner",
          "type": "address"
        }
      ],
      "name": "OwnershipTransferred",
      "type": "event"
    },
    {
      "inputs": [
        {
          "internalType": "uint256",
          "name": "timestamp",
          "type": "uint256"
        }
      ],
      "name": "DebugSetBeginAt",
      "outputs": [],
      "stateMutability": "nonpayable",
      "type": "function"
    },
    {
      "inputs": [
        {
          "internalType": "uint256",
          "name": "timestamp",
          "type": "uint256"
        }
      ],
      "name": "DebugSetCountAt",
      "outputs": [],
      "stateMutability": "nonpayable",
      "type": "function"
    },
    {
      "inputs": [
        {
          "internalType": "uint256",
          "name": "timestamp",
          "type": "uint256"
        }
      ],
      "name": "DebugSetFinishAt",
      "outputs": [],
      "stateMutability": "nonpayable",
      "type": "function"
    },
    {
      "inputs": [],
      "name": "MIN_INVITER_AMOUNT",
      "outputs": [
        {
          "internalType": "uint256",
          "name": "",
          "type": "uint256"
        }
      ],
      "stateMutability": "view",
      "type": "function"
    },
    {
      "inputs": [],
      "name": "MIN_LOCK_AMOUNT",
      "outputs": [
        {
          "internalType": "uint256",
          "name": "",
          "type": "uint256"
        }
      ],
      "stateMutability": "view",
      "type": "function"
    },
    {
      "inputs": [
        {
          "internalType": "address",
          "name": "creator",
          "type": "address"
        }
      ],
      "name": "addCrycle",
      "outputs": [],
      "stateMutability": "nonpayable",
      "type": "function"
    },
    {
      "inputs": [
        {
          "internalType": "contract IKeplerPair",
          "name": "pair",
          "type": "address"
        }
      ],
      "name": "addPair",
      "outputs": [],
      "stateMutability": "nonpayable",
      "type": "function"
    },
    {
      "inputs": [],
      "name": "busd",
      "outputs": [
        {
          "internalType": "contract IERC20",
          "name": "",
          "type": "address"
        }
      ],
      "stateMutability": "view",
      "type": "function"
    },
    {
      "inputs": [
        {
          "internalType": "address",
          "name": "_user",
          "type": "address"
        }
      ],
      "name": "canCreateCrycle",
      "outputs": [
        {
          "internalType": "bool",
          "name": "",
          "type": "bool"
        }
      ],
      "stateMutability": "view",
      "type": "function"
    },
    {
      "inputs": [
        {
          "internalType": "uint256",
          "name": "_voteId",
          "type": "uint256"
        },
        {
          "internalType": "address",
          "name": "_user",
          "type": "address"
        }
      ],
      "name": "claim",
      "outputs": [],
      "stateMutability": "nonpayable",
      "type": "function"
    },
    {
      "inputs": [
        {
          "internalType": "string",
          "name": "title",
          "type": "string"
        },
        {
          "internalType": "string",
          "name": "mainfest",
          "type": "string"
        },
        {
          "internalType": "string",
          "name": "telegram",
          "type": "string"
        }
      ],
      "name": "createCrycle",
      "outputs": [],
      "stateMutability": "nonpayable",
      "type": "function"
    },
    {
      "inputs": [
        {
          "internalType": "uint256",
          "name": "",
          "type": "uint256"
        },
        {
          "internalType": "address",
          "name": "",
          "type": "address"
        }
      ],
      "name": "crycleVote",
      "outputs": [
        {
          "internalType": "uint256",
          "name": "",
          "type": "uint256"
        }
      ],
      "stateMutability": "view",
      "type": "function"
    },
    {
      "inputs": [
        {
          "internalType": "address",
          "name": "",
          "type": "address"
        }
      ],
      "name": "crycles",
      "outputs": [
        {
          "internalType": "address",
          "name": "creator",
          "type": "address"
        },
        {
          "internalType": "string",
          "name": "title",
          "type": "string"
        },
        {
          "internalType": "string",
          "name": "mainfest",
          "type": "string"
        },
        {
          "internalType": "string",
          "name": "telegram",
          "type": "string"
        },
        {
          "internalType": "uint256",
          "name": "userNum",
          "type": "uint256"
        }
      ],
      "stateMutability": "view",
      "type": "function"
    },
    {
      "inputs": [
        {
          "internalType": "address[]",
          "name": "_crycles",
          "type": "address[]"
        }
      ],
      "name": "doCount",
      "outputs": [],
      "stateMutability": "nonpayable",
      "type": "function"
    },
    {
      "inputs": [
        {
          "internalType": "uint256",
          "name": "num",
          "type": "uint256"
        }
      ],
      "name": "doVote",
      "outputs": [],
      "stateMutability": "nonpayable",
      "type": "function"
    },
    {
      "inputs": [],
      "name": "factory",
      "outputs": [
        {
          "internalType": "contract IKeplerFactory",
          "name": "",
          "type": "address"
        }
      ],
      "stateMutability": "view",
      "type": "function"
    },
    {
      "inputs": [],
      "name": "getVoteId",
      "outputs": [
        {
          "internalType": "uint256",
          "name": "",
          "type": "uint256"
        }
      ],
      "stateMutability": "view",
      "type": "function"
    },
    {
      "inputs": [],
      "name": "masterChef",
      "outputs": [
        {
          "internalType": "contract IMasterChef",
          "name": "",
          "type": "address"
        }
      ],
      "stateMutability": "view",
      "type": "function"
    },
    {
      "inputs": [],
      "name": "owner",
      "outputs": [
        {
          "internalType": "address",
          "name": "",
          "type": "address"
        }
      ],
      "stateMutability": "view",
      "type": "function"
    },
    {
      "inputs": [
        {
          "internalType": "uint256",
          "name": "",
          "type": "uint256"
        }
      ],
      "name": "pairs",
      "outputs": [
        {
          "internalType": "contract IKeplerPair",
          "name": "",
          "type": "address"
        }
      ],
      "stateMutability": "view",
      "type": "function"
    },
    {
      "inputs": [
        {
          "internalType": "uint256",
          "name": "index",
          "type": "uint256"
        }
      ],
      "name": "removePair",
      "outputs": [],
      "stateMutability": "nonpayable",
      "type": "function"
    },
    {
      "inputs": [],
      "name": "renounceOwnership",
      "outputs": [],
      "stateMutability": "nonpayable",
      "type": "function"
    },
    {
      "inputs": [],
      "name": "sds",
      "outputs": [
        {
          "internalType": "contract IKeplerToken",
          "name": "",
          "type": "address"
        }
      ],
      "stateMutability": "view",
      "type": "function"
    },
    {
      "inputs": [
        {
          "internalType": "string",
          "name": "mainfest",
          "type": "string"
        }
      ],
      "name": "setMainfest",
      "outputs": [],
      "stateMutability": "nonpayable",
      "type": "function"
    },
    {
      "inputs": [
        {
          "internalType": "string",
          "name": "telegram",
          "type": "string"
        }
      ],
      "name": "setTelegram",
      "outputs": [],
      "stateMutability": "nonpayable",
      "type": "function"
    },
    {
      "inputs": [
        {
          "internalType": "string",
          "name": "title",
          "type": "string"
        }
      ],
      "name": "setTitle",
      "outputs": [],
      "stateMutability": "nonpayable",
      "type": "function"
    },
    {
      "inputs": [
        {
          "internalType": "uint256",
          "name": "beginAt",
          "type": "uint256"
        },
        {
          "internalType": "uint256",
          "name": "countAt",
          "type": "uint256"
        },
        {
          "internalType": "uint256",
          "name": "finishAt",
          "type": "uint256"
        }
      ],
      "name": "startVote",
      "outputs": [],
      "stateMutability": "nonpayable",
      "type": "function"
    },
    {
      "inputs": [
        {
          "internalType": "address",
          "name": "newOwner",
          "type": "address"
        }
      ],
      "name": "transferOwnership",
      "outputs": [],
      "stateMutability": "nonpayable",
      "type": "function"
    },
    {
      "inputs": [],
      "name": "user",
      "outputs": [
        {
          "internalType": "contract IUser",
          "name": "",
          "type": "address"
        }
      ],
      "stateMutability": "view",
      "type": "function"
    },
    {
      "inputs": [
        {
          "internalType": "address",
          "name": "",
          "type": "address"
        }
      ],
      "name": "userCrycle",
      "outputs": [
        {
          "internalType": "address",
          "name": "",
          "type": "address"
        }
      ],
      "stateMutability": "view",
      "type": "function"
    },
    {
      "inputs": [
        {
          "internalType": "uint256",
          "name": "",
          "type": "uint256"
        },
        {
          "internalType": "address",
          "name": "",
          "type": "address"
        }
      ],
      "name": "userVote",
      "outputs": [
        {
          "internalType": "uint256",
          "name": "",
          "type": "uint256"
        }
      ],
      "stateMutability": "view",
      "type": "function"
    },
    {
      "inputs": [
        {
          "internalType": "uint256",
          "name": "",
          "type": "uint256"
        }
      ],
      "name": "voteInfo",
      "outputs": [
        {
          "internalType": "uint256",
          "name": "beginAt",
          "type": "uint256"
        },
        {
          "internalType": "uint256",
          "name": "countAt",
          "type": "uint256"
        },
        {
          "internalType": "uint256",
          "name": "finishAt",
          "type": "uint256"
        },
        {
          "internalType": "uint256",
          "name": "reward",
          "type": "uint256"
        }
      ],
      "stateMutability": "view",
      "type": "function"
    },
    {
      "inputs": [
        {
          "internalType": "address",
          "name": "_user",
          "type": "address"
        }
      ],
      "name": "voteNum",
      "outputs": [
        {
          "internalType": "uint256",
          "name": "",
          "type": "uint256"
        }
      ],
      "stateMutability": "view",
      "type": "function"
    },
    {
      "inputs": [
        {
          "internalType": "uint256",
          "name": "",
          "type": "uint256"
        },
        {
          "internalType": "address",
          "name": "",
          "type": "address"
        }
      ],
      "name": "voteReward",
      "outputs": [
        {
          "internalType": "uint256",
          "name": "",
          "type": "uint256"
        }
      ],
      "stateMutability": "view",
      "type": "function"
    },
    {
      "inputs": [
        {
          "internalType": "uint256",
          "name": "",
          "type": "uint256"
        },
        {
          "internalType": "uint256",
          "name": "",
          "type": "uint256"
        }
      ],
      "name": "voteWiners",
      "outputs": [
        {
          "internalType": "address",
          "name": "",
          "type": "address"
        }
      ],
      "stateMutability": "view",
      "type": "function"
    }
  ],
  "transactionHash": "0x8e1e2c351242d36ae8a74df3072d881b25432a7912f17f8d743e74d274de0b8b",
  "args": [
    "0x1e4cbdbFd22e21C6e09Af5654ca9a66909fa8F38",
    "0x6dF88a93da170C07C26EF65772d3AfEc0551DDEB",
    "0x5035c6EC97C6691aeF53b8BA7485d202D9C74554",
    "0xc37091C04b3023fDCf292BDa563dE4914ae251C7",
    "0xBa88A299B180e92f04bD33D66fDD4F327E4F12a9",
    "0xe84FB572B1cBd40F82d6a239A0710719B9C38FB4"
  ],
  "solcInputHash": "d021aabbffeec1113ec2ea87e307e477",
  "bytecode": "0x60806040523480156200001157600080fd5b50604051620036cd380380620036cd833981810160405260c08110156200003757600080fd5b508051602082015160408301516060840151608085015160a090950151939492939192909160006200006862000150565b600080546001600160a01b0319166001600160a01b0383169081178255604051929350917f8be0079c531659141344cd1fd0a4f28419497f9722a3daafe3b4186f6b6457e0908290a350600180546001600160a01b03199081166001600160a01b03988916178255600280548216978916979097179096556003805491820181556000527fc2575a0e9e593c00f959f8c92f12db2869c3395a3b0502d05e2516446f71f85b0180548616948716949094179093556004805485169286169290921790915560058054841691851691909117905560068054909216921691909117905562000154565b3390565b61356980620001646000396000f3fe608060405234801561001057600080fd5b50600436106102115760003560e01c80638494ff3511610125578063c45a0155116100ad578063ddd5e1b21161007c578063ddd5e1b2146109fe578063e8e81fe414610a2a578063ede0c2c414610ace578063f2fde38b14610af4578063f738f16914610b1a57610211565b8063c45a0155146109ba578063d25dc833146109c2578063dc37596d146109ca578063dd764abf146109f657610211565b8063b1d52687116100f4578063b1d526871461090f578063b91ac78814610917578063be1f6bbe14610934578063bf9006f51461095a578063c2b7bbb61461099457610211565b80638494ff351461087e5780638da5cb5b146108c15780639670d309146108c95780639c87a5e9146108e657610211565b8063575a86b2116101a85780636bda1847116101775780636bda184714610602578063715018a61461062557806372910be01461062d5780637914d84f146106d1578063841bdf851461085257610211565b8063575a86b2146104065780635ba8f0411461040e578063687ceaa5146105bc5780636ac19326146105d657610211565b80633ca5b234116101e45780633ca5b234146103355780634a82f44f1461033d5780634f8632ba146103e157806356194882146103e957610211565b806311b475b714610216578063124258c6146102b9578063254068b0146102d65780632b42dc6214610318575b600080fd5b6102b76004803603602081101561022c57600080fd5b810190602081018135600160201b81111561024657600080fd5b82018360208201111561025857600080fd5b803590602001918460208302840111600160201b8311171561027957600080fd5b919080806020026020016040519081016040528093929190818152602001838360200280828437600092019190915250929550610b37945050505050565b005b6102b7600480360360208110156102cf57600080fd5b5035610cbc565b6102fc600480360360208110156102ec57600080fd5b50356001600160a01b0316610fc0565b604080516001600160a01b039092168252519081900360200190f35b6102b76004803603602081101561032e57600080fd5b5035610fdb565b6102fc611128565b6102b76004803603602081101561035357600080fd5b810190602081018135600160201b81111561036d57600080fd5b82018360208201111561037f57600080fd5b803590602001918460018302840111600160201b831117156103a057600080fd5b91908080601f016020809104026020016040519081016040528093929190818152602001838380828437600092019190915250929550611137945050505050565b6102fc6113c7565b6102b7600480360360208110156103ff57600080fd5b50356113d6565b6102fc611403565b6102b76004803603606081101561042457600080fd5b810190602081018135600160201b81111561043e57600080fd5b82018360208201111561045057600080fd5b803590602001918460018302840111600160201b8311171561047157600080fd5b91908080601f0160208091040260200160405190810160405280939291908181526020018383808284376000920191909152509295949360208101935035915050600160201b8111156104c357600080fd5b8201836020820111156104d557600080fd5b803590602001918460018302840111600160201b831117156104f657600080fd5b91908080601f0160208091040260200160405190810160405280939291908181526020018383808284376000920191909152509295949360208101935035915050600160201b81111561054857600080fd5b82018360208201111561055a57600080fd5b803590602001918460018302840111600160201b8311171561057b57600080fd5b91908080601f016020809104026020016040519081016040528093929190818152602001838380828437600092019190915250929550611412945050505050565b6105c46118a7565b60408051918252519081900360200190f35b6105c4600480360360408110156105ec57600080fd5b50803590602001356001600160a01b03166118b5565b6102fc6004803603604081101561061857600080fd5b50803590602001356118d2565b6102b761190a565b6102b76004803603602081101561064357600080fd5b810190602081018135600160201b81111561065d57600080fd5b82018360208201111561066f57600080fd5b803590602001918460018302840111600160201b8311171561069057600080fd5b91908080601f0160208091040260200160405190810160405280939291908181526020018383808284376000920191909152509295506119b6945050505050565b6106f7600480360360208110156106e757600080fd5b50356001600160a01b0316611ba0565b60405180866001600160a01b03168152602001806020018060200180602001858152602001848103845288818151815260200191508051906020019080838360005b83811015610751578181015183820152602001610739565b50505050905090810190601f16801561077e5780820380516001836020036101000a031916815260200191505b50848103835287518152875160209182019189019080838360005b838110156107b1578181015183820152602001610799565b50505050905090810190601f1680156107de5780820380516001836020036101000a031916815260200191505b50848103825286518152865160209182019188019080838360005b838110156108115781810151838201526020016107f9565b50505050905090810190601f16801561083e5780820380516001836020036101000a031916815260200191505b509850505050505050505060405180910390f35b6105c46004803603604081101561086857600080fd5b50803590602001356001600160a01b0316611d7c565b61089b6004803603602081101561089457600080fd5b5035611d99565b604080519485526020850193909352838301919091526060830152519081900360800190f35b6102fc611dd3565b6102b7600480360360208110156108df57600080fd5b5035611de2565b6102b7600480360360608110156108fc57600080fd5b5080359060208101359060400135611e0b565b6102fc612202565b6102fc6004803603602081101561092d57600080fd5b5035612211565b6102b76004803603602081101561094a57600080fd5b50356001600160a01b031661223b565b6109806004803603602081101561097057600080fd5b50356001600160a01b0316612498565b604080519115158252519081900360200190f35b6102b7600480360360208110156109aa57600080fd5b50356001600160a01b03166126d4565b6102fc612788565b6105c4612797565b6105c4600480360360408110156109e057600080fd5b50803590602001356001600160a01b031661279d565b6105c46127ba565b6102b760048036036040811015610a1457600080fd5b50803590602001356001600160a01b03166127c7565b6102b760048036036020811015610a4057600080fd5b810190602081018135600160201b811115610a5a57600080fd5b820183602082011115610a6c57600080fd5b803590602001918460018302840111600160201b83111715610a8d57600080fd5b91908080601f0160208091040260200160405190810160405280939291908181526020018383808284376000920191909152509295506128af945050505050565b6105c460048036036020811015610ae457600080fd5b50356001600160a01b0316612a9b565b6102b760048036036020811015610b0a57600080fd5b50356001600160a01b0316612e35565b6102b760048036036020811015610b3057600080fd5b5035612f37565b610b3f612f64565b6001600160a01b0316610b50611dd3565b6001600160a01b031614610b99576040805162461bcd60e51b81526020600482018190526024820152600080516020613514833981519152604482015290519081900360640190fd5b600d5480610ba75750610cb9565b6000600d6001830381548110610bb957fe5b90600052602060002090600402016040518060800160405290816000820154815260200160018201548152602001600282015481526020016003820154815250509050806020015142108015610c13575080604001514210155b15610c1f575050610cb9565b6000828152600b602090815260409091208451610c3e9286019061339c565b508251610c4c575050610cb9565b60005b8351811015610cb55783516060830151610c6891612f68565b600c60008581526020019081526020016000206000868481518110610c8957fe5b6020908102919091018101516001600160a01b0316825281019190915260400160002055600101610c4f565b5050505b50565b600d5480610d02576040805162461bcd60e51b815260206004820152600e60248201526d3b37ba32903737ba103132b3b4b760911b604482015290519081900360640190fd5b600d8054600091906000198101908110610d1857fe5b9060005260206000209060040201604051806080016040529081600082015481526020016001820154815260200160028201548152602001600382015481525050905080600001514210158015610d725750806020015142105b610db8576040805162461bcd60e51b81526020600482015260126024820152716e6f74207468652072696768742074696d6560701b604482015290519081900360640190fd5b336000908152600860205260409020546001600160a01b0316610e16576040805162461bcd60e51b8152602060048201526011602482015270696c6c6567616c207573657220766f746560781b604482015290519081900360640190fd5b6000828152600960209081526040808320338452909152902054610e3a9084612fd1565b60008381526009602090815260408083203380855290835281842094909455858352600a825280832093835260088252808320546001600160a01b031683529290522054610e889084612fd1565b6000838152600a602090815260408083203380855260088452828520546001600160a01b03168552925290912091909155610ec290612a9b565b60008381526009602090815260408083203384529091529020541115610f22576040805162461bcd60e51b815260206004820152601060248201526f696c6c6567616c20766f7465206e756d60801b604482015290519081900360640190fd5b3360008181526008602090815260408083205486845260098352818420858552835281842054878552600a84528285206001600160a01b039290921680865291845293829020548251888152938401959095528282015260608201879052608082019290925260a0810192909252517fa012c056dc4aa551964098e4b349968344504de66c1ea4b45922bb314b1675ad9181900360c00190a1505050565b6008602052600090815260409020546001600160a01b031681565b610fe3612f64565b6001600160a01b0316610ff4611dd3565b6001600160a01b03161461103d576040805162461bcd60e51b81526020600482018190526024820152600080516020613514833981519152604482015290519081900360640190fd5b6003548110611083576040805162461bcd60e51b815260206004820152600d60248201526c0d2d8d8cacec2d840d2dcc8caf609b1b604482015290519081900360640190fd5b600354600019018110156110f8576003805460001981019081106110a357fe5b600091825260209091200154600380546001600160a01b0390921691839081106110c957fe5b9060005260206000200160006101000a8154816001600160a01b0302191690836001600160a01b031602179055505b600380548061110357fe5b600082815260209020810160001990810180546001600160a01b031916905501905550565b6004546001600160a01b031681565b61040081511115611183576040805162461bcd60e51b81526020600482015260116024820152706d61696e6665737420746f6f206c6f6e6760781b604482015290519081900360640190fd5b336000908152600760205260409020546001600160a01b03166111e1576040805162461bcd60e51b8152602060048201526011602482015270637279636c65206e6f742063726561746560781b604482015290519081900360640190fd5b3360009081526007602090815260408083206002908101805483516001821615610100026000190190911692909204601f810185900485028301850190935282825290929091908301828280156112795780601f1061124e57610100808354040283529160200191611279565b820191906000526020600020905b81548152906001019060200180831161125c57829003601f168201915b505033600090815260076020908152604090912087519596506112a9956002909101945090870192509050613401565b507fc32ce3280087be10e89e1a0c4f66b18a8f603617213a05c5edfc6b7b95ecd7703382844260405180856001600160a01b031681526020018060200180602001848152602001838103835286818151815260200191508051906020019080838360005b8381101561132557818101518382015260200161130d565b50505050905090810190601f1680156113525780820380516001836020036101000a031916815260200191505b50838103825285518152855160209182019187019080838360005b8381101561138557818101518382015260200161136d565b50505050905090810190601f1680156113b25780820380516001836020036101000a031916815260200191505b50965050505050505060405180910390a15050565b6001546001600160a01b031681565b600d805482919060001981019081106113eb57fe5b90600052602060002090600402016001018190555050565b6002546001600160a01b031681565b60208351111561145a576040805162461bcd60e51b815260206004820152600e60248201526d7469746c6520746f6f206c6f6e6760901b604482015290519081900360640190fd5b610400825111156114a6576040805162461bcd60e51b81526020600482015260116024820152706d61696e6665737420746f6f206c6f6e6760781b604482015290519081900360640190fd5b610100815111156114f2576040805162461bcd60e51b81526020600482015260116024820152706d61696e6665737420746f6f206c6f6e6760781b604482015290519081900360640190fd5b6114fb33612498565b6115365760405162461bcd60e51b815260040180806020018281038252603a8152602001806134b9603a913960400191505060405180910390fd5b336000908152600760205260409020546001600160a01b031615611599576040805162461bcd60e51b8152602060048201526015602482015274616c72656164792063726561746520637279636c6560581b604482015290519081900360640190fd5b336000908152600860205260409020546001600160a01b0316156115f8576040805162461bcd60e51b8152602060048201526011602482015270616c726561647920696e20637279636c6560781b604482015290519081900360640190fd5b6040805160a081018252338082526020808301878152838501879052606084018690526000608085018190529283526007825293909120825181546001600160a01b0319166001600160a01b03909116178155925180519293926116629260018501920190613401565b506040820151805161167e916002840191602090910190613401565b506060820151805161169a916003840191602090910190613401565b5060809182015160049182015533600081815260086020908152604080832080546001600160a01b03191685179055600782529182902090930180546001019081905581518381529384019290925282810191909152426060830152517fcb73c1460b15b6069c2609fae376f35ea2eecd1294e08ef5ea486c5937fce865929181900390910190a17f51d49c93ef742f71593a550607ee2e5c5b6cdc701994abcbb6de57e979e6453c338484844260405180866001600160a01b03168152602001806020018060200180602001858152602001848103845288818151815260200191508051906020019080838360005b838110156117a257818101518382015260200161178a565b50505050905090810190601f1680156117cf5780820380516001836020036101000a031916815260200191505b50848103835287518152875160209182019189019080838360005b838110156118025781810151838201526020016117ea565b50505050905090810190601f16801561182f5780820380516001836020036101000a031916815260200191505b50848103825286518152865160209182019188019080838360005b8381101561186257818101518382015260200161184a565b50505050905090810190601f16801561188f5780820380516001836020036101000a031916815260200191505b509850505050505050505060405180910390a1505050565b69010f0cf064dd5920000081565b600c60209081526000928352604080842090915290825290205481565b600b60205281600052604060002081815481106118ee57600080fd5b6000918252602090912001546001600160a01b03169150829050565b611912612f64565b6001600160a01b0316611923611dd3565b6001600160a01b03161461196c576040805162461bcd60e51b81526020600482018190526024820152600080516020613514833981519152604482015290519081900360640190fd5b600080546040516001600160a01b03909116907f8be0079c531659141344cd1fd0a4f28419497f9722a3daafe3b4186f6b6457e0908390a3600080546001600160a01b0319169055565b6020815111156119fe576040805162461bcd60e51b815260206004820152600e60248201526d7469746c6520746f6f206c6f6e6760901b604482015290519081900360640190fd5b336000908152600760205260409020546001600160a01b0316611a5c576040805162461bcd60e51b8152602060048201526011602482015270637279636c65206e6f742063726561746560781b604482015290519081900360640190fd5b336000908152600760209081526040808320600190810180548351600293821615610100026000190190911692909204601f81018590048502830185019093528282529092909190830182828015611af55780601f10611aca57610100808354040283529160200191611af5565b820191906000526020600020905b815481529060010190602001808311611ad857829003601f168201915b50503360009081526007602090815260409091208751959650611b25956001909101945090870192509050613401565b507f48610541dd7c19826ef82a3a2e6342bb67c41141fb0a7c75f0ac2baa080ed4663382844260405180856001600160a01b031681526020018060200180602001848152602001838103835286818151815260200191508051906020019080838360008381101561132557818101518382015260200161130d565b6007602090815260009182526040918290208054600180830180548651600261010094831615949094026000190190911692909204601f81018690048602830186019096528582526001600160a01b03909216949293909290830182828015611c4a5780601f10611c1f57610100808354040283529160200191611c4a565b820191906000526020600020905b815481529060010190602001808311611c2d57829003601f168201915b50505060028085018054604080516020601f6000196101006001871615020190941695909504928301859004850281018501909152818152959695945090925090830182828015611cdc5780601f10611cb157610100808354040283529160200191611cdc565b820191906000526020600020905b815481529060010190602001808311611cbf57829003601f168201915b5050505060038301805460408051602060026001851615610100026000190190941693909304601f8101849004840282018401909252818152949594935090830182828015611d6c5780601f10611d4157610100808354040283529160200191611d6c565b820191906000526020600020905b815481529060010190602001808311611d4f57829003601f168201915b5050505050908060040154905085565b600a60209081526000928352604080842090915290825290205481565b600d8181548110611da957600080fd5b60009182526020909120600490910201805460018201546002830154600390930154919350919084565b6000546001600160a01b031690565b600d80548291906000198101908110611df757fe5b600091825260209091206004909102015550565b611e13612f64565b6001600160a01b0316611e24611dd3565b6001600160a01b031614611e6d576040805162461bcd60e51b81526020600482018190526024820152600080516020613514833981519152604482015290519081900360640190fd5b600d5415611ee357600d80546000198101908110611e8757fe5b9060005260206000209060040201600201544211611ee3576040805162461bcd60e51b81526020600482015260146024820152730d8c2e6e840ecdee8ca40dcdee840ccd2dcd2e6d60631b604482015290519081900360640190fd5b60408051608081018252848152602080820185905281830184905260055483516370a0823160e01b81523060048201529351600d9460608501936001600160a01b03909316926370a0823192602480840193829003018186803b158015611f4957600080fd5b505afa158015611f5d573d6000803e3d6000fd5b505050506040513d6020811015611f7357600080fd5b5051905281546001818101845560009384526020808520845160049485029091019081559084015191810191909155604080840151600280840191909155606090940151600390920191909155600d549254815163964f551760e01b8152928301849052905192936001600160a01b039091169263964f551792602480820193929182900301818387803b15801561200a57600080fd5b505af115801561201e573d6000803e3d6000fd5b50506005546040805163964f551760e01b81526004810186905290516001600160a01b03909216935063964f5517925060248082019260009290919082900301818387803b15801561206f57600080fd5b505af1158015612083573d6000803e3d6000fd5b5050505060005b60035481101561213057600654600380546001600160a01b0390921691638c0f73d89190849081106120b857fe5b6000918252602082200154604080516001600160e01b031960e086901b1681526001600160a01b03909216600483015260248201879052516044808301939282900301818387803b15801561210c57600080fd5b505af1158015612120573d6000803e3d6000fd5b50506001909201915061208a9050565b50600554604080516370a0823160e01b815230600482015290517f2dd8ac466cc54033f2b4f9d126bae28b23303b44da3e45c2f7f224442588d33a9284928892889288926001600160a01b03909116916370a0823191602480820192602092909190829003018186803b1580156121a657600080fd5b505afa1580156121ba573d6000803e3d6000fd5b505050506040513d60208110156121d057600080fd5b50516040805195865260208601949094528484019290925260608401526080830152519081900360a00190a150505050565b6005546001600160a01b031681565b6003818154811061222157600080fd5b6000918252602090912001546001600160a01b0316905081565b336001600160a01b0382161415612290576040805162461bcd60e51b815260206004820152601460248201527331b0b7103737ba1030b232103cb7bab939b2b63360611b604482015290519081900360640190fd5b60015460408051630e666e4960e01b815233600482015290516001600160a01b0390921691630e666e4991602480820192602092909190829003018186803b1580156122db57600080fd5b505afa1580156122ef573d6000803e3d6000fd5b505050506040513d602081101561230557600080fd5b505161234b576040805162461bcd60e51b815260206004820152601060248201526f75736572206e6f74207265676973746560801b604482015290519081900360640190fd5b6001600160a01b03818116600090815260076020526040902054166123ab576040805162461bcd60e51b8152602060048201526011602482015270637279636c65206e6f742065786973747360781b604482015290519081900360640190fd5b336000908152600860205260409020546001600160a01b03161561240e576040805162461bcd60e51b8152602060048201526015602482015274616c7265616479206a6f696e656420637279636c6560581b604482015290519081900360640190fd5b33600081815260086020908152604080832080546001600160a01b0387166001600160a01b03199091168117909155808452600783529281902060040180546001019081905581519485529184019290925282820152426060830152517fcb73c1460b15b6069c2609fae376f35ea2eecd1294e08ef5ea486c5937fce8659181900360800190a150565b60008080805b6003548110156126955760006124db600383815481106124ba57fe5b6000918252602090912001546004546001600160a01b039182169116613032565b600254600380549293506000926001600160a01b039092169163a260988c91908690811061250557fe5b60009182526020918290200154604080516001600160e01b031960e086901b1681526001600160a01b039283166004820152918c166024830152600360448301525160648083019392829003018186803b15801561256257600080fd5b505afa158015612576573d6000803e3d6000fd5b505050506040513d602081101561258c57600080fd5b5051600254600380549293506000926001600160a01b0390921691632cae426b9190879081106125b857fe5b60009182526020918290200154604080516001600160e01b031960e086901b1681526001600160a01b039283166004820152918d1660248301525160448083019392829003018186803b15801561260e57600080fd5b505afa158015612622573d6000803e3d6000fd5b505050506040513d602081101561263857600080fd5b5051905061266261265b670de0b6b3a76400006126558587613343565b90612f68565b8790612fd1565b955061268461267d670de0b6b3a76400006126558487613343565b8690612fd1565b9450506001909201915061249e9050565b50681b1ae4d6e2ef500000821015806126b8575069010f0cf064dd592000008110155b156126c8576001925050506126cf565b6000925050505b919050565b6126dc612f64565b6001600160a01b03166126ed611dd3565b6001600160a01b031614612736576040805162461bcd60e51b81526020600482018190526024820152600080516020613514833981519152604482015290519081900360640190fd5b600380546001810182556000919091527fc2575a0e9e593c00f959f8c92f12db2869c3395a3b0502d05e2516446f71f85b0180546001600160a01b0319166001600160a01b0392909216919091179055565b6006546001600160a01b031681565b600d5490565b600960209081526000928352604080842090915290825290205481565b681b1ae4d6e2ef50000081565b6000828152600c602090815260408083206001600160a01b038516845290915290205415612889576005546000838152600c602090815260408083206001600160a01b0386811680865291845282852054835163a9059cbb60e01b8152600481019390935260248301529151919094169363a9059cbb9360448083019493928390030190829087803b15801561285c57600080fd5b505af1158015612870573d6000803e3d6000fd5b505050506040513d602081101561288657600080fd5b50505b6000918252600c602090815260408084206001600160a01b039093168452919052812055565b610100815111156128fb576040805162461bcd60e51b81526020600482015260116024820152706d61696e6665737420746f6f206c6f6e6760781b604482015290519081900360640190fd5b336000908152600760205260409020546001600160a01b0316612959576040805162461bcd60e51b8152602060048201526011602482015270637279636c65206e6f742063726561746560781b604482015290519081900360640190fd5b3360009081526007602090815260408083206003018054825160026001831615610100026000190190921691909104601f8101859004850282018501909352828152929091908301828280156129f05780601f106129c5576101008083540402835291602001916129f0565b820191906000526020600020905b8154815290600101906020018083116129d357829003601f168201915b50503360009081526007602090815260409091208751959650612a20956003909101945090870192509050613401565b507fd86d83d41dbcd6f1c5e2945cbb2200704ca5a5f417def82304643d941144f1b03382844260405180856001600160a01b031681526020018060200180602001848152602001838103835286818151815260200191508051906020019080838360008381101561132557818101518382015260200161130d565b6005546040805163b68d0a0960e01b81526001600160a01b03848116600483015291516000938493169163b68d0a09916024808301926020929190829003018186803b158015612aea57600080fd5b505afa158015612afe573d6000803e3d6000fd5b505050506040513d6020811015612b1457600080fd5b5051905060005b600354811015612e2e576006546003805460009283926001600160a01b039091169163f3711a08919086908110612b4e57fe5b600091825260209091200154604080516001600160e01b031960e085901b1681526001600160a01b0390921660048301528051602480840193829003018186803b158015612b9b57600080fd5b505afa158015612baf573d6000803e3d6000fd5b505050506040513d6040811015612bc557600080fd5b5080516020909101516003805492945090925060009185908110612be557fe5b6000918252602091829020015460408051630dfe168160e01b815290516001600160a01b0390921692630dfe168192600480840193829003018186803b158015612c2e57600080fd5b505afa158015612c42573d6000803e3d6000fd5b505050506040513d6020811015612c5857600080fd5b50516005546001600160a01b03908116911614612c755781612c77565b825b600654600380549293506000926001600160a01b039092169163fa80ccd7919088908110612ca157fe5b60009182526020918290200154604080516001600160e01b031960e086901b1681526001600160a01b0390921660048301523360248301525160448083019392829003018186803b158015612cf557600080fd5b505afa158015612d09573d6000803e3d6000fd5b505050506040513d6020811015612d1f57600080fd5b5051600254600380549293506000926001600160a01b0390921691632d2d55eb919089908110612d4b57fe5b60009182526020918290200154604080516001600160e01b031960e086901b1681526001600160a01b0390921660048301523360248301525160448083019392829003018186803b158015612d9f57600080fd5b505afa158015612db3573d6000803e3d6000fd5b505050506040513d6020811015612dc957600080fd5b50519050612e1b662386f26fc10000612655612def670de0b6b3a7640000828887613343565b612e15612e0e612e0788670de0b6b3a7640000612f68565b8990613343565b8c90612fd1565b90612fd1565b96505060019094019350612b1b92505050565b5092915050565b612e3d612f64565b6001600160a01b0316612e4e611dd3565b6001600160a01b031614612e97576040805162461bcd60e51b81526020600482018190526024820152600080516020613514833981519152604482015290519081900360640190fd5b6001600160a01b038116612edc5760405162461bcd60e51b81526004018080602001828103825260268152602001806134936026913960400191505060405180910390fd5b600080546040516001600160a01b03808516939216917f8be0079c531659141344cd1fd0a4f28419497f9722a3daafe3b4186f6b6457e091a3600080546001600160a01b0319166001600160a01b0392909216919091179055565b600d80548291906000198101908110612f4c57fe5b90600052602060002090600402016002018190555050565b3390565b6000808211612fbe576040805162461bcd60e51b815260206004820152601a60248201527f536166654d6174683a206469766973696f6e206279207a65726f000000000000604482015290519081900360640190fd5b818381612fc757fe5b0490505b92915050565b60008282018381101561302b576040805162461bcd60e51b815260206004820152601b60248201527f536166654d6174683a206164646974696f6e206f766572666c6f770000000000604482015290519081900360640190fd5b9392505050565b600080836001600160a01b0316630dfe16816040518163ffffffff1660e01b815260040160206040518083038186803b15801561306e57600080fd5b505afa158015613082573d6000803e3d6000fd5b505050506040513d602081101561309857600080fd5b50516040805163d21220a760e01b815290519192506000916001600160a01b0387169163d21220a7916004808301926020929190829003018186803b1580156130e057600080fd5b505afa1580156130f4573d6000803e3d6000fd5b505050506040513d602081101561310a57600080fd5b505190506001600160a01b0382811690851614806131395750836001600160a01b0316816001600160a01b0316145b61317a576040805162461bcd60e51b815260206004820152600d60248201526c34b63632b3b0b6103a37b5b2b760991b604482015290519081900360640190fd5b600080866001600160a01b0316630902f1ac6040518163ffffffff1660e01b815260040160606040518083038186803b1580156131b657600080fd5b505afa1580156131ca573d6000803e3d6000fd5b505050506040513d60608110156131e057600080fd5b5080516020909101516dffffffffffffffffffffffffffff91821693501690506001600160a01b0386811690851614156132b95781156132b4576132a982612655670de0b6b3a7640000876001600160a01b03166370a082318c6040518263ffffffff1660e01b815260040180826001600160a01b0316815260200191505060206040518083038186803b15801561327757600080fd5b505afa15801561328b573d6000803e3d6000fd5b505050506040513d60208110156132a157600080fd5b505190613343565b945050505050612fcb565b613336565b826001600160a01b0316866001600160a01b03161415613336578015613336576132a981612655670de0b6b3a7640000866001600160a01b03166370a082318c6040518263ffffffff1660e01b815260040180826001600160a01b0316815260200191505060206040518083038186803b15801561327757600080fd5b5060009695505050505050565b60008261335257506000612fcb565b8282028284828161335f57fe5b041461302b5760405162461bcd60e51b81526004018080602001828103825260218152602001806134f36021913960400191505060405180910390fd5b8280548282559060005260206000209081019282156133f1579160200282015b828111156133f157825182546001600160a01b0319166001600160a01b039091161782556020909201916001909101906133bc565b506133fd92915061347d565b5090565b828054600181600116156101000203166002900490600052602060002090601f01602090048101928261343757600085556133f1565b82601f1061345057805160ff19168380011785556133f1565b828001600101855582156133f1579182015b828111156133f1578251825591602001919060010190613462565b5b808211156133fd576000815560010161347e56fe4f776e61626c653a206e6577206f776e657220697320746865207a65726f20616464726573736174206c65617365206c6f636b20353030204255534420616e6420534453206f7220696e766974652035303030204255534420616e6420534453536166654d6174683a206d756c7469706c69636174696f6e206f766572666c6f774f776e61626c653a2063616c6c6572206973206e6f7420746865206f776e6572a26469706673582212209c9de7e309353488b75eb7d496bd8b91e4a746310daa8c520f04a6d1732e27b264736f6c63430007060033",
  "devdoc": {
    "kind": "dev",
    "methods": {
      "owner()": {
        "details": "Returns the address of the current owner."
      },
      "renounceOwnership()": {
        "details": "Leaves the contract without owner. It will not be possible to call `onlyOwner` functions anymore. Can only be called by the current owner. NOTE: Renouncing ownership will leave the contract without an owner, thereby removing any functionality that is only available to the owner."
      },
      "transferOwnership(address)": {
        "details": "Transfers ownership of the contract to a new account (`newOwner`). Can only be called by the current owner."
      }
    },
    "version": 1
  },
  "userdoc": {
    "kind": "user",
    "methods": {},
    "version": 1
  },
  "storageLayout": {
    "storage": [
      {
        "astId": 7,
        "contract": "contracts/farm/Crycle.sol:Crycle",
        "label": "_owner",
        "offset": 0,
        "slot": "0",
        "type": "t_address"
      },
      {
        "astId": 1672,
        "contract": "contracts/farm/Crycle.sol:Crycle",
        "label": "user",
        "offset": 0,
        "slot": "1",
        "type": "t_contract(IUser)8029"
      },
      {
        "astId": 1674,
        "contract": "contracts/farm/Crycle.sol:Crycle",
        "label": "masterChef",
        "offset": 0,
        "slot": "2",
        "type": "t_contract(IMasterChef)7995"
      },
      {
        "astId": 1677,
        "contract": "contracts/farm/Crycle.sol:Crycle",
        "label": "pairs",
        "offset": 0,
        "slot": "3",
        "type": "t_array(t_contract(IKeplerPair)7610)dyn_storage"
      },
      {
        "astId": 1679,
        "contract": "contracts/farm/Crycle.sol:Crycle",
        "label": "busd",
        "offset": 0,
        "slot": "4",
        "type": "t_contract(IERC20)1045"
      },
      {
        "astId": 1681,
        "contract": "contracts/farm/Crycle.sol:Crycle",
        "label": "sds",
        "offset": 0,
        "slot": "5",
        "type": "t_contract(IKeplerToken)7830"
      },
      {
        "astId": 1683,
        "contract": "contracts/farm/Crycle.sol:Crycle",
        "label": "factory",
        "offset": 0,
        "slot": "6",
        "type": "t_contract(IKeplerFactory)7370"
      },
      {
        "astId": 1708,
        "contract": "contracts/farm/Crycle.sol:Crycle",
        "label": "crycles",
        "offset": 0,
        "slot": "7",
        "type": "t_mapping(t_address,t_struct(CrycleInfo)1704_storage)"
      },
      {
        "astId": 1712,
        "contract": "contracts/farm/Crycle.sol:Crycle",
        "label": "userCrycle",
        "offset": 0,
        "slot": "8",
        "type": "t_mapping(t_address,t_address)"
      },
      {
        "astId": 1718,
        "contract": "contracts/farm/Crycle.sol:Crycle",
        "label": "userVote",
        "offset": 0,
        "slot": "9",
        "type": "t_mapping(t_uint256,t_mapping(t_address,t_uint256))"
      },
      {
        "astId": 1724,
        "contract": "contracts/farm/Crycle.sol:Crycle",
        "label": "crycleVote",
        "offset": 0,
        "slot": "10",
        "type": "t_mapping(t_uint256,t_mapping(t_address,t_uint256))"
      },
      {
        "astId": 1729,
        "contract": "contracts/farm/Crycle.sol:Crycle",
        "label": "voteWiners",
        "offset": 0,
        "slot": "11",
        "type": "t_mapping(t_uint256,t_array(t_address)dyn_storage)"
      },
      {
        "astId": 1735,
        "contract": "contracts/farm/Crycle.sol:Crycle",
        "label": "voteReward",
        "offset": 0,
        "slot": "12",
        "type": "t_mapping(t_uint256,t_mapping(t_address,t_uint256))"
      },
      {
        "astId": 2483,
        "contract": "contracts/farm/Crycle.sol:Crycle",
        "label": "voteInfo",
        "offset": 0,
        "slot": "13",
        "type": "t_array(t_struct(VoteInfo)2432_storage)dyn_storage"
      }
    ],
    "types": {
      "t_address": {
        "encoding": "inplace",
        "label": "address",
        "numberOfBytes": "20"
      },
      "t_array(t_address)dyn_storage": {
        "base": "t_address",
        "encoding": "dynamic_array",
        "label": "address[]",
        "numberOfBytes": "32"
      },
      "t_array(t_contract(IKeplerPair)7610)dyn_storage": {
        "base": "t_contract(IKeplerPair)7610",
        "encoding": "dynamic_array",
        "label": "contract IKeplerPair[]",
        "numberOfBytes": "32"
      },
      "t_array(t_struct(VoteInfo)2432_storage)dyn_storage": {
        "base": "t_struct(VoteInfo)2432_storage",
        "encoding": "dynamic_array",
        "label": "struct Crycle.VoteInfo[]",
        "numberOfBytes": "32"
      },
      "t_contract(IERC20)1045": {
        "encoding": "inplace",
        "label": "contract IERC20",
        "numberOfBytes": "20"
      },
      "t_contract(IKeplerFactory)7370": {
        "encoding": "inplace",
        "label": "contract IKeplerFactory",
        "numberOfBytes": "20"
      },
      "t_contract(IKeplerPair)7610": {
        "encoding": "inplace",
        "label": "contract IKeplerPair",
        "numberOfBytes": "20"
      },
      "t_contract(IKeplerToken)7830": {
        "encoding": "inplace",
        "label": "contract IKeplerToken",
        "numberOfBytes": "20"
      },
      "t_contract(IMasterChef)7995": {
        "encoding": "inplace",
        "label": "contract IMasterChef",
        "numberOfBytes": "20"
      },
      "t_contract(IUser)8029": {
        "encoding": "inplace",
        "label": "contract IUser",
        "numberOfBytes": "20"
      },
      "t_mapping(t_address,t_address)": {
        "encoding": "mapping",
        "key": "t_address",
        "label": "mapping(address => address)",
        "numberOfBytes": "32",
        "value": "t_address"
      },
      "t_mapping(t_address,t_struct(CrycleInfo)1704_storage)": {
        "encoding": "mapping",
        "key": "t_address",
        "label": "mapping(address => struct Crycle.CrycleInfo)",
        "numberOfBytes": "32",
        "value": "t_struct(CrycleInfo)1704_storage"
      },
      "t_mapping(t_address,t_uint256)": {
        "encoding": "mapping",
        "key": "t_address",
        "label": "mapping(address => uint256)",
        "numberOfBytes": "32",
        "value": "t_uint256"
      },
      "t_mapping(t_uint256,t_array(t_address)dyn_storage)": {
        "encoding": "mapping",
        "key": "t_uint256",
        "label": "mapping(uint256 => address[])",
        "numberOfBytes": "32",
        "value": "t_array(t_address)dyn_storage"
      },
      "t_mapping(t_uint256,t_mapping(t_address,t_uint256))": {
        "encoding": "mapping",
        "key": "t_uint256",
        "label": "mapping(uint256 => mapping(address => uint256))",
        "numberOfBytes": "32",
        "value": "t_mapping(t_address,t_uint256)"
      },
      "t_string_storage": {
        "encoding": "bytes",
        "label": "string",
        "numberOfBytes": "32"
      },
      "t_struct(CrycleInfo)1704_storage": {
        "encoding": "inplace",
        "label": "struct Crycle.CrycleInfo",
        "members": [
          {
            "astId": 1695,
            "contract": "contracts/farm/Crycle.sol:Crycle",
            "label": "creator",
            "offset": 0,
            "slot": "0",
            "type": "t_address"
          },
          {
            "astId": 1697,
            "contract": "contracts/farm/Crycle.sol:Crycle",
            "label": "title",
            "offset": 0,
            "slot": "1",
            "type": "t_string_storage"
          },
          {
            "astId": 1699,
            "contract": "contracts/farm/Crycle.sol:Crycle",
            "label": "mainfest",
            "offset": 0,
            "slot": "2",
            "type": "t_string_storage"
          },
          {
            "astId": 1701,
            "contract": "contracts/farm/Crycle.sol:Crycle",
            "label": "telegram",
            "offset": 0,
            "slot": "3",
            "type": "t_string_storage"
          },
          {
            "astId": 1703,
            "contract": "contracts/farm/Crycle.sol:Crycle",
            "label": "userNum",
            "offset": 0,
            "slot": "4",
            "type": "t_uint256"
          }
        ],
        "numberOfBytes": "160"
      },
      "t_struct(VoteInfo)2432_storage": {
        "encoding": "inplace",
        "label": "struct Crycle.VoteInfo",
        "members": [
          {
            "astId": 2425,
            "contract": "contracts/farm/Crycle.sol:Crycle",
            "label": "beginAt",
            "offset": 0,
            "slot": "0",
            "type": "t_uint256"
          },
          {
            "astId": 2427,
            "contract": "contracts/farm/Crycle.sol:Crycle",
            "label": "countAt",
            "offset": 0,
            "slot": "1",
            "type": "t_uint256"
          },
          {
            "astId": 2429,
            "contract": "contracts/farm/Crycle.sol:Crycle",
            "label": "finishAt",
            "offset": 0,
            "slot": "2",
            "type": "t_uint256"
          },
          {
            "astId": 2431,
            "contract": "contracts/farm/Crycle.sol:Crycle",
            "label": "reward",
            "offset": 0,
            "slot": "3",
            "type": "t_uint256"
          }
        ],
        "numberOfBytes": "128"
      },
      "t_uint256": {
        "encoding": "inplace",
        "label": "uint256",
        "numberOfBytes": "32"
      }
    }
  }
}