{
  "address": "0x5CA34882dfa3372D87FD5F85e972281446fa0974",
  "abi": [
    {
      "inputs": [
        {
          "internalType": "address",
          "name": "_factory",
          "type": "address"
        },
        {
          "internalType": "address",
          "name": "_WETH",
          "type": "address"
        },
        {
          "internalType": "contract IMasterChef",
          "name": "_masterChef",
          "type": "address"
        }
      ],
      "stateMutability": "nonpayable",
      "type": "constructor"
    },
    {
      "inputs": [],
      "name": "WETH",
      "outputs": [
        {
          "internalType": "address",
          "name": "",
          "type": "address"
        }
      ],
      "stateMutability": "view",
      "type": "function"
    },
    {
      "inputs": [
        {
          "internalType": "address",
          "name": "tokenA",
          "type": "address"
        },
        {
          "internalType": "address",
          "name": "tokenB",
          "type": "address"
        },
        {
          "internalType": "uint256",
          "name": "amountADesired",
          "type": "uint256"
        },
        {
          "internalType": "uint256",
          "name": "amountBDesired",
          "type": "uint256"
        },
        {
          "internalType": "uint256",
          "name": "amountAMin",
          "type": "uint256"
        },
        {
          "internalType": "uint256",
          "name": "amountBMin",
          "type": "uint256"
        },
        {
          "internalType": "address",
          "name": "to",
          "type": "address"
        },
        {
          "internalType": "uint256",
          "name": "deadline",
          "type": "uint256"
        },
        {
          "internalType": "uint256",
          "name": "lockType",
          "type": "uint256"
        }
      ],
      "name": "addLiquidity",
      "outputs": [
        {
          "internalType": "uint256",
          "name": "amountA",
          "type": "uint256"
        },
        {
          "internalType": "uint256",
          "name": "amountB",
          "type": "uint256"
        },
        {
          "internalType": "uint256",
          "name": "liquidity",
          "type": "uint256"
        }
      ],
      "stateMutability": "nonpayable",
      "type": "function"
    },
    {
      "inputs": [
        {
          "internalType": "address",
          "name": "token",
          "type": "address"
        },
        {
          "internalType": "uint256",
          "name": "amountTokenDesired",
          "type": "uint256"
        },
        {
          "internalType": "uint256",
          "name": "amountTokenMin",
          "type": "uint256"
        },
        {
          "internalType": "uint256",
          "name": "amountETHMin",
          "type": "uint256"
        },
        {
          "internalType": "address",
          "name": "to",
          "type": "address"
        },
        {
          "internalType": "uint256",
          "name": "deadline",
          "type": "uint256"
        },
        {
          "internalType": "uint256",
          "name": "lockType",
          "type": "uint256"
        }
      ],
      "name": "addLiquidityETH",
      "outputs": [
        {
          "internalType": "uint256",
          "name": "amountToken",
          "type": "uint256"
        },
        {
          "internalType": "uint256",
          "name": "amountETH",
          "type": "uint256"
        },
        {
          "internalType": "uint256",
          "name": "liquidity",
          "type": "uint256"
        }
      ],
      "stateMutability": "payable",
      "type": "function"
    },
    {
      "inputs": [],
      "name": "factory",
      "outputs": [
        {
          "internalType": "address",
          "name": "",
          "type": "address"
        }
      ],
      "stateMutability": "view",
      "type": "function"
    },
    {
      "inputs": [],
      "name": "masterChef",
      "outputs": [
        {
          "internalType": "contract IMasterChef",
          "name": "",
          "type": "address"
        }
      ],
      "stateMutability": "view",
      "type": "function"
    },
    {
      "inputs": [
        {
          "internalType": "address",
          "name": "tokenA",
          "type": "address"
        },
        {
          "internalType": "address",
          "name": "tokenB",
          "type": "address"
        },
        {
          "internalType": "uint256",
          "name": "liquidity",
          "type": "uint256"
        },
        {
          "internalType": "uint256",
          "name": "amountAMin",
          "type": "uint256"
        },
        {
          "internalType": "uint256",
          "name": "amountBMin",
          "type": "uint256"
        },
        {
          "internalType": "address",
          "name": "to",
          "type": "address"
        },
        {
          "internalType": "uint256",
          "name": "deadline",
          "type": "uint256"
        }
      ],
      "name": "removeLiquidity",
      "outputs": [
        {
          "internalType": "uint256",
          "name": "amountA",
          "type": "uint256"
        },
        {
          "internalType": "uint256",
          "name": "amountB",
          "type": "uint256"
        }
      ],
      "stateMutability": "nonpayable",
      "type": "function"
    },
    {
      "inputs": [
        {
          "internalType": "address",
          "name": "token",
          "type": "address"
        },
        {
          "internalType": "uint256",
          "name": "liquidity",
          "type": "uint256"
        },
        {
          "internalType": "uint256",
          "name": "amountTokenMin",
          "type": "uint256"
        },
        {
          "internalType": "uint256",
          "name": "amountETHMin",
          "type": "uint256"
        },
        {
          "internalType": "address",
          "name": "to",
          "type": "address"
        },
        {
          "internalType": "uint256",
          "name": "deadline",
          "type": "uint256"
        }
      ],
      "name": "removeLiquidityETH",
      "outputs": [
        {
          "internalType": "uint256",
          "name": "amountToken",
          "type": "uint256"
        },
        {
          "internalType": "uint256",
          "name": "amountETH",
          "type": "uint256"
        }
      ],
      "stateMutability": "nonpayable",
      "type": "function"
    },
    {
      "inputs": [
        {
          "internalType": "uint256",
          "name": "amountOut",
          "type": "uint256"
        },
        {
          "internalType": "address[]",
          "name": "path",
          "type": "address[]"
        },
        {
          "internalType": "address",
          "name": "to",
          "type": "address"
        },
        {
          "internalType": "uint256",
          "name": "deadline",
          "type": "uint256"
        }
      ],
      "name": "swapETHForExactTokens",
      "outputs": [
        {
          "internalType": "uint256[]",
          "name": "amounts",
          "type": "uint256[]"
        }
      ],
      "stateMutability": "payable",
      "type": "function"
    },
    {
      "inputs": [
        {
          "internalType": "uint256",
          "name": "amountOutMin",
          "type": "uint256"
        },
        {
          "internalType": "address[]",
          "name": "path",
          "type": "address[]"
        },
        {
          "internalType": "address",
          "name": "to",
          "type": "address"
        },
        {
          "internalType": "uint256",
          "name": "deadline",
          "type": "uint256"
        }
      ],
      "name": "swapExactETHForTokens",
      "outputs": [
        {
          "internalType": "uint256[]",
          "name": "amounts",
          "type": "uint256[]"
        }
      ],
      "stateMutability": "payable",
      "type": "function"
    },
    {
      "inputs": [
        {
          "internalType": "uint256",
          "name": "amountIn",
          "type": "uint256"
        },
        {
          "internalType": "uint256",
          "name": "amountOutMin",
          "type": "uint256"
        },
        {
          "internalType": "address[]",
          "name": "path",
          "type": "address[]"
        },
        {
          "internalType": "address",
          "name": "to",
          "type": "address"
        },
        {
          "internalType": "uint256",
          "name": "deadline",
          "type": "uint256"
        }
      ],
      "name": "swapExactTokensForETH",
      "outputs": [
        {
          "internalType": "uint256[]",
          "name": "amounts",
          "type": "uint256[]"
        }
      ],
      "stateMutability": "nonpayable",
      "type": "function"
    },
    {
      "inputs": [
        {
          "internalType": "uint256",
          "name": "amountIn",
          "type": "uint256"
        },
        {
          "internalType": "uint256",
          "name": "amountOutMin",
          "type": "uint256"
        },
        {
          "internalType": "address[]",
          "name": "path",
          "type": "address[]"
        },
        {
          "internalType": "address",
          "name": "to",
          "type": "address"
        },
        {
          "internalType": "uint256",
          "name": "deadline",
          "type": "uint256"
        }
      ],
      "name": "swapExactTokensForTokens",
      "outputs": [
        {
          "internalType": "uint256[]",
          "name": "amounts",
          "type": "uint256[]"
        }
      ],
      "stateMutability": "nonpayable",
      "type": "function"
    },
    {
      "inputs": [
        {
          "internalType": "uint256",
          "name": "amountOut",
          "type": "uint256"
        },
        {
          "internalType": "uint256",
          "name": "amountInMax",
          "type": "uint256"
        },
        {
          "internalType": "address[]",
          "name": "path",
          "type": "address[]"
        },
        {
          "internalType": "address",
          "name": "to",
          "type": "address"
        },
        {
          "internalType": "uint256",
          "name": "deadline",
          "type": "uint256"
        }
      ],
      "name": "swapTokensForExactETH",
      "outputs": [
        {
          "internalType": "uint256[]",
          "name": "amounts",
          "type": "uint256[]"
        }
      ],
      "stateMutability": "nonpayable",
      "type": "function"
    },
    {
      "inputs": [
        {
          "internalType": "uint256",
          "name": "amountOut",
          "type": "uint256"
        },
        {
          "internalType": "uint256",
          "name": "amountInMax",
          "type": "uint256"
        },
        {
          "internalType": "address[]",
          "name": "path",
          "type": "address[]"
        },
        {
          "internalType": "address",
          "name": "to",
          "type": "address"
        },
        {
          "internalType": "uint256",
          "name": "deadline",
          "type": "uint256"
        }
      ],
      "name": "swapTokensForExactTokens",
      "outputs": [
        {
          "internalType": "uint256[]",
          "name": "amounts",
          "type": "uint256[]"
        }
      ],
      "stateMutability": "nonpayable",
      "type": "function"
    },
    {
      "stateMutability": "payable",
      "type": "receive"
    }
  ],
  "transactionHash": "0x38c8333edcc6257c91eed5ce4867b67e4a195dd87356145dd23355e24c437f58",
  "args": [
    "0xe84FB572B1cBd40F82d6a239A0710719B9C38FB4",
    "0x6f51626EB559c497508380B62E549BdAf0D37DA8",
    "0x6dF88a93da170C07C26EF65772d3AfEc0551DDEB"
  ],
  "solcInputHash": "d021aabbffeec1113ec2ea87e307e477",
  "bytecode": "0x60c060405234801561001057600080fd5b5060405162004f6b38038062004f6b8339818101604052606081101561003557600080fd5b5080516020820151604090920151606082811b6001600160601b03199081166080529084901b1660a052600080546001600160a01b0319166001600160a01b03928316178155918116921690614dce906200019d90398060d652806106f8528061073352806108155280610e5152806115c05280611dee5280611e445280611e785280611eec5280612284528061279f52806128275280612e3b528061310d528061362552806136ad5250806108b15280610a105280610a715280610bca5280610dad5280610f5c52806110bb528061111c52806112f3528061165f52806117be528061181f52806119785280611b375280611e225280612325528061248452806124e5528061263e528061285952806129c45280612b235280612b845280612cdd5280612eab52806130a352806131ae528061330d528061336e52806134c752806136df5280613fa45280613fe752806143b4528061446d52806145205250614dce6000f3fe6080604052600436106100c65760003560e01c80636bb6a6f61161007f578063ad5c464811610059578063ad5c4648146105a0578063baa2abde146105b5578063c45a015514610612578063fb3bdb4114610627576100ff565b80636bb6a6f61461043a5780637ff36ab5146104865780638803dbee1461050a576100ff565b806302751cec1461010457806318cbafe51461017057806338ed1739146102565780634a25d94a146102ec57806357528cca14610382578063575a86b214610409576100ff565b366100ff57336001600160a01b037f000000000000000000000000000000000000000000000000000000000000000016146100fd57fe5b005b600080fd5b34801561011057600080fd5b50610157600480360360c081101561012757600080fd5b506001600160a01b0381358116916020810135916040820135916060810135916080820135169060a001356106ab565b6040805192835260208301919091528051918290030190f35b34801561017c57600080fd5b50610206600480360360a081101561019357600080fd5b813591602081013591810190606081016040820135600160201b8111156101b957600080fd5b8201836020820111156101cb57600080fd5b803590602001918460208302840111600160201b831117156101ec57600080fd5b91935091506001600160a01b0381351690602001356107c5565b60408051602080825283518183015283519192839290830191858101910280838360005b8381101561024257818101518382015260200161022a565b505050509050019250505060405180910390f35b34801561026257600080fd5b50610206600480360360a081101561027957600080fd5b813591602081013591810190606081016040820135600160201b81111561029f57600080fd5b8201836020820111156102b157600080fd5b803590602001918460208302840111600160201b831117156102d257600080fd5b91935091506001600160a01b038135169060200135610f12565b3480156102f857600080fd5b50610206600480360360a081101561030f57600080fd5b813591602081013591810190606081016040820135600160201b81111561033557600080fd5b82018360208201111561034757600080fd5b803590602001918460208302840111600160201b8311171561036857600080fd5b91935091506001600160a01b038135169060200135611570565b34801561038e57600080fd5b506103eb60048036036101208110156103a657600080fd5b506001600160a01b038135811691602081013582169160408201359160608101359160808201359160a08101359160c0820135169060e0810135906101000135611ad4565b60408051938452602084019290925282820152519081900360600190f35b34801561041557600080fd5b5061041e611d90565b604080516001600160a01b039092168252519081900360200190f35b6103eb600480360360e081101561045057600080fd5b506001600160a01b0381358116916020810135916040820135916060810135916080820135169060a08101359060c00135611d9f565b6102066004803603608081101561049c57600080fd5b81359190810190604081016020820135600160201b8111156104bd57600080fd5b8201836020820111156104cf57600080fd5b803590602001918460208302840111600160201b831117156104f057600080fd5b91935091506001600160a01b03813516906020013561223c565b34801561051657600080fd5b50610206600480360360a081101561052d57600080fd5b813591602081013591810190606081016040820135600160201b81111561055357600080fd5b82018360208201111561056557600080fd5b803590602001918460208302840111600160201b8311171561058657600080fd5b91935091506001600160a01b03813516906020013561297a565b3480156105ac57600080fd5b5061041e612e39565b3480156105c157600080fd5b50610157600480360360e08110156105d857600080fd5b506001600160a01b038135811691602081013582169160408201359160608101359160808201359160a08101359091169060c00135612e5d565b34801561061e57600080fd5b5061041e6130a1565b6102066004803603608081101561063d57600080fd5b81359190810190604081016020820135600160201b81111561065e57600080fd5b82018360208201111561067057600080fd5b803590602001918460208302840111600160201b8311171561069157600080fd5b91935091506001600160a01b0381351690602001356130c5565b60008082428110156106f2576040805162461bcd60e51b81526020600482015260136024820152600080516020614bf0833981519152604482015290519081900360640190fd5b610721897f00000000000000000000000000000000000000000000000000000000000000008a8a8a308a612e5d565b9093509150610731898685613813565b7f00000000000000000000000000000000000000000000000000000000000000006001600160a01b0316632e1a7d4d836040518263ffffffff1660e01b815260040180828152602001915050600060405180830381600087803b15801561079757600080fd5b505af11580156107ab573d6000803e3d6000fd5b505050506107b9858361397c565b50965096945050505050565b6060814281101561080b576040805162461bcd60e51b81526020600482015260136024820152600080516020614bf0833981519152604482015290519081900360640190fd5b6001600160a01b037f0000000000000000000000000000000000000000000000000000000000000000168686600019810181811061084557fe5b905060200201356001600160a01b03166001600160a01b0316146108ad576040805162461bcd60e51b815260206004820152601a602482015279096cae0d8cae4a4deeae8cae47440929cac82989288bea082a8960331b604482015290519081900360640190fd5b60007f00000000000000000000000000000000000000000000000000000000000000006001600160a01b031663dcb6b48488886040518363ffffffff1660e01b815260040180806020018281038252848482818152602001925060200280828437600081840152601f19601f820116905080830192505050935050505060006040518083038186803b15801561094257600080fd5b505afa158015610956573d6000803e3d6000fd5b505050506040513d6000823e601f3d908101601f19168201604052602081101561097f57600080fd5b8101908080516040519392919084600160201b82111561099e57600080fd5b9083019060208201858111156109b357600080fd5b82518660208202830111600160201b821117156109cf57600080fd5b82525081516020918201928201910280838360005b838110156109fc5781810151838201526020016109e4565b505050509050016040525050509050610a6b7f00000000000000000000000000000000000000000000000000000000000000008a898980806020026020016040519081016040528093929190818152602001838360200280828437600092019190915250879250613a74915050565b925060007f00000000000000000000000000000000000000000000000000000000000000006001600160a01b031663017e7e586040518163ffffffff1660e01b815260040160206040518083038186803b158015610ac857600080fd5b505afa158015610adc573d6000803e3d6000fd5b505050506040513d6020811015610af257600080fd5b5051905060005b6001835103811015610d3057888882818110610b1157fe5b905060200201356001600160a01b03166001600160a01b031663095ea7b383858481518110610b3c57fe5b60200260200101516040518363ffffffff1660e01b815260040180836001600160a01b0316815260200182815260200192505050602060405180830381600087803b158015610b8a57600080fd5b505af1158015610b9e573d6000803e3d6000fd5b505050506040513d6020811015610bb457600080fd5b50506001600160a01b0382166374af8c3c610c297f00000000000000000000000000000000000000000000000000000000000000008c8c86818110610bf557fe5b905060200201356001600160a01b03168d8d87600101818110610c1457fe5b905060200201356001600160a01b0316613c15565b8b8b85818110610c3557fe5b905060200201356001600160a01b031633878681518110610c5257fe5b60200260200101516040518563ffffffff1660e01b815260040180856001600160a01b03168152602001846001600160a01b03168152602001836001600160a01b03168152602001828152602001945050505050600060405180830381600087803b158015610cc057600080fd5b505af1158015610cd4573d6000803e3d6000fd5b50505050610d11838281518110610ce757fe5b6020026020010151868381518110610cfb57fe5b6020026020010151613d3790919063ffffffff16565b858281518110610d1d57fe5b6020908102919091010152600101610af9565b508884600186510381518110610d4257fe5b60200260200101511015610d875760405162461bcd60e51b8152600401808060200182810382526028815260200180614b796028913960400191505060405180910390fd5b610e1088886000818110610d9757fe5b905060200201356001600160a01b031633610df67f00000000000000000000000000000000000000000000000000000000000000008c8c6000818110610dd957fe5b905060200201356001600160a01b03168d8d6001818110610c1457fe5b87600081518110610e0357fe5b6020026020010151613d99565b610e4f84898980806020026020016040519081016040528093929190818152602001838360200280828437600092019190915250309250613ef5915050565b7f00000000000000000000000000000000000000000000000000000000000000006001600160a01b0316632e1a7d4d85600187510381518110610e8e57fe5b60200260200101516040518263ffffffff1660e01b815260040180828152602001915050600060405180830381600087803b158015610ecc57600080fd5b505af1158015610ee0573d6000803e3d6000fd5b50505050610f058685600187510381518110610ef857fe5b602002602001015161397c565b5050509695505050505050565b60608142811015610f58576040805162461bcd60e51b81526020600482015260136024820152600080516020614bf0833981519152604482015290519081900360640190fd5b60007f00000000000000000000000000000000000000000000000000000000000000006001600160a01b031663dcb6b48488886040518363ffffffff1660e01b815260040180806020018281038252848482818152602001925060200280828437600081840152601f19601f820116905080830192505050935050505060006040518083038186803b158015610fed57600080fd5b505afa158015611001573d6000803e3d6000fd5b505050506040513d6000823e601f3d908101601f19168201604052602081101561102a57600080fd5b8101908080516040519392919084600160201b82111561104957600080fd5b90830190602082018581111561105e57600080fd5b82518660208202830111600160201b8211171561107a57600080fd5b82525081516020918201928201910280838360005b838110156110a757818101518382015260200161108f565b5050505090500160405250505090506111167f00000000000000000000000000000000000000000000000000000000000000008a898980806020026020016040519081016040528093929190818152602001838360200280828437600092019190915250879250613a74915050565b925060007f00000000000000000000000000000000000000000000000000000000000000006001600160a01b031663017e7e586040518163ffffffff1660e01b815260040160206040518083038186803b15801561117357600080fd5b505afa158015611187573d6000803e3d6000fd5b505050506040513d602081101561119d57600080fd5b5051905060005b600183510381101561140b578281815181106111bc57fe5b6020026020010151600014156111d157611403565b60006112186103e86112128685815181106111e857fe5b60200260200101518986815181106111fc57fe5b602002602001015161409c90919063ffffffff16565b906140fc565b90506112418a8a8481811061122957fe5b905060200201356001600160a01b0316333084613d99565b89898381811061124d57fe5b905060200201356001600160a01b03166001600160a01b031663095ea7b384836040518363ffffffff1660e01b815260040180836001600160a01b0316815260200182815260200192505050602060405180830381600087803b1580156112b357600080fd5b505af11580156112c7573d6000803e3d6000fd5b505050506040513d60208110156112dd57600080fd5b50506001600160a01b0383166374af8c3c61133d7f00000000000000000000000000000000000000000000000000000000000000008d8d8781811061131e57fe5b905060200201356001600160a01b03168e8e88600101818110610c1457fe5b8c8c8681811061134957fe5b905060200201356001600160a01b031633856040518563ffffffff1660e01b815260040180856001600160a01b03168152602001846001600160a01b03168152602001836001600160a01b03168152602001828152602001945050505050600060405180830381600087803b1580156113c157600080fd5b505af11580156113d5573d6000803e3d6000fd5b505050506113e981878481518110610cfb57fe5b8683815181106113f557fe5b602002602001018181525050505b6001016111a4565b50888460018651038151811061141d57fe5b602002602001015110156114625760405162461bcd60e51b8152600401808060200182810382526028815260200180614b796028913960400191505060405180910390fd5b61152160405180604001604052806013815260200172031bab93932b73a1030b63637bbb0b731b29d1606d1b8152508989600081811061149e57fe5b60408051636eb1769f60e11b81523360048201523060248201529051602092830294909401356001600160a01b03169363dd62ed3e935060448083019392829003018186803b1580156114f057600080fd5b505afa158015611504573d6000803e3d6000fd5b505050506040513d602081101561151a57600080fd5b5051614163565b61153188886000818110610d9757fe5b610f05848989808060200260200160405190810160405280939291908181526020018383602002808284376000920191909152508b9250613ef5915050565b606081428110156115b6576040805162461bcd60e51b81526020600482015260136024820152600080516020614bf0833981519152604482015290519081900360640190fd5b6001600160a01b037f000000000000000000000000000000000000000000000000000000000000000016868660001981018181106115f057fe5b905060200201356001600160a01b03166001600160a01b03161461165b576040805162461bcd60e51b815260206004820152601860248201527f42616279526f757465723a20494e56414c49445f504154480000000000000000604482015290519081900360640190fd5b60007f00000000000000000000000000000000000000000000000000000000000000006001600160a01b031663dcb6b48488886040518363ffffffff1660e01b815260040180806020018281038252848482818152602001925060200280828437600081840152601f19601f820116905080830192505050935050505060006040518083038186803b1580156116f057600080fd5b505afa158015611704573d6000803e3d6000fd5b505050506040513d6000823e601f3d908101601f19168201604052602081101561172d57600080fd5b8101908080516040519392919084600160201b82111561174c57600080fd5b90830190602082018581111561176157600080fd5b82518660208202830111600160201b8211171561177d57600080fd5b82525081516020918201928201910280838360005b838110156117aa578181015183820152602001611792565b5050505090500160405250505090506118197f00000000000000000000000000000000000000000000000000000000000000008a898980806020026020016040519081016040528093929190818152602001838360200280828437600092019190915250879250614215915050565b925060007f00000000000000000000000000000000000000000000000000000000000000006001600160a01b031663017e7e586040518163ffffffff1660e01b815260040160206040518083038186803b15801561187657600080fd5b505afa15801561188a573d6000803e3d6000fd5b505050506040513d60208110156118a057600080fd5b5051905060005b6001835103811015611a80578888828181106118bf57fe5b905060200201356001600160a01b03166001600160a01b031663095ea7b3838584815181106118ea57fe5b60200260200101516040518363ffffffff1660e01b815260040180836001600160a01b0316815260200182815260200192505050602060405180830381600087803b15801561193857600080fd5b505af115801561194c573d6000803e3d6000fd5b505050506040513d602081101561196257600080fd5b50506001600160a01b0382166374af8c3c6119a37f00000000000000000000000000000000000000000000000000000000000000008c8c86818110610bf557fe5b8b8b858181106119af57fe5b905060200201356001600160a01b0316338786815181106119cc57fe5b60200260200101516040518563ffffffff1660e01b815260040180856001600160a01b03168152602001846001600160a01b03168152602001836001600160a01b03168152602001828152602001945050505050600060405180830381600087803b158015611a3a57600080fd5b505af1158015611a4e573d6000803e3d6000fd5b50505050611a61838281518110610ce757fe5b858281518110611a6d57fe5b60209081029190910101526001016118a7565b508884600081518110611a8f57fe5b60200260200101511115610d875760405162461bcd60e51b8152600401808060200182810382526024815260200180614c336024913960400191505060405180910390fd5b60008060008442811015611b1d576040805162461bcd60e51b81526020600482015260136024820152600080516020614bf0833981519152604482015290519081900360640190fd5b611b2b8d8d8d8d8d8d6143a4565b90945092506000611b5d7f00000000000000000000000000000000000000000000000000000000000000008f8f613c15565b9050611b6b8e338388613d99565b611b778d338387613d99565b6000546001600160a01b031615611d0157604080516335313c2160e11b815230600482015290516001600160a01b03831691636a6278429160248083019260209291908290030181600087803b158015611bd057600080fd5b505af1158015611be4573d6000803e3d6000fd5b505050506040513d6020811015611bfa57600080fd5b5051600080546040805163095ea7b360e01b81526001600160a01b0392831660048201526024810185905290519396509084169263095ea7b392604480840193602093929083900390910190829087803b158015611c5757600080fd5b505af1158015611c6b573d6000803e3d6000fd5b505050506040513d6020811015611c8157600080fd5b50506000805460408051633bce885d60e21b81526001600160a01b03858116600483015260248201889052604482018b90528c811660648301529151919092169263ef3a2174926084808201939182900301818387803b158015611ce457600080fd5b505af1158015611cf8573d6000803e3d6000fd5b50505050611d7f565b806001600160a01b0316636a627842896040518263ffffffff1660e01b815260040180826001600160a01b03168152602001915050602060405180830381600087803b158015611d5057600080fd5b505af1158015611d64573d6000803e3d6000fd5b505050506040513d6020811015611d7a57600080fd5b505192505b505099509950999650505050505050565b6000546001600160a01b031681565b60008060008442811015611de8576040805162461bcd60e51b81526020600482015260136024820152600080516020614bf0833981519152604482015290519081900360640190fd5b611e168b7f00000000000000000000000000000000000000000000000000000000000000008c348d8d6143a4565b90945092506000611e687f00000000000000000000000000000000000000000000000000000000000000008d7f0000000000000000000000000000000000000000000000000000000000000000613c15565b9050611e768c338388613d99565b7f00000000000000000000000000000000000000000000000000000000000000006001600160a01b031663d0e30db0856040518263ffffffff1660e01b81526004016000604051808303818588803b158015611ed157600080fd5b505af1158015611ee5573d6000803e3d6000fd5b50505050507f00000000000000000000000000000000000000000000000000000000000000006001600160a01b031663a9059cbb82866040518363ffffffff1660e01b815260040180836001600160a01b0316815260200182815260200192505050602060405180830381600087803b158015611f6157600080fd5b505af1158015611f75573d6000803e3d6000fd5b505050506040513d6020811015611f8b57600080fd5b5051611f9357fe5b806001600160a01b0316636a627842896040518263ffffffff1660e01b815260040180826001600160a01b03168152602001915050602060405180830381600087803b158015611fe257600080fd5b505af1158015611ff6573d6000803e3d6000fd5b505050506040513d602081101561200c57600080fd5b50516000549093506001600160a01b03161561219b57604080516335313c2160e11b815230600482015290516001600160a01b03831691636a6278429160248083019260209291908290030181600087803b15801561206a57600080fd5b505af115801561207e573d6000803e3d6000fd5b505050506040513d602081101561209457600080fd5b5051600080546040805163095ea7b360e01b81526001600160a01b0392831660048201526024810185905290519396509084169263095ea7b392604480840193602093929083900390910190829087803b1580156120f157600080fd5b505af1158015612105573d6000803e3d6000fd5b505050506040513d602081101561211b57600080fd5b50506000805460408051633bce885d60e21b81526001600160a01b03858116600483015260248201889052604482018b90528c811660648301529151919092169263ef3a2174926084808201939182900301818387803b15801561217e57600080fd5b505af1158015612192573d6000803e3d6000fd5b50505050612219565b806001600160a01b0316636a627842896040518263ffffffff1660e01b815260040180826001600160a01b03168152602001915050602060405180830381600087803b1580156121ea57600080fd5b505af11580156121fe573d6000803e3d6000fd5b505050506040513d602081101561221457600080fd5b505192505b8334111561222d5761222d3385340361397c565b50509750975097945050505050565b60608142811015612282576040805162461bcd60e51b81526020600482015260136024820152600080516020614bf0833981519152604482015290519081900360640190fd5b7f00000000000000000000000000000000000000000000000000000000000000006001600160a01b0316868660008181106122b957fe5b905060200201356001600160a01b03166001600160a01b031614612321576040805162461bcd60e51b815260206004820152601a602482015279096cae0d8cae4a4deeae8cae47440929cac82989288bea082a8960331b604482015290519081900360640190fd5b60007f00000000000000000000000000000000000000000000000000000000000000006001600160a01b031663dcb6b48488886040518363ffffffff1660e01b815260040180806020018281038252848482818152602001925060200280828437600081840152601f19601f820116905080830192505050935050505060006040518083038186803b1580156123b657600080fd5b505afa1580156123ca573d6000803e3d6000fd5b505050506040513d6000823e601f3d908101601f1916820160405260208110156123f357600080fd5b8101908080516040519392919084600160201b82111561241257600080fd5b90830190602082018581111561242757600080fd5b82518660208202830111600160201b8211171561244357600080fd5b82525081516020918201928201910280838360005b83811015612470578181015183820152602001612458565b5050505090500160405250505090506124df7f000000000000000000000000000000000000000000000000000000000000000034898980806020026020016040519081016040528093929190818152602001838360200280828437600092019190915250879250613a74915050565b925060007f00000000000000000000000000000000000000000000000000000000000000006001600160a01b031663017e7e586040518163ffffffff1660e01b815260040160206040518083038186803b15801561253c57600080fd5b505afa158015612550573d6000803e3d6000fd5b505050506040513d602081101561256657600080fd5b5051905060005b60018351038110156127465788888281811061258557fe5b905060200201356001600160a01b03166001600160a01b031663095ea7b3838584815181106125b057fe5b60200260200101516040518363ffffffff1660e01b815260040180836001600160a01b0316815260200182815260200192505050602060405180830381600087803b1580156125fe57600080fd5b505af1158015612612573d6000803e3d6000fd5b505050506040513d602081101561262857600080fd5b50506001600160a01b0382166374af8c3c6126697f00000000000000000000000000000000000000000000000000000000000000008c8c86818110610bf557fe5b8b8b8581811061267557fe5b905060200201356001600160a01b03163387868151811061269257fe5b60200260200101516040518563ffffffff1660e01b815260040180856001600160a01b03168152602001846001600160a01b03168152602001836001600160a01b03168152602001828152602001945050505050600060405180830381600087803b15801561270057600080fd5b505af1158015612714573d6000803e3d6000fd5b50505050612727838281518110610ce757fe5b85828151811061273357fe5b602090810291909101015260010161256d565b50888460018651038151811061275857fe5b6020026020010151101561279d5760405162461bcd60e51b8152600401808060200182810382526028815260200180614b796028913960400191505060405180910390fd5b7f00000000000000000000000000000000000000000000000000000000000000006001600160a01b031663d0e30db0856000815181106127d957fe5b60200260200101516040518263ffffffff1660e01b81526004016000604051808303818588803b15801561280c57600080fd5b505af1158015612820573d6000803e3d6000fd5b50505050507f00000000000000000000000000000000000000000000000000000000000000006001600160a01b031663a9059cbb6128a27f00000000000000000000000000000000000000000000000000000000000000008b8b600081811061288557fe5b905060200201356001600160a01b03168c8c6001818110610c1457fe5b866000815181106128af57fe5b60200260200101516040518363ffffffff1660e01b815260040180836001600160a01b0316815260200182815260200192505050602060405180830381600087803b1580156128fd57600080fd5b505af1158015612911573d6000803e3d6000fd5b505050506040513d602081101561292757600080fd5b505161292f57fe5b61296e848989808060200260200160405190810160405280939291908181526020018383602002808284376000920191909152508b9250613ef5915050565b50505095945050505050565b606081428110156129c0576040805162461bcd60e51b81526020600482015260136024820152600080516020614bf0833981519152604482015290519081900360640190fd5b60007f00000000000000000000000000000000000000000000000000000000000000006001600160a01b031663dcb6b48488886040518363ffffffff1660e01b815260040180806020018281038252848482818152602001925060200280828437600081840152601f19601f820116905080830192505050935050505060006040518083038186803b158015612a5557600080fd5b505afa158015612a69573d6000803e3d6000fd5b505050506040513d6000823e601f3d908101601f191682016040526020811015612a9257600080fd5b8101908080516040519392919084600160201b821115612ab157600080fd5b908301906020820185811115612ac657600080fd5b82518660208202830111600160201b82111715612ae257600080fd5b82525081516020918201928201910280838360005b83811015612b0f578181015183820152602001612af7565b505050509050016040525050509050612b7e7f00000000000000000000000000000000000000000000000000000000000000008a898980806020026020016040519081016040528093929190818152602001838360200280828437600092019190915250879250614215915050565b925060007f00000000000000000000000000000000000000000000000000000000000000006001600160a01b031663017e7e586040518163ffffffff1660e01b815260040160206040518083038186803b158015612bdb57600080fd5b505afa158015612bef573d6000803e3d6000fd5b505050506040513d6020811015612c0557600080fd5b5051905060005b6001835103811015612de557888882818110612c2457fe5b905060200201356001600160a01b03166001600160a01b031663095ea7b383858481518110612c4f57fe5b60200260200101516040518363ffffffff1660e01b815260040180836001600160a01b0316815260200182815260200192505050602060405180830381600087803b158015612c9d57600080fd5b505af1158015612cb1573d6000803e3d6000fd5b505050506040513d6020811015612cc757600080fd5b50506001600160a01b0382166374af8c3c612d087f00000000000000000000000000000000000000000000000000000000000000008c8c86818110610bf557fe5b8b8b85818110612d1457fe5b905060200201356001600160a01b031633878681518110612d3157fe5b60200260200101516040518563ffffffff1660e01b815260040180856001600160a01b03168152602001846001600160a01b03168152602001836001600160a01b03168152602001828152602001945050505050600060405180830381600087803b158015612d9f57600080fd5b505af1158015612db3573d6000803e3d6000fd5b50505050612dc6838281518110610ce757fe5b858281518110612dd257fe5b6020908102919091010152600101612c0c565b508884600081518110612df457fe5b602002602001015111156115215760405162461bcd60e51b8152600401808060200182810382526024815260200180614c336024913960400191505060405180910390fd5b7f000000000000000000000000000000000000000000000000000000000000000081565b6000808242811015612ea4576040805162461bcd60e51b81526020600482015260136024820152600080516020614bf0833981519152604482015290519081900360640190fd5b6000612ed17f00000000000000000000000000000000000000000000000000000000000000008c8c613c15565b604080516323b872dd60e01b81523360048201526001600160a01b03831660248201819052604482018d9052915192935090916323b872dd916064808201926020929091908290030181600087803b158015612f2c57600080fd5b505af1158015612f40573d6000803e3d6000fd5b505050506040513d6020811015612f5657600080fd5b50506040805163226bf2d160e21b81526001600160a01b03888116600483015282516000938493928616926389afcb44926024808301939282900301818787803b158015612fa357600080fd5b505af1158015612fb7573d6000803e3d6000fd5b505050506040513d6040811015612fcd57600080fd5b50805160209091015190925090506000612fe78e8e614635565b509050806001600160a01b03168e6001600160a01b03161461300a57818361300d565b82825b90975095508a8710156130515760405162461bcd60e51b8152600401808060200182810382526023815260200180614c9b6023913960400191505060405180910390fd5b898610156130905760405162461bcd60e51b8152600401808060200182810382526023815260200180614c106023913960400191505060405180910390fd5b505050505097509795505050505050565b7f000000000000000000000000000000000000000000000000000000000000000081565b6060814281101561310b576040805162461bcd60e51b81526020600482015260136024820152600080516020614bf0833981519152604482015290519081900360640190fd5b7f00000000000000000000000000000000000000000000000000000000000000006001600160a01b03168686600081811061314257fe5b905060200201356001600160a01b03166001600160a01b0316146131aa576040805162461bcd60e51b815260206004820152601a602482015279096cae0d8cae4a4deeae8cae47440929cac82989288bea082a8960331b604482015290519081900360640190fd5b60007f00000000000000000000000000000000000000000000000000000000000000006001600160a01b031663dcb6b48488886040518363ffffffff1660e01b815260040180806020018281038252848482818152602001925060200280828437600081840152601f19601f820116905080830192505050935050505060006040518083038186803b15801561323f57600080fd5b505afa158015613253573d6000803e3d6000fd5b505050506040513d6000823e601f3d908101601f19168201604052602081101561327c57600080fd5b8101908080516040519392919084600160201b82111561329b57600080fd5b9083019060208201858111156132b057600080fd5b82518660208202830111600160201b821117156132cc57600080fd5b82525081516020918201928201910280838360005b838110156132f95781810151838201526020016132e1565b5050505090500160405250505090506133687f000000000000000000000000000000000000000000000000000000000000000089898980806020026020016040519081016040528093929190818152602001838360200280828437600092019190915250879250614215915050565b925060007f00000000000000000000000000000000000000000000000000000000000000006001600160a01b031663017e7e586040518163ffffffff1660e01b815260040160206040518083038186803b1580156133c557600080fd5b505afa1580156133d9573d6000803e3d6000fd5b505050506040513d60208110156133ef57600080fd5b5051905060005b60018351038110156135cf5788888281811061340e57fe5b905060200201356001600160a01b03166001600160a01b031663095ea7b38385848151811061343957fe5b60200260200101516040518363ffffffff1660e01b815260040180836001600160a01b0316815260200182815260200192505050602060405180830381600087803b15801561348757600080fd5b505af115801561349b573d6000803e3d6000fd5b505050506040513d60208110156134b157600080fd5b50506001600160a01b0382166374af8c3c6134f27f00000000000000000000000000000000000000000000000000000000000000008c8c86818110610bf557fe5b8b8b858181106134fe57fe5b905060200201356001600160a01b03163387868151811061351b57fe5b60200260200101516040518563ffffffff1660e01b815260040180856001600160a01b03168152602001846001600160a01b03168152602001836001600160a01b03168152602001828152602001945050505050600060405180830381600087803b15801561358957600080fd5b505af115801561359d573d6000803e3d6000fd5b505050506135b0838281518110610ce757fe5b8582815181106135bc57fe5b60209081029190910101526001016133f6565b5034846000815181106135de57fe5b602002602001015111156136235760405162461bcd60e51b8152600401808060200182810382526024815260200180614c336024913960400191505060405180910390fd5b7f00000000000000000000000000000000000000000000000000000000000000006001600160a01b031663d0e30db08560008151811061365f57fe5b60200260200101516040518263ffffffff1660e01b81526004016000604051808303818588803b15801561369257600080fd5b505af11580156136a6573d6000803e3d6000fd5b50505050507f00000000000000000000000000000000000000000000000000000000000000006001600160a01b031663a9059cbb61370b7f00000000000000000000000000000000000000000000000000000000000000008b8b600081811061288557fe5b8660008151811061371857fe5b60200260200101516040518363ffffffff1660e01b815260040180836001600160a01b0316815260200182815260200192505050602060405180830381600087803b15801561376657600080fd5b505af115801561377a573d6000803e3d6000fd5b505050506040513d602081101561379057600080fd5b505161379857fe5b6137d7848989808060200260200160405190810160405280939291908181526020018383602002808284376000920191909152508b9250613ef5915050565b836000815181106137e457fe5b602002602001015134111561296e5761296e338560008151811061380457fe5b6020026020010151340361397c565b604080516001600160a01b038481166024830152604480830185905283518084039091018152606490920183526020820180516001600160e01b031663a9059cbb60e01b1781529251825160009485949389169392918291908083835b6020831061388f5780518252601f199092019160209182019101613870565b6001836020036101000a0380198251168184511680821785525050505050509050019150506000604051808303816000865af19150503d80600081146138f1576040519150601f19603f3d011682016040523d82523d6000602084013e6138f6565b606091505b5091509150818015613924575080511580613924575080806020019051602081101561392157600080fd5b50515b613975576040805162461bcd60e51b815260206004820152601f60248201527f5472616e7366657248656c7065723a205452414e534645525f4641494c454400604482015290519081900360640190fd5b5050505050565b604080516000808252602082019092526001600160a01b0384169083906040518082805190602001908083835b602083106139c85780518252601f1990920191602091820191016139a9565b6001836020036101000a03801982511681845116808217855250505050505090500191505060006040518083038185875af1925050503d8060008114613a2a576040519150601f19603f3d011682016040523d82523d6000602084013e613a2f565b606091505b5050905080613a6f5760405162461bcd60e51b8152600401808060200182810382526023815260200180614d046023913960400191505060405180910390fd5b505050565b6060600283511015613acd576040805162461bcd60e51b815260206004820152601b60248201527f4b65706c65724c6962726172793a20494e56414c49445f504154480000000000604482015290519081900360640190fd5b8151835114613b0d5760405162461bcd60e51b8152600401808060200182810382526021815260200180614b586021913960400191505060405180910390fd5b825167ffffffffffffffff81118015613b2557600080fd5b50604051908082528060200260200182016040528015613b4f578160200160208202803683370190505b5090508381600081518110613b6057fe5b60200260200101818152505060005b6001845103811015613c0c57600080613bb288878581518110613b8e57fe5b6020026020010151888660010181518110613ba557fe5b6020026020010151614713565b91509150613be8848481518110613bc557fe5b60200260200101518383888781518110613bdb57fe5b60200260200101516147ed565b848460010181518110613bf757fe5b60209081029190910101525050600101613b6f565b50949350505050565b6000806000613c248585614635565b9150915085828260405160200180836001600160a01b031660601b8152601401826001600160a01b031660601b81526014019250505060405160208183030381529060405280519060200120876001600160a01b0316635855a25a6040518163ffffffff1660e01b815260040160206040518083038186803b158015613ca957600080fd5b505afa158015613cbd573d6000803e3d6000fd5b505050506040513d6020811015613cd357600080fd5b5051604080516001600160f81b031960208083019190915260609590951b6bffffffffffffffffffffffff19166021820152603581019390935260558084019290925280518084039092018252607590920190915280519101209695505050505050565b600082821115613d8e576040805162461bcd60e51b815260206004820152601e60248201527f536166654d6174683a207375627472616374696f6e206f766572666c6f770000604482015290519081900360640190fd5b508082035b92915050565b604080516001600160a01b0385811660248301528481166044830152606480830185905283518084039091018152608490920183526020820180516001600160e01b03166323b872dd60e01b178152925182516000948594938a169392918291908083835b60208310613e1d5780518252601f199092019160209182019101613dfe565b6001836020036101000a0380198251168184511680821785525050505050509050019150506000604051808303816000865af19150503d8060008114613e7f576040519150601f19603f3d011682016040523d82523d6000602084013e613e84565b606091505b5091509150818015613eb2575080511580613eb25750808060200190516020811015613eaf57600080fd5b50515b613eed5760405162461bcd60e51b8152600401808060200182810382526024815260200180614d4d6024913960400191505060405180910390fd5b505050505050565b60005b600183510381101561409657600080848381518110613f1357fe5b6020026020010151858460010181518110613f2a57fe5b6020026020010151915091506000613f428383614635565b5090506000878560010181518110613f5657fe5b60200260200101519050600080836001600160a01b0316866001600160a01b031614613f8457826000613f88565b6000835b91509150600060028a51038810613f9f5788613fe0565b613fe07f0000000000000000000000000000000000000000000000000000000000000000878c8b60020181518110613fd357fe5b6020026020010151613c15565b905061400d7f00000000000000000000000000000000000000000000000000000000000000008888613c15565b6001600160a01b0316636d9a640a8484846040518463ffffffff1660e01b815260040180848152602001838152602001826001600160a01b031681526020019350505050600060405180830381600087803b15801561406b57600080fd5b505af115801561407f573d6000803e3d6000fd5b505060019099019850613ef8975050505050505050565b50505050565b6000826140ab57506000613d93565b828202828482816140b857fe5b04146140f55760405162461bcd60e51b8152600401808060200182810382526021815260200180614c7a6021913960400191505060405180910390fd5b9392505050565b6000808211614152576040805162461bcd60e51b815260206004820152601a60248201527f536166654d6174683a206469766973696f6e206279207a65726f000000000000604482015290519081900360640190fd5b81838161415b57fe5b049392505050565b61421182826040516024018080602001838152602001828103825284818151815260200191508051906020019080838360005b838110156141ae578181015183820152602001614196565b50505050905090810190601f1680156141db5780820380516001836020036101000a031916815260200191505b5060408051601f198184030181529190526020810180516001600160e01b03166309710a9d60e41b179052935061491292505050565b5050565b606060028351101561426e576040805162461bcd60e51b815260206004820152601b60248201527f4b65706c65724c6962726172793a20494e56414c49445f504154480000000000604482015290519081900360640190fd5b81518351146142ae5760405162461bcd60e51b8152600401808060200182810382526021815260200180614b586021913960400191505060405180910390fd5b825167ffffffffffffffff811180156142c657600080fd5b506040519080825280602002602001820160405280156142f0578160200160208202803683370190505b509050838160018351038151811061430457fe5b60209081029190910101528251600019015b8015613c0c576000806143468887600186038151811061433257fe5b6020026020010151888681518110613ba557fe5b9150915061437f84848151811061435957fe5b6020026020010151838388600188038151811061437257fe5b6020026020010151614933565b84600185038151811061438e57fe5b6020908102919091010152505060001901614316565b60008060006001600160a01b03167f00000000000000000000000000000000000000000000000000000000000000006001600160a01b031663e6a439058a8a6040518363ffffffff1660e01b815260040180836001600160a01b03168152602001826001600160a01b031681526020019250505060206040518083038186803b15801561443057600080fd5b505afa158015614444573d6000803e3d6000fd5b505050506040513d602081101561445a57600080fd5b50516001600160a01b03161415614518577f00000000000000000000000000000000000000000000000000000000000000006001600160a01b031663c9c6539689896040518363ffffffff1660e01b815260040180836001600160a01b03168152602001826001600160a01b0316815260200192505050602060405180830381600087803b1580156144eb57600080fd5b505af11580156144ff573d6000803e3d6000fd5b505050506040513d602081101561451557600080fd5b50505b6000806145467f00000000000000000000000000000000000000000000000000000000000000008b8b614713565b91509150816000148015614558575080155b1561456857879350869250614628565b6000614575898484614a57565b90508781116145c857858110156145bd5760405162461bcd60e51b8152600401808060200182810382526023815260200180614c106023913960400191505060405180910390fd5b889450925082614626565b60006145d5898486614a57565b9050898111156145e157fe5b878110156146205760405162461bcd60e51b8152600401808060200182810382526023815260200180614c9b6023913960400191505060405180910390fd5b94508793505b505b5050965096945050505050565b600080826001600160a01b0316846001600160a01b031614156146895760405162461bcd60e51b8152600401808060200182810382526023815260200180614c576023913960400191505060405180910390fd5b826001600160a01b0316846001600160a01b0316106146a95782846146ac565b83835b90925090506001600160a01b03821661470c576040805162461bcd60e51b815260206004820152601c60248201527f50616e63616b654c6962726172793a205a45524f5f4144445245535300000000604482015290519081900360640190fd5b9250929050565b60008060006147228585614635565b509050614730868686613c15565b5060008061473f888888613c15565b6001600160a01b0316630902f1ac6040518163ffffffff1660e01b815260040160606040518083038186803b15801561477757600080fd5b505afa15801561478b573d6000803e3d6000fd5b505050506040513d60608110156147a157600080fd5b5080516020909101516dffffffffffffffffffffffffffff91821693501690506001600160a01b03878116908416146147db5780826147de565b81815b90999098509650505050505050565b60006103e88211156148305760405162461bcd60e51b8152600401808060200182810382526023815260200180614cbe6023913960400191505060405180910390fd5b6000851161486f5760405162461bcd60e51b8152600401808060200182810382526028815260200180614d716028913960400191505060405180910390fd5b60008411801561487f5750600083115b6148ba5760405162461bcd60e51b8152600401808060200182810382526025815260200180614ba16025913960400191505060405180910390fd5b60006148d26148cb6103e885613d37565b879061409c565b905060006148e0828661409c565b905060006148fa836148f4896103e861409c565b90614afd565b905080828161490557fe5b0498975050505050505050565b80516a636f6e736f6c652e6c6f67602083016000808483855afa5050505050565b60006103e88211156149765760405162461bcd60e51b8152600401808060200182810382526023815260200180614cbe6023913960400191505060405180910390fd5b600085116149b55760405162461bcd60e51b815260040180806020018281038252602a815260200180614bc6602a913960400191505060405180910390fd5b6000841180156149c55750600083115b614a005760405162461bcd60e51b8152600401808060200182810382526026815260200180614d276026913960400191505060405180910390fd5b6000614a186103e8614a12878961409c565b9061409c565b90506000614a35614a2b6103e886613d37565b614a12878a613d37565b9050614a4c6001828481614a4557fe5b0490614afd565b979650505050505050565b6000808411614a975760405162461bcd60e51b8152600401808060200182810382526023815260200180614ce16023913960400191505060405180910390fd5b600083118015614aa75750600082115b614ae25760405162461bcd60e51b8152600401808060200182810382526026815260200180614d276026913960400191505060405180910390fd5b82614aed858461409c565b81614af457fe5b04949350505050565b6000828201838110156140f5576040805162461bcd60e51b815260206004820152601b60248201527f536166654d6174683a206164646974696f6e206f766572666c6f770000000000604482015290519081900360640190fdfe4b65706c65724c6962726172793a20494e56414c49445f4645455f4c454e4754484b65706c6572526f757465723a20494e53554646494349454e545f4f55545055545f414d4f554e544b65706c65724c6962726172793a20494e53554646494349454e545f4c495155494449545950616e63616b654c6962726172793a20494e53554646494349454e545f4f55545055545f414d4f554e5442616279526f757465723a2045585049524544000000000000000000000000004b65706c6572526f757465723a20494e53554646494349454e545f425f414d4f554e544b65706c6572526f757465723a204558434553534956455f494e5055545f414d4f554e5450616e63616b654c6962726172793a204944454e544943414c5f414444524553534553536166654d6174683a206d756c7469706c69636174696f6e206f766572666c6f774b65706c6572526f757465723a20494e53554646494349454e545f415f414d4f554e544b65706c65724c6962726172793a20494c4c4547414c5f5452414e534645525f46454550616e63616b654c6962726172793a20494e53554646494349454e545f414d4f554e545472616e7366657248656c7065723a204554485f5452414e534645525f4641494c454450616e63616b654c6962726172793a20494e53554646494349454e545f4c49515549444954595472616e7366657248656c7065723a205452414e534645525f46524f4d5f4641494c45444b65706c65724c6962726172793a20494e53554646494349454e545f494e5055545f414d4f554e54a2646970667358221220c97472c9f594a4f5a2303b34b0ffde018ae5a4d83599fd2e6976a6d3f94fdddb64736f6c63430007060033",
  "devdoc": {
    "kind": "dev",
    "methods": {},
    "version": 1
  },
  "userdoc": {
    "kind": "user",
    "methods": {},
    "version": 1
  },
  "storageLayout": {
    "storage": [
      {
        "astId": 11977,
        "contract": "contracts/swap/KeplerRouter.sol:KeplerRouter",
        "label": "masterChef",
        "offset": 0,
        "slot": "0",
        "type": "t_contract(IMasterChef)7995"
      }
    ],
    "types": {
      "t_contract(IMasterChef)7995": {
        "encoding": "inplace",
        "label": "contract IMasterChef",
        "numberOfBytes": "20"
      }
    }
  }
}