{
  "address": "0x9197689ffcA1AA006F3b295C1d1DB8147449c483",
  "abi": [
    {
      "inputs": [
        {
          "internalType": "contract IUser",
          "name": "_user",
          "type": "address"
        },
        {
          "internalType": "contract IERC20[]",
          "name": "_rewardToken",
          "type": "address[]"
        }
      ],
      "stateMutability": "nonpayable",
      "type": "constructor"
    },
    {
      "anonymous": false,
      "inputs": [
        {
          "indexed": false,
          "internalType": "uint256",
          "name": "luckyId",
          "type": "uint256"
        },
        {
          "indexed": false,
          "internalType": "uint256",
          "name": "timestamp",
          "type": "uint256"
        }
      ],
      "name": "LuckyPoolBegin",
      "type": "event"
    },
    {
      "anonymous": false,
      "inputs": [
        {
          "indexed": true,
          "internalType": "address",
          "name": "previousOwner",
          "type": "address"
        },
        {
          "indexed": true,
          "internalType": "address",
          "name": "newOwner",
          "type": "address"
        }
      ],
      "name": "OwnershipTransferred",
      "type": "event"
    },
    {
      "inputs": [],
      "name": "BEST_WINER_NUM",
      "outputs": [
        {
          "internalType": "uint256",
          "name": "",
          "type": "uint256"
        }
      ],
      "stateMutability": "view",
      "type": "function"
    },
    {
      "inputs": [],
      "name": "TOTAL_WINER_NUM",
      "outputs": [
        {
          "internalType": "uint256",
          "name": "",
          "type": "uint256"
        }
      ],
      "stateMutability": "view",
      "type": "function"
    },
    {
      "inputs": [],
      "name": "WINER_NUM",
      "outputs": [
        {
          "internalType": "uint256",
          "name": "",
          "type": "uint256"
        }
      ],
      "stateMutability": "view",
      "type": "function"
    },
    {
      "inputs": [
        {
          "internalType": "contract IERC20",
          "name": "_rewardToken",
          "type": "address"
        }
      ],
      "name": "addRewardToken",
      "outputs": [],
      "stateMutability": "nonpayable",
      "type": "function"
    },
    {
      "inputs": [
        {
          "internalType": "address[]",
          "name": "_luckyUsers",
          "type": "address[]"
        }
      ],
      "name": "beginLuckyPool",
      "outputs": [],
      "stateMutability": "nonpayable",
      "type": "function"
    },
    {
      "inputs": [],
      "name": "currentLuckyId",
      "outputs": [
        {
          "internalType": "uint256",
          "name": "",
          "type": "uint256"
        }
      ],
      "stateMutability": "view",
      "type": "function"
    },
    {
      "inputs": [
        {
          "internalType": "uint256",
          "name": "_id",
          "type": "uint256"
        }
      ],
      "name": "delRewardToken",
      "outputs": [],
      "stateMutability": "nonpayable",
      "type": "function"
    },
    {
      "inputs": [],
      "name": "nextLuckyId",
      "outputs": [
        {
          "internalType": "uint256",
          "name": "",
          "type": "uint256"
        }
      ],
      "stateMutability": "view",
      "type": "function"
    },
    {
      "inputs": [],
      "name": "owner",
      "outputs": [
        {
          "internalType": "address",
          "name": "",
          "type": "address"
        }
      ],
      "stateMutability": "view",
      "type": "function"
    },
    {
      "inputs": [
        {
          "internalType": "uint256",
          "name": "",
          "type": "uint256"
        }
      ],
      "name": "poolInfo",
      "outputs": [
        {
          "internalType": "uint256",
          "name": "beginAt",
          "type": "uint256"
        },
        {
          "internalType": "uint256",
          "name": "openAt",
          "type": "uint256"
        },
        {
          "internalType": "uint256",
          "name": "countAt",
          "type": "uint256"
        },
        {
          "internalType": "uint256",
          "name": "finishAt",
          "type": "uint256"
        },
        {
          "internalType": "uint256",
          "name": "userNum",
          "type": "uint256"
        },
        {
          "internalType": "uint256",
          "name": "claimNum",
          "type": "uint256"
        },
        {
          "internalType": "uint256",
          "name": "winers",
          "type": "uint256"
        },
        {
          "internalType": "address",
          "name": "bestUser",
          "type": "address"
        }
      ],
      "stateMutability": "view",
      "type": "function"
    },
    {
      "inputs": [],
      "name": "renounceOwnership",
      "outputs": [],
      "stateMutability": "nonpayable",
      "type": "function"
    },
    {
      "inputs": [
        {
          "internalType": "uint256",
          "name": "",
          "type": "uint256"
        }
      ],
      "name": "rewardToken",
      "outputs": [
        {
          "internalType": "contract IERC20",
          "name": "",
          "type": "address"
        }
      ],
      "stateMutability": "view",
      "type": "function"
    },
    {
      "inputs": [],
      "name": "rewardTokenLength",
      "outputs": [
        {
          "internalType": "uint256",
          "name": "",
          "type": "uint256"
        }
      ],
      "stateMutability": "view",
      "type": "function"
    },
    {
      "inputs": [
        {
          "internalType": "address",
          "name": "newOwner",
          "type": "address"
        }
      ],
      "name": "transferOwnership",
      "outputs": [],
      "stateMutability": "nonpayable",
      "type": "function"
    }
  ],
  "transactionHash": "0xf5c77ff4fb6fecd6a77579d1f41ec3130ddd701097163d001ebbbe16f56997b2",
  "args": [
    "0x1e4cbdbFd22e21C6e09Af5654ca9a66909fa8F38",
    [
      "0xBa88A299B180e92f04bD33D66fDD4F327E4F12a9",
      "0xc37091C04b3023fDCf292BDa563dE4914ae251C7"
    ]
  ],
  "solcInputHash": "d021aabbffeec1113ec2ea87e307e477",
  "bytecode": "0x608060405234801561001057600080fd5b50604051610e3e380380610e3e8339818101604052604081101561003357600080fd5b81516020830180516040519294929383019291908464010000000082111561005a57600080fd5b90830190602082018581111561006f57600080fd5b825186602082028301116401000000008211171561008c57600080fd5b82525081516020918201928201910280838360005b838110156100b95781810151838201526020016100a1565b5050505090500160405250505060006100d661015660201b60201c565b600080546001600160a01b0319166001600160a01b0383169081178255604051929350917f8be0079c531659141344cd1fd0a4f28419497f9722a3daafe3b4186f6b6457e0908290a350600180546001600160a01b0319166001600160a01b038416179055805161014e90600290602084019061015a565b5050506101d4565b3390565b8280548282559060005260206000209081019282156101af579160200282015b828111156101af57825182546001600160a01b0319166001600160a01b0390911617825560209092019160019091019061017a565b506101bb9291506101bf565b5090565b5b808211156101bb57600081556001016101c0565b610c5b806101e36000396000f3fe608060405234801561001057600080fd5b50600436106100ea5760003560e01c8063715018a61161008c5780638da5cb5b116100665780638da5cb5b146102b1578063e8395068146102b9578063ef4d7688146102c1578063f2fde38b146102c9576100ea565b8063715018a614610299578063823eb50e146102a1578063857cb94a146102a9576100ea565b80634e063f6b116100c85780634e063f6b14610221578063509b6c3f1461023b578063562c7cec1461027457806366cc8c821461027c576100ea565b80631526fe27146100ef5780631c03e6cc1461015657806343f798a61461017e575b600080fd5b61010c6004803603602081101561010557600080fd5b50356102ef565b604080519889526020890197909752878701959095526060870193909352608086019190915260a085015260c08401526001600160a01b031660e083015251908190036101000190f35b61017c6004803603602081101561016c57600080fd5b50356001600160a01b031661034e565b005b61017c6004803603602081101561019457600080fd5b8101906020810181356401000000008111156101af57600080fd5b8201836020820111156101c157600080fd5b803590602001918460208302840111640100000000831117156101e357600080fd5b919080806020026020016040519081016040528093929190818152602001838360200280828437600092019190915250929550610417945050505050565b610229610800565b60408051918252519081900360200190f35b6102586004803603602081101561025157600080fd5b5035610816565b604080516001600160a01b039092168252519081900360200190f35b610229610840565b61017c6004803603602081101561029257600080fd5b5035610846565b61017c6109a4565b610229610a62565b610229610a67565b610258610a6d565b610229610a7c565b610229610a81565b61017c600480360360208110156102df57600080fd5b50356001600160a01b0316610a86565b600481815481106102ff57600080fd5b600091825260209091206008909102018054600182015460028301546003840154600485015460058601546006870154600790970154959750939592949193909290916001600160a01b031688565b610356610a6d565b6001600160a01b0316336001600160a01b0316148061037457503330145b6103c5576040805162461bcd60e51b815260206004820152601e60248201527f6f6e6c79206f776e6572206f722073656c662063616e20646f20746869730000604482015290519081900360640190fd5b600280546001810182556000919091527f405787fa12a823e0f2b7631cc41b3ba8828b3321ca811111fa75cd3aa3bb5ace0180546001600160a01b0319166001600160a01b0392909216919091179055565b61041f610a6d565b6001600160a01b0316336001600160a01b0316148061043d57503330145b61048e576040805162461bcd60e51b815260206004820152601e60248201527f6f6e6c79206f776e6572206f722073656c662063616e20646f20746869730000604482015290519081900360640190fd5b6004548015610585576000600460018303815481106104a957fe5b6000918252602091829020604080516101008101825260089093029091018054835260018101549383018490526002810154918301919091526003810154606083015260048101546080830152600581015460a0830152600681015460c0830152600701546001600160a01b031660e08201529150158061053b575060608101511580159061053b5750428160600151105b610583576040805162461bcd60e51b81526020600482015260146024820152730d8c2e6e840e0deded840dcdee840ccd2dcd2e6d60631b604482015290519081900360640190fd5b505b80156107c15760006004600183038154811061059d57fe5b6000918252602091829020604080516101008101825260089093029091018054835260018101549383018490526002810154918301919091526003810154606083015260048101546080830152600581015460a0830152600681015460c0830152600701546001600160a01b031660e08201529150156107bf57604080516101008101825242808252602082018181529282018181526060830191825260006080840181815260a0850182815260c0860183815260e0870184815260048054600180820183559190965297517f8a35acfbc15ff81a39ae7d344fd709f28e8600b4aa8c65c6b64bfe7fe36bd19b60089096029586015597517f8a35acfbc15ff81a39ae7d344fd709f28e8600b4aa8c65c6b64bfe7fe36bd19c85015593517f8a35acfbc15ff81a39ae7d344fd709f28e8600b4aa8c65c6b64bfe7fe36bd19d84015593517f8a35acfbc15ff81a39ae7d344fd709f28e8600b4aa8c65c6b64bfe7fe36bd19e830155517f8a35acfbc15ff81a39ae7d344fd709f28e8600b4aa8c65c6b64bfe7fe36bd19f82015591517f8a35acfbc15ff81a39ae7d344fd709f28e8600b4aa8c65c6b64bfe7fe36bd1a0830155517f8a35acfbc15ff81a39ae7d344fd709f28e8600b4aa8c65c6b64bfe7fe36bd1a182015591517f8a35acfbc15ff81a39ae7d344fd709f28e8600b4aa8c65c6b64bfe7fe36bd1a290920180546001600160a01b0319166001600160a01b039093169290921790915591909101905b505b604080516000815242602082015281517ff54544980c2cb53c7f24ba0544d0e589b21cfd823d23bb10dee28b6814b20b5c929181900390910190a15050565b600554600090610811906001610b9a565b905090565b6002818154811061082657600080fd5b6000918252602090912001546001600160a01b0316905081565b60055481565b61084e610a6d565b6001600160a01b0316336001600160a01b0316148061086c57503330145b6108bd576040805162461bcd60e51b815260206004820152601e60248201527f6f6e6c79206f776e6572206f722073656c662063616e20646f20746869730000604482015290519081900360640190fd5b6002548110610900576040805162461bcd60e51b815260206004820152600a6024820152691a5b1b1959d85b081a5960b21b604482015290519081900360640190fd5b6002546000190181146109745760028054600019810190811061091f57fe5b600091825260209091200154600280546001600160a01b03909216918390811061094557fe5b9060005260206000200160006101000a8154816001600160a01b0302191690836001600160a01b031602179055505b600280548061097f57fe5b600082815260209020810160001990810180546001600160a01b031916905501905550565b6109ac610bfb565b6001600160a01b03166109bd610a6d565b6001600160a01b031614610a18576040805162461bcd60e51b815260206004820181905260248201527f4f776e61626c653a2063616c6c6572206973206e6f7420746865206f776e6572604482015290519081900360640190fd5b600080546040516001600160a01b03909116907f8be0079c531659141344cd1fd0a4f28419497f9722a3daafe3b4186f6b6457e0908390a3600080546001600160a01b0319169055565b600181565b60025490565b6000546001600160a01b031690565b600b81565b600a81565b610a8e610bfb565b6001600160a01b0316610a9f610a6d565b6001600160a01b031614610afa576040805162461bcd60e51b815260206004820181905260248201527f4f776e61626c653a2063616c6c6572206973206e6f7420746865206f776e6572604482015290519081900360640190fd5b6001600160a01b038116610b3f5760405162461bcd60e51b8152600401808060200182810382526026815260200180610c006026913960400191505060405180910390fd5b600080546040516001600160a01b03808516939216917f8be0079c531659141344cd1fd0a4f28419497f9722a3daafe3b4186f6b6457e091a3600080546001600160a01b0319166001600160a01b0392909216919091179055565b600082820183811015610bf4576040805162461bcd60e51b815260206004820152601b60248201527f536166654d6174683a206164646974696f6e206f766572666c6f770000000000604482015290519081900360640190fd5b9392505050565b339056fe4f776e61626c653a206e6577206f776e657220697320746865207a65726f2061646472657373a26469706673582212204262a94eba245207b3eeb20998fa6f37f5e0de8015a29adeada28d48ba5a195b64736f6c63430007060033",
  "devdoc": {
    "kind": "dev",
    "methods": {
      "owner()": {
        "details": "Returns the address of the current owner."
      },
      "renounceOwnership()": {
        "details": "Leaves the contract without owner. It will not be possible to call `onlyOwner` functions anymore. Can only be called by the current owner. NOTE: Renouncing ownership will leave the contract without an owner, thereby removing any functionality that is only available to the owner."
      },
      "transferOwnership(address)": {
        "details": "Transfers ownership of the contract to a new account (`newOwner`). Can only be called by the current owner."
      }
    },
    "version": 1
  },
  "userdoc": {
    "kind": "user",
    "methods": {},
    "version": 1
  },
  "storageLayout": {
    "storage": [
      {
        "astId": 7,
        "contract": "contracts/farm/LuckyPool.sol:LuckyPool",
        "label": "_owner",
        "offset": 0,
        "slot": "0",
        "type": "t_address"
      },
      {
        "astId": 4094,
        "contract": "contracts/farm/LuckyPool.sol:LuckyPool",
        "label": "user",
        "offset": 0,
        "slot": "1",
        "type": "t_contract(IUser)8029"
      },
      {
        "astId": 4097,
        "contract": "contracts/farm/LuckyPool.sol:LuckyPool",
        "label": "rewardToken",
        "offset": 0,
        "slot": "2",
        "type": "t_array(t_contract(IERC20)1045)dyn_storage"
      },
      {
        "astId": 4099,
        "contract": "contracts/farm/LuckyPool.sol:LuckyPool",
        "label": "data",
        "offset": 0,
        "slot": "3",
        "type": "t_bytes32"
      },
      {
        "astId": 4119,
        "contract": "contracts/farm/LuckyPool.sol:LuckyPool",
        "label": "poolInfo",
        "offset": 0,
        "slot": "4",
        "type": "t_array(t_struct(PoolInfo)4116_storage)dyn_storage"
      },
      {
        "astId": 4121,
        "contract": "contracts/farm/LuckyPool.sol:LuckyPool",
        "label": "currentLuckyId",
        "offset": 0,
        "slot": "5",
        "type": "t_uint256"
      },
      {
        "astId": 4126,
        "contract": "contracts/farm/LuckyPool.sol:LuckyPool",
        "label": "poolRewardToken",
        "offset": 0,
        "slot": "6",
        "type": "t_mapping(t_uint256,t_array(t_contract(IERC20)1045)dyn_storage)"
      },
      {
        "astId": 4132,
        "contract": "contracts/farm/LuckyPool.sol:LuckyPool",
        "label": "poolRewardAmount",
        "offset": 0,
        "slot": "7",
        "type": "t_mapping(t_uint256,t_mapping(t_contract(IERC20)1045,t_uint256))"
      },
      {
        "astId": 4136,
        "contract": "contracts/farm/LuckyPool.sol:LuckyPool",
        "label": "luckyUser",
        "offset": 0,
        "slot": "8",
        "type": "t_mapping(t_address,t_uint256)"
      },
      {
        "astId": 4142,
        "contract": "contracts/farm/LuckyPool.sol:LuckyPool",
        "label": "winers",
        "offset": 0,
        "slot": "9",
        "type": "t_mapping(t_uint256,t_mapping(t_address,t_uint8))"
      }
    ],
    "types": {
      "t_address": {
        "encoding": "inplace",
        "label": "address",
        "numberOfBytes": "20"
      },
      "t_array(t_contract(IERC20)1045)dyn_storage": {
        "base": "t_contract(IERC20)1045",
        "encoding": "dynamic_array",
        "label": "contract IERC20[]",
        "numberOfBytes": "32"
      },
      "t_array(t_struct(PoolInfo)4116_storage)dyn_storage": {
        "base": "t_struct(PoolInfo)4116_storage",
        "encoding": "dynamic_array",
        "label": "struct LuckyPool.PoolInfo[]",
        "numberOfBytes": "32"
      },
      "t_bytes32": {
        "encoding": "inplace",
        "label": "bytes32",
        "numberOfBytes": "32"
      },
      "t_contract(IERC20)1045": {
        "encoding": "inplace",
        "label": "contract IERC20",
        "numberOfBytes": "20"
      },
      "t_contract(IUser)8029": {
        "encoding": "inplace",
        "label": "contract IUser",
        "numberOfBytes": "20"
      },
      "t_mapping(t_address,t_uint256)": {
        "encoding": "mapping",
        "key": "t_address",
        "label": "mapping(address => uint256)",
        "numberOfBytes": "32",
        "value": "t_uint256"
      },
      "t_mapping(t_address,t_uint8)": {
        "encoding": "mapping",
        "key": "t_address",
        "label": "mapping(address => uint8)",
        "numberOfBytes": "32",
        "value": "t_uint8"
      },
      "t_mapping(t_contract(IERC20)1045,t_uint256)": {
        "encoding": "mapping",
        "key": "t_contract(IERC20)1045",
        "label": "mapping(contract IERC20 => uint256)",
        "numberOfBytes": "32",
        "value": "t_uint256"
      },
      "t_mapping(t_uint256,t_array(t_contract(IERC20)1045)dyn_storage)": {
        "encoding": "mapping",
        "key": "t_uint256",
        "label": "mapping(uint256 => contract IERC20[])",
        "numberOfBytes": "32",
        "value": "t_array(t_contract(IERC20)1045)dyn_storage"
      },
      "t_mapping(t_uint256,t_mapping(t_address,t_uint8))": {
        "encoding": "mapping",
        "key": "t_uint256",
        "label": "mapping(uint256 => mapping(address => uint8))",
        "numberOfBytes": "32",
        "value": "t_mapping(t_address,t_uint8)"
      },
      "t_mapping(t_uint256,t_mapping(t_contract(IERC20)1045,t_uint256))": {
        "encoding": "mapping",
        "key": "t_uint256",
        "label": "mapping(uint256 => mapping(contract IERC20 => uint256))",
        "numberOfBytes": "32",
        "value": "t_mapping(t_contract(IERC20)1045,t_uint256)"
      },
      "t_struct(PoolInfo)4116_storage": {
        "encoding": "inplace",
        "label": "struct LuckyPool.PoolInfo",
        "members": [
          {
            "astId": 4101,
            "contract": "contracts/farm/LuckyPool.sol:LuckyPool",
            "label": "beginAt",
            "offset": 0,
            "slot": "0",
            "type": "t_uint256"
          },
          {
            "astId": 4103,
            "contract": "contracts/farm/LuckyPool.sol:LuckyPool",
            "label": "openAt",
            "offset": 0,
            "slot": "1",
            "type": "t_uint256"
          },
          {
            "astId": 4105,
            "contract": "contracts/farm/LuckyPool.sol:LuckyPool",
            "label": "countAt",
            "offset": 0,
            "slot": "2",
            "type": "t_uint256"
          },
          {
            "astId": 4107,
            "contract": "contracts/farm/LuckyPool.sol:LuckyPool",
            "label": "finishAt",
            "offset": 0,
            "slot": "3",
            "type": "t_uint256"
          },
          {
            "astId": 4109,
            "contract": "contracts/farm/LuckyPool.sol:LuckyPool",
            "label": "userNum",
            "offset": 0,
            "slot": "4",
            "type": "t_uint256"
          },
          {
            "astId": 4111,
            "contract": "contracts/farm/LuckyPool.sol:LuckyPool",
            "label": "claimNum",
            "offset": 0,
            "slot": "5",
            "type": "t_uint256"
          },
          {
            "astId": 4113,
            "contract": "contracts/farm/LuckyPool.sol:LuckyPool",
            "label": "winers",
            "offset": 0,
            "slot": "6",
            "type": "t_uint256"
          },
          {
            "astId": 4115,
            "contract": "contracts/farm/LuckyPool.sol:LuckyPool",
            "label": "bestUser",
            "offset": 0,
            "slot": "7",
            "type": "t_address"
          }
        ],
        "numberOfBytes": "256"
      },
      "t_uint256": {
        "encoding": "inplace",
        "label": "uint256",
        "numberOfBytes": "32"
      },
      "t_uint8": {
        "encoding": "inplace",
        "label": "uint8",
        "numberOfBytes": "1"
      }
    }
  }
}