{
  "address": "0x6dF88a93da170C07C26EF65772d3AfEc0551DDEB",
  "abi": [
    {
      "inputs": [
        {
          "internalType": "contract IUser",
          "name": "_user",
          "type": "address"
        },
        {
          "internalType": "address",
          "name": "_weth",
          "type": "address"
        }
      ],
      "stateMutability": "nonpayable",
      "type": "constructor"
    },
    {
      "anonymous": false,
      "inputs": [
        {
          "indexed": true,
          "internalType": "address",
          "name": "user",
          "type": "address"
        },
        {
          "indexed": true,
          "internalType": "address",
          "name": "inviter",
          "type": "address"
        },
        {
          "indexed": true,
          "internalType": "address",
          "name": "pair",
          "type": "address"
        },
        {
          "indexed": false,
          "internalType": "uint256",
          "name": "lockId",
          "type": "uint256"
        },
        {
          "indexed": false,
          "internalType": "uint256",
          "name": "amount",
          "type": "uint256"
        },
        {
          "indexed": false,
          "internalType": "uint256",
          "name": "shares",
          "type": "uint256"
        },
        {
          "indexed": false,
          "internalType": "uint256",
          "name": "lockType",
          "type": "uint256"
        }
      ],
      "name": "Deposit",
      "type": "event"
    },
    {
      "anonymous": false,
      "inputs": [
        {
          "indexed": true,
          "internalType": "address",
          "name": "previousOwner",
          "type": "address"
        },
        {
          "indexed": true,
          "internalType": "address",
          "name": "newOwner",
          "type": "address"
        }
      ],
      "name": "OwnershipTransferred",
      "type": "event"
    },
    {
      "anonymous": false,
      "inputs": [
        {
          "indexed": true,
          "internalType": "address",
          "name": "user",
          "type": "address"
        },
        {
          "indexed": true,
          "internalType": "address",
          "name": "inviter",
          "type": "address"
        },
        {
          "indexed": true,
          "internalType": "address",
          "name": "pair",
          "type": "address"
        },
        {
          "indexed": false,
          "internalType": "uint256",
          "name": "lockId",
          "type": "uint256"
        },
        {
          "indexed": false,
          "internalType": "uint256",
          "name": "amount",
          "type": "uint256"
        },
        {
          "indexed": false,
          "internalType": "uint256",
          "name": "shares",
          "type": "uint256"
        },
        {
          "indexed": false,
          "internalType": "uint256",
          "name": "lockType",
          "type": "uint256"
        }
      ],
      "name": "Withdraw",
      "type": "event"
    },
    {
      "inputs": [],
      "name": "WETH",
      "outputs": [
        {
          "internalType": "address",
          "name": "",
          "type": "address"
        }
      ],
      "stateMutability": "view",
      "type": "function"
    },
    {
      "inputs": [
        {
          "internalType": "contract IKeplerPair",
          "name": "_pair",
          "type": "address"
        },
        {
          "internalType": "address",
          "name": "_token",
          "type": "address"
        }
      ],
      "name": "claimInviteMine",
      "outputs": [],
      "stateMutability": "nonpayable",
      "type": "function"
    },
    {
      "inputs": [
        {
          "internalType": "contract IKeplerPair",
          "name": "_pair",
          "type": "address"
        },
        {
          "internalType": "address",
          "name": "_token",
          "type": "address"
        }
      ],
      "name": "claimMine",
      "outputs": [],
      "stateMutability": "nonpayable",
      "type": "function"
    },
    {
      "inputs": [
        {
          "internalType": "uint256",
          "name": "id",
          "type": "uint256"
        }
      ],
      "name": "createSnapshot",
      "outputs": [],
      "stateMutability": "nonpayable",
      "type": "function"
    },
    {
      "inputs": [],
      "name": "currentSnapshotId",
      "outputs": [
        {
          "internalType": "uint256",
          "name": "",
          "type": "uint256"
        }
      ],
      "stateMutability": "view",
      "type": "function"
    },
    {
      "inputs": [
        {
          "internalType": "contract IKeplerPair",
          "name": "_pair",
          "type": "address"
        },
        {
          "internalType": "uint256",
          "name": "_amount",
          "type": "uint256"
        },
        {
          "internalType": "uint256",
          "name": "_lockType",
          "type": "uint256"
        }
      ],
      "name": "deposit",
      "outputs": [],
      "stateMutability": "nonpayable",
      "type": "function"
    },
    {
      "inputs": [
        {
          "internalType": "contract IKeplerPair",
          "name": "_pair",
          "type": "address"
        },
        {
          "internalType": "uint256",
          "name": "_amount",
          "type": "uint256"
        },
        {
          "internalType": "uint256",
          "name": "_lockType",
          "type": "uint256"
        },
        {
          "internalType": "address",
          "name": "to",
          "type": "address"
        }
      ],
      "name": "depositFor",
      "outputs": [],
      "stateMutability": "nonpayable",
      "type": "function"
    },
    {
      "inputs": [
        {
          "internalType": "contract IKeplerPair",
          "name": "pair",
          "type": "address"
        },
        {
          "internalType": "contract IERC20",
          "name": "token",
          "type": "address"
        },
        {
          "internalType": "uint256",
          "name": "amount",
          "type": "uint256"
        }
      ],
      "name": "doInviteMiner",
      "outputs": [],
      "stateMutability": "nonpayable",
      "type": "function"
    },
    {
      "inputs": [
        {
          "internalType": "contract IKeplerPair",
          "name": "pair",
          "type": "address"
        },
        {
          "internalType": "contract IERC20",
          "name": "token",
          "type": "address"
        },
        {
          "internalType": "uint256",
          "name": "amount",
          "type": "uint256"
        }
      ],
      "name": "doMiner",
      "outputs": [],
      "stateMutability": "nonpayable",
      "type": "function"
    },
    {
      "inputs": [
        {
          "internalType": "contract IKeplerPair",
          "name": "_pair",
          "type": "address"
        }
      ],
      "name": "getInvitePoolInfo",
      "outputs": [
        {
          "internalType": "uint256",
          "name": "totalShares",
          "type": "uint256"
        },
        {
          "internalType": "uint256",
          "name": "token0AccPerShare",
          "type": "uint256"
        },
        {
          "internalType": "uint256",
          "name": "token1AccPerShare",
          "type": "uint256"
        }
      ],
      "stateMutability": "view",
      "type": "function"
    },
    {
      "inputs": [
        {
          "internalType": "contract IKeplerPair",
          "name": "_pair",
          "type": "address"
        },
        {
          "internalType": "address",
          "name": "_user",
          "type": "address"
        }
      ],
      "name": "getInviteUserInfo",
      "outputs": [
        {
          "internalType": "uint256",
          "name": "amount",
          "type": "uint256"
        },
        {
          "internalType": "uint256",
          "name": "shares",
          "type": "uint256"
        },
        {
          "internalType": "uint256",
          "name": "token0Debt",
          "type": "uint256"
        },
        {
          "internalType": "uint256",
          "name": "token1Debt",
          "type": "uint256"
        },
        {
          "internalType": "uint256",
          "name": "token0Pending",
          "type": "uint256"
        },
        {
          "internalType": "uint256",
          "name": "token1Pending",
          "type": "uint256"
        }
      ],
      "stateMutability": "view",
      "type": "function"
    },
    {
      "inputs": [
        {
          "internalType": "contract IKeplerPair",
          "name": "pair",
          "type": "address"
        },
        {
          "internalType": "address",
          "name": "inviter",
          "type": "address"
        }
      ],
      "name": "getInviterAmount",
      "outputs": [
        {
          "internalType": "uint256",
          "name": "",
          "type": "uint256"
        }
      ],
      "stateMutability": "view",
      "type": "function"
    },
    {
      "inputs": [
        {
          "internalType": "contract IKeplerPair",
          "name": "_pair",
          "type": "address"
        }
      ],
      "name": "getPoolInfo",
      "outputs": [
        {
          "internalType": "uint256",
          "name": "totalShares",
          "type": "uint256"
        },
        {
          "internalType": "uint256",
          "name": "token0AccPerShare",
          "type": "uint256"
        },
        {
          "internalType": "uint256",
          "name": "token1AccPerShare",
          "type": "uint256"
        }
      ],
      "stateMutability": "view",
      "type": "function"
    },
    {
      "inputs": [
        {
          "internalType": "uint256",
          "name": "lockType",
          "type": "uint256"
        }
      ],
      "name": "getType",
      "outputs": [
        {
          "internalType": "uint256",
          "name": "",
          "type": "uint256"
        },
        {
          "internalType": "uint256",
          "name": "",
          "type": "uint256"
        }
      ],
      "stateMutability": "pure",
      "type": "function"
    },
    {
      "inputs": [
        {
          "internalType": "contract IKeplerPair",
          "name": "pair",
          "type": "address"
        },
        {
          "internalType": "address",
          "name": "_user",
          "type": "address"
        },
        {
          "internalType": "uint256",
          "name": "lockType",
          "type": "uint256"
        }
      ],
      "name": "getUserAmount",
      "outputs": [
        {
          "internalType": "uint256",
          "name": "",
          "type": "uint256"
        }
      ],
      "stateMutability": "view",
      "type": "function"
    },
    {
      "inputs": [
        {
          "internalType": "contract IKeplerPair",
          "name": "_pair",
          "type": "address"
        },
        {
          "internalType": "address",
          "name": "_user",
          "type": "address"
        }
      ],
      "name": "getUserInfo",
      "outputs": [
        {
          "internalType": "uint256",
          "name": "amount",
          "type": "uint256"
        },
        {
          "internalType": "uint256",
          "name": "shares",
          "type": "uint256"
        },
        {
          "internalType": "uint256",
          "name": "token0Debt",
          "type": "uint256"
        },
        {
          "internalType": "uint256",
          "name": "token1Debt",
          "type": "uint256"
        },
        {
          "internalType": "uint256",
          "name": "token0Pending",
          "type": "uint256"
        },
        {
          "internalType": "uint256",
          "name": "token1Pending",
          "type": "uint256"
        }
      ],
      "stateMutability": "view",
      "type": "function"
    },
    {
      "inputs": [
        {
          "internalType": "address",
          "name": "pair",
          "type": "address"
        },
        {
          "internalType": "address",
          "name": "_user",
          "type": "address"
        }
      ],
      "name": "getUserSnapshot",
      "outputs": [
        {
          "internalType": "uint256",
          "name": "",
          "type": "uint256"
        }
      ],
      "stateMutability": "view",
      "type": "function"
    },
    {
      "inputs": [
        {
          "internalType": "contract IKeplerPair",
          "name": "",
          "type": "address"
        }
      ],
      "name": "inviterPoolInfo",
      "outputs": [
        {
          "internalType": "uint256",
          "name": "totalShares",
          "type": "uint256"
        },
        {
          "internalType": "uint256",
          "name": "token0AccPerShare",
          "type": "uint256"
        },
        {
          "internalType": "uint256",
          "name": "token1AccPerShare",
          "type": "uint256"
        },
        {
          "internalType": "bool",
          "name": "avaliable",
          "type": "bool"
        }
      ],
      "stateMutability": "view",
      "type": "function"
    },
    {
      "inputs": [
        {
          "internalType": "contract IKeplerPair",
          "name": "",
          "type": "address"
        },
        {
          "internalType": "address",
          "name": "",
          "type": "address"
        }
      ],
      "name": "inviterUserInfo",
      "outputs": [
        {
          "internalType": "uint256",
          "name": "amount",
          "type": "uint256"
        },
        {
          "internalType": "uint256",
          "name": "shares",
          "type": "uint256"
        },
        {
          "internalType": "uint256",
          "name": "token0Debt",
          "type": "uint256"
        },
        {
          "internalType": "uint256",
          "name": "token1Debt",
          "type": "uint256"
        },
        {
          "internalType": "uint256",
          "name": "token0Pending",
          "type": "uint256"
        },
        {
          "internalType": "uint256",
          "name": "token1Pending",
          "type": "uint256"
        }
      ],
      "stateMutability": "view",
      "type": "function"
    },
    {
      "inputs": [],
      "name": "owner",
      "outputs": [
        {
          "internalType": "address",
          "name": "",
          "type": "address"
        }
      ],
      "stateMutability": "view",
      "type": "function"
    },
    {
      "inputs": [
        {
          "internalType": "contract IKeplerPair",
          "name": "",
          "type": "address"
        }
      ],
      "name": "poolInfo",
      "outputs": [
        {
          "internalType": "uint256",
          "name": "totalShares",
          "type": "uint256"
        },
        {
          "internalType": "uint256",
          "name": "token0AccPerShare",
          "type": "uint256"
        },
        {
          "internalType": "uint256",
          "name": "token1AccPerShare",
          "type": "uint256"
        },
        {
          "internalType": "bool",
          "name": "avaliable",
          "type": "bool"
        }
      ],
      "stateMutability": "view",
      "type": "function"
    },
    {
      "inputs": [],
      "name": "renounceOwnership",
      "outputs": [],
      "stateMutability": "nonpayable",
      "type": "function"
    },
    {
      "inputs": [
        {
          "internalType": "address",
          "name": "_snapshotCreateCaller",
          "type": "address"
        }
      ],
      "name": "setSnapshotCreateCaller",
      "outputs": [],
      "stateMutability": "nonpayable",
      "type": "function"
    },
    {
      "inputs": [],
      "name": "snapshotCreateCaller",
      "outputs": [
        {
          "internalType": "address",
          "name": "",
          "type": "address"
        }
      ],
      "stateMutability": "view",
      "type": "function"
    },
    {
      "inputs": [
        {
          "internalType": "address",
          "name": "newOwner",
          "type": "address"
        }
      ],
      "name": "transferOwnership",
      "outputs": [],
      "stateMutability": "nonpayable",
      "type": "function"
    },
    {
      "inputs": [
        {
          "internalType": "contract IKeplerPair",
          "name": "",
          "type": "address"
        },
        {
          "internalType": "address",
          "name": "",
          "type": "address"
        }
      ],
      "name": "userInfo",
      "outputs": [
        {
          "internalType": "uint256",
          "name": "amount",
          "type": "uint256"
        },
        {
          "internalType": "uint256",
          "name": "shares",
          "type": "uint256"
        },
        {
          "internalType": "uint256",
          "name": "token0Debt",
          "type": "uint256"
        },
        {
          "internalType": "uint256",
          "name": "token1Debt",
          "type": "uint256"
        },
        {
          "internalType": "uint256",
          "name": "token0Pending",
          "type": "uint256"
        },
        {
          "internalType": "uint256",
          "name": "token1Pending",
          "type": "uint256"
        }
      ],
      "stateMutability": "view",
      "type": "function"
    },
    {
      "inputs": [
        {
          "internalType": "contract IKeplerPair",
          "name": "",
          "type": "address"
        },
        {
          "internalType": "address",
          "name": "",
          "type": "address"
        },
        {
          "internalType": "uint256",
          "name": "",
          "type": "uint256"
        }
      ],
      "name": "userLockInfo",
      "outputs": [
        {
          "internalType": "uint256",
          "name": "amount",
          "type": "uint256"
        },
        {
          "internalType": "uint256",
          "name": "shares",
          "type": "uint256"
        },
        {
          "internalType": "uint256",
          "name": "lockType",
          "type": "uint256"
        },
        {
          "internalType": "uint256",
          "name": "depositAt",
          "type": "uint256"
        },
        {
          "internalType": "uint256",
          "name": "expireAt",
          "type": "uint256"
        }
      ],
      "stateMutability": "view",
      "type": "function"
    },
    {
      "inputs": [
        {
          "internalType": "contract IKeplerPair",
          "name": "",
          "type": "address"
        },
        {
          "internalType": "address",
          "name": "",
          "type": "address"
        },
        {
          "internalType": "uint256",
          "name": "",
          "type": "uint256"
        }
      ],
      "name": "userLockTypeAmount",
      "outputs": [
        {
          "internalType": "uint256",
          "name": "",
          "type": "uint256"
        }
      ],
      "stateMutability": "view",
      "type": "function"
    },
    {
      "inputs": [
        {
          "internalType": "contract IKeplerPair",
          "name": "_pair",
          "type": "address"
        },
        {
          "internalType": "uint256",
          "name": "_lockId",
          "type": "uint256"
        }
      ],
      "name": "withdraw",
      "outputs": [],
      "stateMutability": "nonpayable",
      "type": "function"
    }
  ],
  "transactionHash": "0xce84a807448dde1ce4dc4585973d611aac54b1ca6e677c6257f86215321e49be",
  "args": [
    "0x1e4cbdbFd22e21C6e09Af5654ca9a66909fa8F38",
    "0x6f51626EB559c497508380B62E549BdAf0D37DA8"
  ],
  "solcInputHash": "d021aabbffeec1113ec2ea87e307e477",
  "bytecode": "0x60a06040523480156200001157600080fd5b5060405162003a7238038062003a72833981810160405260408110156200003757600080fd5b50805160209091015160006200004c620000cd565b600080546001600160a01b0319166001600160a01b0383169081178255604051929350917f8be0079c531659141344cd1fd0a4f28419497f9722a3daafe3b4186f6b6457e0908290a350600180546001600160a01b0319166001600160a01b03939093169290921790915560601b6001600160601b031916608052620000d1565b3390565b60805160601c61396f620001036000398061164a528061218c528061225552806123e752806124b5525061396f6000f3fe608060405234801561001057600080fd5b50600436106101cf5760003560e01c80638d32ccc211610104578063ad5c4648116100a2578063f2801fe711610071578063f2801fe71461066f578063f2fde38b1461069d578063f3fef3a3146106c3578063f741198f146106ef576101cf565b8063ad5c4648146105d1578063ceb04d53146105d9578063cefbc4961461060f578063ef3a217414610635576101cf565b8063964f5517116100de578063964f551714610550578063970875ce1461056d5780639a7b5f1114610575578063a260988c1461059b576101cf565b80638d32ccc2146104d45780638da5cb5b146105225780638f2a1e511461052a576101cf565b80632526da0e116101715780632d2d55eb1161014b5780632d2d55eb146104325780633cb79e64146104605780634036ab7814610496578063715018a6146104cc576101cf565b80632526da0e1461038e57806329aaf873146103bc5780632cae426b146103f2576101cf565b80630f208beb116101ad5780630f208beb146102ad578063132f129f1461030e57806315d68ed71461033c5780631dcb47d41461036a576101cf565b806306bfa938146101d457806308cc72d8146102185780630efe6a8b14610279575b600080fd5b6101fa600480360360208110156101ea57600080fd5b50356001600160a01b031661071d565b60408051938452602084019290925282820152519081900360600190f35b61024e6004803603606081101561022e57600080fd5b506001600160a01b03813581169160208101359091169060400135610772565b6040805195865260208601949094528484019290925260608401526080830152519081900360a00190f35b6102ab6004803603606081101561028f57600080fd5b506001600160a01b0381351690602081013590604001356107b2565b005b6102db600480360360408110156102c357600080fd5b506001600160a01b03813581169160200135166107c3565b604080519687526020870195909552858501939093526060850191909152608084015260a0830152519081900360c00190f35b6102ab6004803603604081101561032457600080fd5b506001600160a01b0381358116916020013516610803565b6102ab6004803603604081101561035257600080fd5b506001600160a01b0381358116916020013516610b0d565b610372610d7f565b604080516001600160a01b039092168252519081900360200190f35b6102db600480360360408110156103a457600080fd5b506001600160a01b0381358116916020013516610d8e565b6102ab600480360360608110156103d257600080fd5b506001600160a01b03813581169160208101359091169060400135610dce565b6104206004803603604081101561040857600080fd5b506001600160a01b0381358116916020013516611030565b60408051918252519081900360200190f35b6104206004803603604081101561044857600080fd5b506001600160a01b038135811691602001351661105d565b6102ab6004803603606081101561047657600080fd5b506001600160a01b0381358116916020810135909116906040013561111d565b6104b3600480360360208110156104ac57600080fd5b5035611368565b6040805192835260208301919091528051918290030190f35b6102ab611407565b6104fa600480360360208110156104ea57600080fd5b50356001600160a01b03166114c5565b6040805194855260208501939093528383019190915215156060830152519081900360800190f35b6103726114ef565b6102ab6004803603602081101561054057600080fd5b50356001600160a01b03166114fe565b6102ab6004803603602081101561056657600080fd5b5035611594565b6104206115e2565b6104fa6004803603602081101561058b57600080fd5b50356001600160a01b03166115e8565b610420600480360360608110156105b157600080fd5b506001600160a01b03813581169160208101359091169060400135611612565b610372611648565b610420600480360360608110156105ef57600080fd5b506001600160a01b0381358116916020810135909116906040013561166c565b6101fa6004803603602081101561062557600080fd5b50356001600160a01b031661168f565b6102ab6004803603608081101561064b57600080fd5b506001600160a01b03813581169160208101359160408201359160600135166116e4565b6102db6004803603604081101561068557600080fd5b506001600160a01b0381358116916020013516611b87565b6102ab600480360360208110156106b357600080fd5b50356001600160a01b0316611c03565b6102ab600480360360408110156106d957600080fd5b506001600160a01b038135169060200135611d17565b6102db6004803603604081101561070557600080fd5b506001600160a01b038135811691602001351661278f565b6001600160a01b0316600090815260066020908152604091829020825160808101845281548082526001830154938201849052600283015494820185905260039092015460ff16151560609091015292909190565b6009602090815260009384526040808520825292845282842090528252902080546001820154600283015460038401546004909401549293919290919085565b6107be838383336116e4565b505050565b6007602090815260009283526040808420909152908252902080546001820154600283015460038401546004850154600590950154939492939192909186565b6000826001600160a01b0316630dfe16816040518163ffffffff1660e01b815260040160206040518083038186803b15801561083e57600080fd5b505afa158015610852573d6000803e3d6000fd5b505050506040513d602081101561086857600080fd5b50516040805163d21220a760e01b815290519192506000916001600160a01b0386169163d21220a7916004808301926020929190829003018186803b1580156108b057600080fd5b505afa1580156108c4573d6000803e3d6000fd5b505050506040513d60208110156108da57600080fd5b50516001600160a01b03851660009081526007602090815260408083203384529091529020549091508061091057505050610b09565b826001600160a01b0316846001600160a01b031614156109f0576001600160a01b0385166000908152600b60209081526040808320600190810154600c845282852033865290935292209182015460028301546004909301549192909161099d8161099784610991670de0b6b3a764000061098b8a8a61280b565b90612864565b906128cb565b90612928565b94506109b5670de0b6b3a764000061098b868661280b565b6001600160a01b038a166000908152600c602090815260408083203384529091528120600281019290925560049091015550610afa92505050565b816001600160a01b0316846001600160a01b03161415610abd576001600160a01b0385166000908152600b6020908152604080832060020154600c835281842033855290925290912060018101546003820154600590920154909190610a6a8161099784610991670de0b6b3a764000061098b8a8a61280b565b9450610a82670de0b6b3a764000061098b868661280b565b6001600160a01b038a166000908152600c602090815260408083203384529091528120600381019290925560059091015550610afa92505050565b6040805162461bcd60e51b815260206004820152600d60248201526c34b63632b3b0b6103a37b5b2b760991b604482015290519081900360640190fd5b610b05843383612982565b5050505b5050565b6000826001600160a01b0316630dfe16816040518163ffffffff1660e01b815260040160206040518083038186803b158015610b4857600080fd5b505afa158015610b5c573d6000803e3d6000fd5b505050506040513d6020811015610b7257600080fd5b50516040805163d21220a760e01b815290519192506000916001600160a01b0386169163d21220a7916004808301926020929190829003018186803b158015610bba57600080fd5b505afa158015610bce573d6000803e3d6000fd5b505050506040513d6020811015610be457600080fd5b5051905060006001600160a01b038481169084161415610cb2576001600160a01b038516600090815260066020908152604080832060019081015460078452828520338652909352922091820154600283015460049093015491929091610c5f8161099784610991670de0b6b3a764000061098b8a8a61280b565b9450610c77670de0b6b3a764000061098b868661280b565b6001600160a01b038a1660009081526007602090815260408083203384529091528120600281019290925560049091015550610afa92505050565b816001600160a01b0316846001600160a01b03161415610abd576001600160a01b0385166000908152600660209081526040808320600201546007835281842033855290925290912060018101546003820154600590920154909190610d2c8161099784610991670de0b6b3a764000061098b8a8a61280b565b9450610d44670de0b6b3a764000061098b868661280b565b6001600160a01b038a1660009081526007602090815260408083203384529091528120600381019290925560059091015550610afa92505050565b6005546001600160a01b031681565b600c602090815260009283526040808420909152908252902080546001820154600283015460038401546004850154600590950154939492939192909186565b610dd7836129d4565b6000836001600160a01b0316630dfe16816040518163ffffffff1660e01b815260040160206040518083038186803b158015610e1257600080fd5b505afa158015610e26573d6000803e3d6000fd5b505050506040513d6020811015610e3c57600080fd5b50516040805163d21220a760e01b815290519192506000916001600160a01b0387169163d21220a7916004808301926020929190829003018186803b158015610e8457600080fd5b505afa158015610e98573d6000803e3d6000fd5b505050506040513d6020811015610eae57600080fd5b505190506001600160a01b038481169083161480610edd5750806001600160a01b0316846001600160a01b0316145b610f1e576040805162461bcd60e51b815260206004820152600d60248201526c34b63632b3b0b6103a37b5b2b760991b604482015290519081900360640190fd5b6001600160a01b0384811690831614610f3985333087612a77565b6001600160a01b038616600090815260066020908152604091829020825160808101845281548082526001830154938201939093526002820154938101939093526003015460ff1615156060830152610f9557505050506107be565b8115610fe3578051610fc290610fb79061098b88670de0b6b3a764000061280b565b602083015190612928565b6001600160a01b038816600090815260066020526040902060010155611027565b805161100a90610fff9061098b88670de0b6b3a764000061280b565b604083015190612928565b6001600160a01b0388166000908152600660205260409020600201555b50505050505050565b6001600160a01b038083166000908152600c60209081526040808320938516835292905220545b92915050565b60006002546000141561109657506001600160a01b03808316600090815260076020908152604080832093851683529290522054611057565b6002546001600160a01b0380851660009081526003602090815260408083209387168352929052205414156110f157506001600160a01b03808316600090815260046020908152604080832093851683529290522054611057565b506001600160a01b03808316600090815260076020908152604080832093851683529290522054611057565b611126836129d4565b6000836001600160a01b0316630dfe16816040518163ffffffff1660e01b815260040160206040518083038186803b15801561116157600080fd5b505afa158015611175573d6000803e3d6000fd5b505050506040513d602081101561118b57600080fd5b50516040805163d21220a760e01b815290519192506000916001600160a01b0387169163d21220a7916004808301926020929190829003018186803b1580156111d357600080fd5b505afa1580156111e7573d6000803e3d6000fd5b505050506040513d60208110156111fd57600080fd5b505190506001600160a01b03848116908316148061122c5750806001600160a01b0316846001600160a01b0316145b61126d576040805162461bcd60e51b815260206004820152600d60248201526c34b63632b3b0b6103a37b5b2b760991b604482015290519081900360640190fd5b6001600160a01b038481169083161461128885333087612a77565b6001600160a01b0386166000908152600b6020908152604091829020825160808101845281548082526001830154938201939093526002820154938101939093526003015460ff16151560608301526112e457505050506107be565b811561132757805161130690610fb79061098b88670de0b6b3a764000061280b565b6001600160a01b0388166000908152600b6020526040902060010155611027565b805161134390610fff9061098b88670de0b6b3a764000061280b565b6001600160a01b0388166000908152600b602052604090206002015550505050505050565b6000808261137c5750600390506000611402565b82600114156113935750600a905062278d00611402565b82600214156113aa5750600f90506276a700611402565b82600314156113c25750601e90506301da9c00611402565b6040805162461bcd60e51b815260206004820152601060248201526f696c6c6567616c206c6f636b5479706560801b604482015290519081900360640190fd5b915091565b61140f612ad7565b6001600160a01b03166114206114ef565b6001600160a01b03161461147b576040805162461bcd60e51b815260206004820181905260248201527f4f776e61626c653a2063616c6c6572206973206e6f7420746865206f776e6572604482015290519081900360640190fd5b600080546040516001600160a01b03909116907f8be0079c531659141344cd1fd0a4f28419497f9722a3daafe3b4186f6b6457e0908390a3600080546001600160a01b0319169055565b600b6020526000908152604090208054600182015460028301546003909301549192909160ff1684565b6000546001600160a01b031690565b611506612ad7565b6001600160a01b03166115176114ef565b6001600160a01b031614611572576040805162461bcd60e51b815260206004820181905260248201527f4f776e61626c653a2063616c6c6572206973206e6f7420746865206f776e6572604482015290519081900360640190fd5b600580546001600160a01b0319166001600160a01b0392909216919091179055565b6005546001600160a01b031633146115dd5760405162461bcd60e51b81526004018080602001828103825260258152602001806138a76025913960400191505060405180910390fd5b600255565b60025481565b60066020526000908152604090208054600182015460028301546003909301549192909160ff1684565b6001600160a01b038084166000908152600a602090815260408083209386168352928152828220848352905220545b9392505050565b7f000000000000000000000000000000000000000000000000000000000000000081565b600a60209081526000938452604080852082529284528284209052825290205481565b6001600160a01b03166000908152600b6020908152604091829020825160808101845281548082526001830154938201849052600283015494820185905260039092015460ff16151560609091015292909190565b6116ed846129d4565b6000806116f984611368565b6001600160a01b03808916600081815260066020908152604080832081516080808201845282548252600180840154838701526002808501548487015260039485015460ff16151560608086019190915298885260078752858820998f16885298865295849020845160c08101865281548152968101549587019590955296840154928501929092528201549383019390935260048101549382019390935260059092015460a08301529294509092506117b588868484612adb565b60006117c1888661280b565b905060008811611809576040805162461bcd60e51b815260206004820152600e60248201526d1a5b1b1959d85b08185b5bdd5b9d60921b604482015290519081900360640190fd5b6118158933308b612a77565b6001600160a01b03808716600081815260086020908152604080832054948e168352600982528083209383529281528282208483529052208981556001808201849055600282018a9055426003830181905587016004830155611879908390612928565b6001600160a01b038916600090815260086020908152604090912091909155840151611903576118a98b89612bf2565b6001600160a01b03808c166000818152600c60209081526040808320948d16835293815283822060010154928252600b905291909120546118e991612928565b6001600160a01b038c166000908152600b60205260409020555b845161190f9084612928565b6001600160a01b038c1660009081526006602090815260409091209190915584015161193b9084612928565b6001600160a01b03808d166000908152600760209081526040808320938d16835292905220600101558351611970908b612928565b6001600160a01b03808d166000908152600760209081526040808320938d1683529281529190209190915585810151908501516119c691670de0b6b3a76400009161098b91906119c09088612928565b9061280b565b6001600160a01b03808d166000908152600760209081526040808320938d168352928152908290206002019290925586015190850151611a1991670de0b6b3a76400009161098b91906119c09088612928565b6001600160a01b03808d166000818152600760209081526040808320948e1680845294825280832060030195909555918152600a82528381209281529181528282208c835290522054611a6c908b612928565b6001600160a01b03808d166000908152600a60209081526040808320938d1683529281528282208d835290522055611aa6888c8c86612e4a565b6001546040805163774785bd60e11b81526001600160a01b038b811660048301529151828f16939092169163ee8f0b7a91602480820192602092909190829003018186803b158015611af757600080fd5b505afa158015611b0b573d6000803e3d6000fd5b505050506040513d6020811015611b2157600080fd5b505160408051858152602081018e9052808201879052606081018d905290516001600160a01b03928316928c16917fee58b7a4a41f919b43841b7643761b258297cdd1aa967230d35bc23caf2b4f51919081900360800190a45050505050505050505050565b6001600160a01b039182166000908152600760209081526040808320939094168252918252829020825160c08101845281548082526001830154938201849052600283015494820185905260038301546060830181905260048401546080840181905260059094015460a0909301839052909593949390929190565b611c0b612ad7565b6001600160a01b0316611c1c6114ef565b6001600160a01b031614611c77576040805162461bcd60e51b815260206004820181905260248201527f4f776e61626c653a2063616c6c6572206973206e6f7420746865206f776e6572604482015290519081900360640190fd5b6001600160a01b038116611cbc5760405162461bcd60e51b815260040180806020018281038252602681526020018061385b6026913960400191505060405180910390fd5b600080546040516001600160a01b03808516939216917f8be0079c531659141344cd1fd0a4f28419497f9722a3daafe3b4186f6b6457e091a3600080546001600160a01b0319166001600160a01b0392909216919091179055565b6001600160a01b03821660009081526009602090815260408083203384528252808320848452825291829020825160a081018452815480825260018301549382019390935260028201549381019390935260038101546060840152600401546080830152611dbe576040805162461bcd60e51b815260206004820152600f60248201526e1a5b1b1959d85b081b1bd8dac81a59608a1b604482015290519081900360640190fd5b8060800151421015611e0c576040805162461bcd60e51b81526020600482015260126024820152716e6f74207468652072696768742074696d6560701b604482015290519081900360640190fd5b6001600160a01b038316600081815260066020908152604080832081516080808201845282548252600180840154838701526002808501548487015260039485015460ff1615156060808601919091529888526007875285882033808a5290885297869020865160c08101885281548152928101549783019790975286015494810194909452918401549583019590955260048301549082015260059091015460a082015290611ebf9086908484612adb565b60208301518251611ecf916128cb565b6001600160a01b0386166000908152600660209081526040909120919091558381015190820151611eff916128cb565b6001600160a01b038616600090815260076020908152604080832033845290915290206001015582518151611f33916128cb565b6001600160a01b038616600081815260076020908152604080832033808552908352818420959095558751938352600a825280832094835293815283822087850151835290529190912054611f87916128cb565b6001600160a01b0386166000908152600a6020908152604080832033845282528083208782015184528252909120919091558381015190820151141561202657611fd18533612bf2565b6001600160a01b0385166000818152600c60209081526040808320338452825280832060010154938352600b90915290205461200c916128cb565b6001600160a01b0386166000908152600b60205260409020555b8251156125b3576000856001600160a01b0316630dfe16816040518163ffffffff1660e01b815260040160206040518083038186803b15801561206857600080fd5b505afa15801561207c573d6000803e3d6000fd5b505050506040513d602081101561209257600080fd5b50516040805163d21220a760e01b815290519192506000916001600160a01b0389169163d21220a7916004808301926020929190829003018186803b1580156120da57600080fd5b505afa1580156120ee573d6000803e3d6000fd5b505050506040513d602081101561210457600080fd5b505185516040805163a9059cbb60e01b81526001600160a01b038b166004820181905260248201939093529051929350909163a9059cbb916044808201926020929091908290030181600087803b15801561215e57600080fd5b505af1158015612172573d6000803e3d6000fd5b505050506040513d602081101561218857600080fd5b50507f00000000000000000000000000000000000000000000000000000000000000006001600160a01b0390811690831614156123e557600080886001600160a01b03166389afcb44306040518263ffffffff1660e01b815260040180826001600160a01b031681526020019150506040805180830381600087803b15801561221057600080fd5b505af1158015612224573d6000803e3d6000fd5b505050506040513d604081101561223a57600080fd5b5080516020909101519092509050612253833383612982565b7f00000000000000000000000000000000000000000000000000000000000000006001600160a01b0316632e1a7d4d836040518263ffffffff1660e01b815260040180828152602001915050600060405180830381600087803b1580156122b957600080fd5b505af11580156122cd573d6000803e3d6000fd5b506000925033915084905082805b506040519080825280601f01601f191660200182016040528015612306576020820181803683370190505b506040518082805190602001908083835b602083106123365780518252601f199092019160209182019101612317565b6001836020036101000a03801982511681845116808217855250505050505090500191505060006040518083038185875af1925050503d8060008114612398576040519150601f19603f3d011682016040523d82523d6000602084013e61239d565b606091505b50509050806123dd5760405162461bcd60e51b81526004018080602001828103825260238152602001806138ed6023913960400191505060405180910390fd5b5050506125b0565b7f00000000000000000000000000000000000000000000000000000000000000006001600160a01b0316816001600160a01b0316141561253f57600080886001600160a01b03166389afcb44306040518263ffffffff1660e01b815260040180826001600160a01b031681526020019150506040805180830381600087803b15801561247057600080fd5b505af1158015612484573d6000803e3d6000fd5b505050506040513d604081101561249a57600080fd5b50805160209091015190925090506124b3843384612982565b7f00000000000000000000000000000000000000000000000000000000000000006001600160a01b0316632e1a7d4d826040518263ffffffff1660e01b815260040180828152602001915050600060405180830381600087803b15801561251957600080fd5b505af115801561252d573d6000803e3d6000fd5b506000925033915083905082806122db565b6040805163226bf2d160e21b815233600482015281516001600160a01b038a16926389afcb4492602480820193918290030181600087803b15801561258357600080fd5b505af1158015612597573d6000803e3d6000fd5b505050506040513d60408110156125ad57600080fd5b50505b50505b82516020808501516001600160a01b0388166000908152600983526040808220338352845280822089835284528120818155600181018290556002810182905560038101829055600401558482015191840151909161262491670de0b6b3a76400009161098b916119c090866128cb565b6001600160a01b0388166000908152600760209081526040808320338452825291829020600201929092558501519084015161267391670de0b6b3a76400009161098b91906119c090866128cb565b6001600160a01b0388166000908152600760209081526040808320338085529252909120600301919091556126aa90888484613141565b6001546040805163774785bd60e11b815233600482015290516001600160a01b03808b1693169163ee8f0b7a916024808301926020929190829003018186803b1580156126f657600080fd5b505afa15801561270a573d6000803e3d6000fd5b505050506040513d602081101561272057600080fd5b505186516020888101516040808b015181518d81529384019490945282810191909152606082019290925290516001600160a01b039092169133917fd91ccdd5cef3c2bca03dc0bf0b42adf67c0d34121e6476bff161091e0411c11c919081900360800190a450505050505050565b6001600160a01b039182166000908152600c60209081526040808320939094168252918252829020825160c08101845281548082526001830154938201849052600283015494820185905260038301546060830181905260048401546080840181905260059094015460a0909301839052909593949390929190565b60008261281a57506000611057565b8282028284828161282757fe5b04146116415760405162461bcd60e51b81526004018080602001828103825260218152602001806138cc6021913960400191505060405180910390fd5b60008082116128ba576040805162461bcd60e51b815260206004820152601a60248201527f536166654d6174683a206469766973696f6e206279207a65726f000000000000604482015290519081900360640190fd5b8183816128c357fe5b049392505050565b600082821115612922576040805162461bcd60e51b815260206004820152601e60248201527f536166654d6174683a207375627472616374696f6e206f766572666c6f770000604482015290519081900360640190fd5b50900390565b600082820183811015611641576040805162461bcd60e51b815260206004820152601b60248201527f536166654d6174683a206164646974696f6e206f766572666c6f770000000000604482015290519081900360640190fd5b604080516001600160a01b038416602482015260448082018490528251808303909101815260649091019091526020810180516001600160e01b031663a9059cbb60e01b1790526107be908490613408565b6001600160a01b03811660009081526006602052604090206003015460ff16151560011415612a0257612a74565b6001600160a01b03811660009081526006602090815260408083206003808201805460ff19166001908117909155600b90945291909320015460ff1615151415612a4c5750612a74565b506001600160a01b0381166000908152600b60205260409020600301805460ff191660011790555b50565b604080516001600160a01b0380861660248301528416604482015260648082018490528251808303909101815260849091019091526020810180516001600160e01b03166323b872dd60e01b179052612ad1908590613408565b50505050565b3390565b602081015115612ad1576000612b0e670de0b6b3a764000061098b8560200151856020015161280b90919063ffffffff16565b9050612b35612b2a8360400151836128cb90919063ffffffff16565b608084015190612928565b6001600160a01b03868116600090815260076020908152604080832093891683529281528282206004810194909455600290930184905590850151918401519091612b8e91670de0b6b3a76400009161098b919061280b565b9050612bb5612baa8460600151836128cb90919063ffffffff16565b60a085015190612928565b6001600160a01b03968716600090815260076020908152604080832098909916825296909652959094206005810195909555505050600390910155565b6001600160a01b038083166000908152600c602090815260408083209385168352929052206001015415610b09576001600160a01b038083166000818152600760209081526040808320948616808452948252808320600190810154948452600b8352818420810154600c8452828520968552959092528220015491929091612c8891670de0b6b3a76400009161098b9161280b565b90508115612d21576001600160a01b038085166000908152600c6020908152604080832093871683529290522060020154612cf790612cc89083906128cb565b6001600160a01b038087166000908152600c602090815260408083209389168352929052206004015490612928565b6001600160a01b038086166000908152600c60209081526040808320938816835292905220600401555b6001600160a01b038085166000818152600c602090815260408083209488168084528583528184206002808201899055958552600b845291842090940154938352939052600190920154612d8291670de0b6b3a76400009161098b9161280b565b90508215612e1b576001600160a01b038086166000908152600c6020908152604080832093881683529290522060030154612df190612dc29083906128cb565b6001600160a01b038088166000908152600c60209081526040808320938a168352929052206005015490612928565b6001600160a01b038087166000908152600c60209081526040808320938916835292905220600501555b6001600160a01b038086166000908152600c602090815260408083209388168352929052206003015550505050565b6001546040805163774785bd60e11b81526001600160a01b0387811660048301529151600093929092169163ee8f0b7a91602480820192602092909190829003018186803b158015612e9b57600080fd5b505afa158015612eaf573d6000803e3d6000fd5b505050506040513d6020811015612ec557600080fd5b505190506001600160a01b038116612f17576040805162461bcd60e51b815260206004820152601060248201526f75736572206e6f74207265676973746560801b604482015290519081900360640190fd5b6001600160a01b038085166000818152600b6020908152604080832081516080808201845282548252600180840154838701526002808501548487015260039485015460ff161515606080860191909152988852600c8752858820998b16885298865295849020845160c08101865281548152968101549587019590955296840154928501929092528201549383019390935260048101549382019390935260059092015460a083015290612fce868484846134b9565b8315611027576001600160a01b038087166000908152600760209081526040808320938716835292905220600101541561302857815161300e9085612928565b6001600160a01b0387166000908152600b60205260409020555b60208101516130379085612928565b6001600160a01b038088166000908152600c6020908152604080832093881683529290522060010155805161306c9086612928565b6001600160a01b038088166000908152600c6020908152604080832093881683529281529190209190915582810151908201516130bc91670de0b6b3a76400009161098b91906119c09089612928565b6001600160a01b038088166000908152600c60209081526040808320938816835292815290829020600201929092558301519082015161310f91670de0b6b3a76400009161098b91906119c09089612928565b6001600160a01b038088166000908152600c602090815260408083209388168352929052206003015550505050505050565b6001546040805163774785bd60e11b81526001600160a01b0387811660048301529151600093929092169163ee8f0b7a91602480820192602092909190829003018186803b15801561319257600080fd5b505afa1580156131a6573d6000803e3d6000fd5b505050506040513d60208110156131bc57600080fd5b505190506001600160a01b03811661320e576040805162461bcd60e51b815260206004820152601060248201526f75736572206e6f74207265676973746560801b604482015290519081900360640190fd5b6001600160a01b038085166000818152600b6020908152604080832081516080808201845282548252600180840154838701526002808501548487015260039485015460ff161515606080860191909152988852600c8752858820998b16885298865295849020845160c08101865281548152968101549587019590955296840154928501929092528201549383019390935260048101549382019390935260059092015460a0830152906132c5868484846134b9565b831561338a576001600160a01b038087166000908152600760209081526040808320938716835292905220600101541561331f57815161330590856128cb565b6001600160a01b0387166000908152600b60205260409020555b602081015161332e90856128cb565b6001600160a01b038088166000908152600c6020908152604080832093881683529290522060010155805161336390866128cb565b6001600160a01b038088166000908152600c60209081526040808320938816835292905220555b6133b5670de0b6b3a764000061098b84602001516119c08886602001516128cb90919063ffffffff16565b6001600160a01b038088166000908152600c60209081526040808320938816835292815290829020600201929092558301519082015161310f91670de0b6b3a76400009161098b91906119c090896128cb565b600061345d826040518060400160405280602081526020017f5361666545524332303a206c6f772d6c6576656c2063616c6c206661696c6564815250856001600160a01b031661363e9092919063ffffffff16565b8051909150156107be5780806020019051602081101561347c57600080fd5b50516107be5760405162461bcd60e51b815260040180806020018281038252602a815260200180613910602a913960400191505060405180910390fd5b602081015115612ad1576001600160a01b0380851660009081526007602090815260408083209387168352928152918120600101548483015192840151909261351091670de0b6b3a76400009161098b919061280b565b905081156135675761353d6135328460400151836128cb90919063ffffffff16565b608085015190612928565b6001600160a01b038088166000908152600c60209081526040808320938a16835292905220600401555b6001600160a01b038087166000908152600c602090815260408083209389168352928152828220600201849055918601519185015190916135b691670de0b6b3a76400009161098b919061280b565b9050821561360d576135e36135d88560600151836128cb90919063ffffffff16565b60a086015190612928565b6001600160a01b038089166000908152600c60209081526040808320938b16835292905220600501555b6001600160a01b038088166000908152600c60209081526040808320938a1683529290522060030155505050505050565b606061364d8484600085613655565b949350505050565b6060824710156136965760405162461bcd60e51b81526004018080602001828103825260268152602001806138816026913960400191505060405180910390fd5b61369f856137b0565b6136f0576040805162461bcd60e51b815260206004820152601d60248201527f416464726573733a2063616c6c20746f206e6f6e2d636f6e7472616374000000604482015290519081900360640190fd5b600080866001600160a01b031685876040518082805190602001908083835b6020831061372e5780518252601f19909201916020918201910161370f565b6001836020036101000a03801982511681845116808217855250505050505090500191505060006040518083038185875af1925050503d8060008114613790576040519150601f19603f3d011682016040523d82523d6000602084013e613795565b606091505b50915091506137a58282866137b6565b979650505050505050565b3b151590565b606083156137c5575081611641565b8251156137d55782518084602001fd5b8160405162461bcd60e51b81526004018080602001828103825283818151815260200191508051906020019080838360005b8381101561381f578181015183820152602001613807565b50505050905090810190601f16801561384c5780820380516001836020036101000a031916815260200191505b509250505060405180910390fdfe4f776e61626c653a206e6577206f776e657220697320746865207a65726f2061646472657373416464726573733a20696e73756666696369656e742062616c616e636520666f722063616c6c6f6e6c7920736e617073686f7443726561746543616c6c65722063616e20646f2074686973536166654d6174683a206d756c7469706c69636174696f6e206f766572666c6f775472616e7366657248656c7065723a204554485f5452414e534645525f4641494c45445361666545524332303a204552433230206f7065726174696f6e20646964206e6f742073756363656564a2646970667358221220909de7549cc29be96d854c8727f4ab8940122390bf38199937017065e2663a6c64736f6c63430007060033",
  "devdoc": {
    "kind": "dev",
    "methods": {
      "owner()": {
        "details": "Returns the address of the current owner."
      },
      "renounceOwnership()": {
        "details": "Leaves the contract without owner. It will not be possible to call `onlyOwner` functions anymore. Can only be called by the current owner. NOTE: Renouncing ownership will leave the contract without an owner, thereby removing any functionality that is only available to the owner."
      },
      "transferOwnership(address)": {
        "details": "Transfers ownership of the contract to a new account (`newOwner`). Can only be called by the current owner."
      }
    },
    "version": 1
  },
  "userdoc": {
    "kind": "user",
    "methods": {},
    "version": 1
  },
  "storageLayout": {
    "storage": [
      {
        "astId": 7,
        "contract": "contracts/farm/MasterChef.sol:MasterChef",
        "label": "_owner",
        "offset": 0,
        "slot": "0",
        "type": "t_address"
      },
      {
        "astId": 4385,
        "contract": "contracts/farm/MasterChef.sol:MasterChef",
        "label": "user",
        "offset": 0,
        "slot": "1",
        "type": "t_contract(IUser)8029"
      },
      {
        "astId": 4389,
        "contract": "contracts/farm/MasterChef.sol:MasterChef",
        "label": "currentSnapshotId",
        "offset": 0,
        "slot": "2",
        "type": "t_uint256"
      },
      {
        "astId": 4395,
        "contract": "contracts/farm/MasterChef.sol:MasterChef",
        "label": "userSnapshotId",
        "offset": 0,
        "slot": "3",
        "type": "t_mapping(t_contract(IKeplerPair)7610,t_mapping(t_address,t_uint256))"
      },
      {
        "astId": 4401,
        "contract": "contracts/farm/MasterChef.sol:MasterChef",
        "label": "userSnapshotAmount",
        "offset": 0,
        "slot": "4",
        "type": "t_mapping(t_contract(IKeplerPair)7610,t_mapping(t_address,t_uint256))"
      },
      {
        "astId": 4403,
        "contract": "contracts/farm/MasterChef.sol:MasterChef",
        "label": "snapshotCreateCaller",
        "offset": 0,
        "slot": "5",
        "type": "t_address"
      },
      {
        "astId": 4440,
        "contract": "contracts/farm/MasterChef.sol:MasterChef",
        "label": "poolInfo",
        "offset": 0,
        "slot": "6",
        "type": "t_mapping(t_contract(IKeplerPair)7610,t_struct(PoolInfo)4436_storage)"
      },
      {
        "astId": 4446,
        "contract": "contracts/farm/MasterChef.sol:MasterChef",
        "label": "userInfo",
        "offset": 0,
        "slot": "7",
        "type": "t_mapping(t_contract(IKeplerPair)7610,t_mapping(t_address,t_struct(UserInfo)4427_storage))"
      },
      {
        "astId": 4450,
        "contract": "contracts/farm/MasterChef.sol:MasterChef",
        "label": "userMaxLockId",
        "offset": 0,
        "slot": "8",
        "type": "t_mapping(t_address,t_uint256)"
      },
      {
        "astId": 4458,
        "contract": "contracts/farm/MasterChef.sol:MasterChef",
        "label": "userLockInfo",
        "offset": 0,
        "slot": "9",
        "type": "t_mapping(t_contract(IKeplerPair)7610,t_mapping(t_address,t_mapping(t_uint256,t_struct(UserLockInfo)4414_storage)))"
      },
      {
        "astId": 4466,
        "contract": "contracts/farm/MasterChef.sol:MasterChef",
        "label": "userLockTypeAmount",
        "offset": 0,
        "slot": "10",
        "type": "t_mapping(t_contract(IKeplerPair)7610,t_mapping(t_address,t_mapping(t_uint256,t_uint256)))"
      },
      {
        "astId": 4470,
        "contract": "contracts/farm/MasterChef.sol:MasterChef",
        "label": "inviterPoolInfo",
        "offset": 0,
        "slot": "11",
        "type": "t_mapping(t_contract(IKeplerPair)7610,t_struct(PoolInfo)4436_storage)"
      },
      {
        "astId": 4476,
        "contract": "contracts/farm/MasterChef.sol:MasterChef",
        "label": "inviterUserInfo",
        "offset": 0,
        "slot": "12",
        "type": "t_mapping(t_contract(IKeplerPair)7610,t_mapping(t_address,t_struct(UserInfo)4427_storage))"
      }
    ],
    "types": {
      "t_address": {
        "encoding": "inplace",
        "label": "address",
        "numberOfBytes": "20"
      },
      "t_bool": {
        "encoding": "inplace",
        "label": "bool",
        "numberOfBytes": "1"
      },
      "t_contract(IKeplerPair)7610": {
        "encoding": "inplace",
        "label": "contract IKeplerPair",
        "numberOfBytes": "20"
      },
      "t_contract(IUser)8029": {
        "encoding": "inplace",
        "label": "contract IUser",
        "numberOfBytes": "20"
      },
      "t_mapping(t_address,t_mapping(t_uint256,t_struct(UserLockInfo)4414_storage))": {
        "encoding": "mapping",
        "key": "t_address",
        "label": "mapping(address => mapping(uint256 => struct MasterChef.UserLockInfo))",
        "numberOfBytes": "32",
        "value": "t_mapping(t_uint256,t_struct(UserLockInfo)4414_storage)"
      },
      "t_mapping(t_address,t_mapping(t_uint256,t_uint256))": {
        "encoding": "mapping",
        "key": "t_address",
        "label": "mapping(address => mapping(uint256 => uint256))",
        "numberOfBytes": "32",
        "value": "t_mapping(t_uint256,t_uint256)"
      },
      "t_mapping(t_address,t_struct(UserInfo)4427_storage)": {
        "encoding": "mapping",
        "key": "t_address",
        "label": "mapping(address => struct MasterChef.UserInfo)",
        "numberOfBytes": "32",
        "value": "t_struct(UserInfo)4427_storage"
      },
      "t_mapping(t_address,t_uint256)": {
        "encoding": "mapping",
        "key": "t_address",
        "label": "mapping(address => uint256)",
        "numberOfBytes": "32",
        "value": "t_uint256"
      },
      "t_mapping(t_contract(IKeplerPair)7610,t_mapping(t_address,t_mapping(t_uint256,t_struct(UserLockInfo)4414_storage)))": {
        "encoding": "mapping",
        "key": "t_contract(IKeplerPair)7610",
        "label": "mapping(contract IKeplerPair => mapping(address => mapping(uint256 => struct MasterChef.UserLockInfo)))",
        "numberOfBytes": "32",
        "value": "t_mapping(t_address,t_mapping(t_uint256,t_struct(UserLockInfo)4414_storage))"
      },
      "t_mapping(t_contract(IKeplerPair)7610,t_mapping(t_address,t_mapping(t_uint256,t_uint256)))": {
        "encoding": "mapping",
        "key": "t_contract(IKeplerPair)7610",
        "label": "mapping(contract IKeplerPair => mapping(address => mapping(uint256 => uint256)))",
        "numberOfBytes": "32",
        "value": "t_mapping(t_address,t_mapping(t_uint256,t_uint256))"
      },
      "t_mapping(t_contract(IKeplerPair)7610,t_mapping(t_address,t_struct(UserInfo)4427_storage))": {
        "encoding": "mapping",
        "key": "t_contract(IKeplerPair)7610",
        "label": "mapping(contract IKeplerPair => mapping(address => struct MasterChef.UserInfo))",
        "numberOfBytes": "32",
        "value": "t_mapping(t_address,t_struct(UserInfo)4427_storage)"
      },
      "t_mapping(t_contract(IKeplerPair)7610,t_mapping(t_address,t_uint256))": {
        "encoding": "mapping",
        "key": "t_contract(IKeplerPair)7610",
        "label": "mapping(contract IKeplerPair => mapping(address => uint256))",
        "numberOfBytes": "32",
        "value": "t_mapping(t_address,t_uint256)"
      },
      "t_mapping(t_contract(IKeplerPair)7610,t_struct(PoolInfo)4436_storage)": {
        "encoding": "mapping",
        "key": "t_contract(IKeplerPair)7610",
        "label": "mapping(contract IKeplerPair => struct MasterChef.PoolInfo)",
        "numberOfBytes": "32",
        "value": "t_struct(PoolInfo)4436_storage"
      },
      "t_mapping(t_uint256,t_struct(UserLockInfo)4414_storage)": {
        "encoding": "mapping",
        "key": "t_uint256",
        "label": "mapping(uint256 => struct MasterChef.UserLockInfo)",
        "numberOfBytes": "32",
        "value": "t_struct(UserLockInfo)4414_storage"
      },
      "t_mapping(t_uint256,t_uint256)": {
        "encoding": "mapping",
        "key": "t_uint256",
        "label": "mapping(uint256 => uint256)",
        "numberOfBytes": "32",
        "value": "t_uint256"
      },
      "t_struct(PoolInfo)4436_storage": {
        "encoding": "inplace",
        "label": "struct MasterChef.PoolInfo",
        "members": [
          {
            "astId": 4429,
            "contract": "contracts/farm/MasterChef.sol:MasterChef",
            "label": "totalShares",
            "offset": 0,
            "slot": "0",
            "type": "t_uint256"
          },
          {
            "astId": 4431,
            "contract": "contracts/farm/MasterChef.sol:MasterChef",
            "label": "token0AccPerShare",
            "offset": 0,
            "slot": "1",
            "type": "t_uint256"
          },
          {
            "astId": 4433,
            "contract": "contracts/farm/MasterChef.sol:MasterChef",
            "label": "token1AccPerShare",
            "offset": 0,
            "slot": "2",
            "type": "t_uint256"
          },
          {
            "astId": 4435,
            "contract": "contracts/farm/MasterChef.sol:MasterChef",
            "label": "avaliable",
            "offset": 0,
            "slot": "3",
            "type": "t_bool"
          }
        ],
        "numberOfBytes": "128"
      },
      "t_struct(UserInfo)4427_storage": {
        "encoding": "inplace",
        "label": "struct MasterChef.UserInfo",
        "members": [
          {
            "astId": 4416,
            "contract": "contracts/farm/MasterChef.sol:MasterChef",
            "label": "amount",
            "offset": 0,
            "slot": "0",
            "type": "t_uint256"
          },
          {
            "astId": 4418,
            "contract": "contracts/farm/MasterChef.sol:MasterChef",
            "label": "shares",
            "offset": 0,
            "slot": "1",
            "type": "t_uint256"
          },
          {
            "astId": 4420,
            "contract": "contracts/farm/MasterChef.sol:MasterChef",
            "label": "token0Debt",
            "offset": 0,
            "slot": "2",
            "type": "t_uint256"
          },
          {
            "astId": 4422,
            "contract": "contracts/farm/MasterChef.sol:MasterChef",
            "label": "token1Debt",
            "offset": 0,
            "slot": "3",
            "type": "t_uint256"
          },
          {
            "astId": 4424,
            "contract": "contracts/farm/MasterChef.sol:MasterChef",
            "label": "token0Pending",
            "offset": 0,
            "slot": "4",
            "type": "t_uint256"
          },
          {
            "astId": 4426,
            "contract": "contracts/farm/MasterChef.sol:MasterChef",
            "label": "token1Pending",
            "offset": 0,
            "slot": "5",
            "type": "t_uint256"
          }
        ],
        "numberOfBytes": "192"
      },
      "t_struct(UserLockInfo)4414_storage": {
        "encoding": "inplace",
        "label": "struct MasterChef.UserLockInfo",
        "members": [
          {
            "astId": 4405,
            "contract": "contracts/farm/MasterChef.sol:MasterChef",
            "label": "amount",
            "offset": 0,
            "slot": "0",
            "type": "t_uint256"
          },
          {
            "astId": 4407,
            "contract": "contracts/farm/MasterChef.sol:MasterChef",
            "label": "shares",
            "offset": 0,
            "slot": "1",
            "type": "t_uint256"
          },
          {
            "astId": 4409,
            "contract": "contracts/farm/MasterChef.sol:MasterChef",
            "label": "lockType",
            "offset": 0,
            "slot": "2",
            "type": "t_uint256"
          },
          {
            "astId": 4411,
            "contract": "contracts/farm/MasterChef.sol:MasterChef",
            "label": "depositAt",
            "offset": 0,
            "slot": "3",
            "type": "t_uint256"
          },
          {
            "astId": 4413,
            "contract": "contracts/farm/MasterChef.sol:MasterChef",
            "label": "expireAt",
            "offset": 0,
            "slot": "4",
            "type": "t_uint256"
          }
        ],
        "numberOfBytes": "160"
      },
      "t_uint256": {
        "encoding": "inplace",
        "label": "uint256",
        "numberOfBytes": "32"
      }
    }
  }
}